{
  "_format": "hh-sol-artifact-1",
  "contractName": "ParcelVestingFactory",
  "sourceName": "contracts/ParcelVestingFactory.sol",
  "abi": [
    {
      "inputs": [
        {
          "internalType": "address",
          "name": "_providerContract",
          "type": "address"
        }
      ],
      "stateMutability": "nonpayable",
      "type": "constructor"
    },
    {
      "anonymous": false,
      "inputs": [
        {
          "indexed": false,
          "internalType": "address",
          "name": "dao",
          "type": "address"
        },
        {
          "indexed": false,
          "internalType": "address",
          "name": "vestingWalletProxy",
          "type": "address"
        }
      ],
      "name": "NewDAOreigistredToPrototcol",
      "type": "event"
    },
    {
      "anonymous": false,
      "inputs": [
        {
          "indexed": false,
          "internalType": "address",
          "name": "daoProxy",
          "type": "address"
        },
        {
          "indexed": false,
          "internalType": "address",
          "name": "contributor",
          "type": "address"
        },
        {
          "indexed": false,
          "internalType": "uint256",
          "name": "tokenId",
          "type": "uint256"
        }
      ],
      "name": "NewOwnerShipTokenMinted",
      "type": "event"
    },
    {
      "anonymous": false,
      "inputs": [
        {
          "indexed": true,
          "internalType": "address",
          "name": "previousOwner",
          "type": "address"
        },
        {
          "indexed": true,
          "internalType": "address",
          "name": "newOwner",
          "type": "address"
        }
      ],
      "name": "OwnershipTransferred",
      "type": "event"
    },
    {
      "inputs": [
        {
          "internalType": "address",
          "name": "daoOwner",
          "type": "address"
        }
      ],
      "name": "deployVestingProxy",
      "outputs": [
        {
          "internalType": "address",
          "name": "",
          "type": "address"
        }
      ],
      "stateMutability": "nonpayable",
      "type": "function"
    },
    {
      "inputs": [
        {
          "internalType": "address",
          "name": "contributor",
          "type": "address"
        }
      ],
      "name": "mintOwnershipNft",
      "outputs": [
        {
          "internalType": "uint256",
          "name": "",
          "type": "uint256"
        }
      ],
      "stateMutability": "nonpayable",
      "type": "function"
    },
    {
      "inputs": [],
      "name": "owner",
      "outputs": [
        {
          "internalType": "address",
          "name": "",
          "type": "address"
        }
      ],
      "stateMutability": "view",
      "type": "function"
    },
    {
      "inputs": [],
      "name": "renounceOwnership",
      "outputs": [],
      "stateMutability": "nonpayable",
      "type": "function"
    },
    {
      "inputs": [
        {
          "internalType": "address",
          "name": "newOwner",
          "type": "address"
        }
      ],
      "name": "transferOwnership",
      "outputs": [],
      "stateMutability": "nonpayable",
      "type": "function"
    }
  ],
  "bytecode": "0x608060405234801561001057600080fd5b506040516124f03803806124f0833981810160405281019061003291906101d9565b61004e6100436100f860201b60201c565b61010060201b60201c565b80600260006101000a81548173ffffffffffffffffffffffffffffffffffffffff021916908373ffffffffffffffffffffffffffffffffffffffff160217905550600260009054906101000a900473ffffffffffffffffffffffffffffffffffffffff16600160006101000a81548173ffffffffffffffffffffffffffffffffffffffff021916908373ffffffffffffffffffffffffffffffffffffffff1602179055505061024b565b600033905090565b60008060009054906101000a900473ffffffffffffffffffffffffffffffffffffffff169050816000806101000a81548173ffffffffffffffffffffffffffffffffffffffff021916908373ffffffffffffffffffffffffffffffffffffffff1602179055508173ffffffffffffffffffffffffffffffffffffffff168173ffffffffffffffffffffffffffffffffffffffff167f8be0079c531659141344cd1fd0a4f28419497f9722a3daafe3b4186f6b6457e060405160405180910390a35050565b6000815190506101d381610234565b92915050565b6000602082840312156101eb57600080fd5b60006101f9848285016101c4565b91505092915050565b600061020d82610214565b9050919050565b600073ffffffffffffffffffffffffffffffffffffffff82169050919050565b61023d81610202565b811461024857600080fd5b50565b6122968061025a6000396000f3fe60806040523480156200001157600080fd5b50600436106200005e5760003560e01c8063715018a614620000635780638da5cb5b146200006f578063d4262fa81462000091578063e862d59014620000c7578063f2fde38b14620000fd575b600080fd5b6200006d6200011d565b005b62000079620001ae565b60405162000088919062000833565b60405180910390f35b620000af6004803603810190620000a991906200073f565b620001d7565b604051620000be91906200093b565b60405180910390f35b620000e56004803603810190620000df91906200073f565b620003cb565b604051620000f4919062000833565b60405180910390f35b6200011b60048036038101906200011591906200073f565b6200051c565b005b6200012762000620565b73ffffffffffffffffffffffffffffffffffffffff1662000147620001ae565b73ffffffffffffffffffffffffffffffffffffffff1614620001a0576040517f08c379a0000000000000000000000000000000000000000000000000000000008152600401620001979062000919565b60405180910390fd5b620001ac600062000628565b565b60008060009054906101000a900473ffffffffffffffffffffffffffffffffffffffff16905090565b600080600160009054906101000a900473ffffffffffffffffffffffffffffffffffffffff1673ffffffffffffffffffffffffffffffffffffffff16639ae00aea6040518163ffffffff1660e01b815260040160206040518083038186803b1580156200024357600080fd5b505afa15801562000258573d6000803e3d6000fd5b505050506040513d601f19601f820116820180604052508101906200027e91906200076b565b90508073ffffffffffffffffffffffffffffffffffffffff166340d097c3846040518263ffffffff1660e01b8152600401620002bb919062000833565b600060405180830381600087803b158015620002d657600080fd5b505af1158015620002eb573d6000803e3d6000fd5b5050505060008173ffffffffffffffffffffffffffffffffffffffff1663f1537686856040518263ffffffff1660e01b81526004016200032c919062000833565b602060405180830381600087803b1580156200034757600080fd5b505af11580156200035c573d6000803e3d6000fd5b505050506040513d601f19601f8201168201806040525081019062000382919062000797565b90507fd550045340b9452a617d65b7b50b1946ff8f72d6b21ddcae09e470a0b11e6882338583604051620003b993929190620008ba565b60405180910390a18092505050919050565b6000806000600160009054906101000a900473ffffffffffffffffffffffffffffffffffffffff1673ffffffffffffffffffffffffffffffffffffffff1663bcc4e4ab6040518163ffffffff1660e01b815260040160206040518083038186803b1580156200043957600080fd5b505afa1580156200044e573d6000803e3d6000fd5b505050506040513d601f19601f820116820180604052508101906200047491906200076b565b90508084600260009054906101000a900473ffffffffffffffffffffffffffffffffffffffff16604051620004a990620006ec565b620004b7939291906200087d565b604051809103906000f080158015620004d4573d6000803e3d6000fd5b5091507f9452112656dd01767fbbca29f28ea6665ac63cc946f927017058989bf385647b84836040516200050a92919062000850565b60405180910390a18192505050919050565b6200052662000620565b73ffffffffffffffffffffffffffffffffffffffff1662000546620001ae565b73ffffffffffffffffffffffffffffffffffffffff16146200059f576040517f08c379a0000000000000000000000000000000000000000000000000000000008152600401620005969062000919565b60405180910390fd5b600073ffffffffffffffffffffffffffffffffffffffff168173ffffffffffffffffffffffffffffffffffffffff16141562000612576040517f08c379a00000000000000000000000000000000000000000000000000000000081526004016200060990620008f7565b60405180910390fd5b6200061d8162000628565b50565b600033905090565b60008060009054906101000a900473ffffffffffffffffffffffffffffffffffffffff169050816000806101000a81548173ffffffffffffffffffffffffffffffffffffffff021916908373ffffffffffffffffffffffffffffffffffffffff1602179055508173ffffffffffffffffffffffffffffffffffffffff168173ffffffffffffffffffffffffffffffffffffffff167f8be0079c531659141344cd1fd0a4f28419497f9722a3daafe3b4186f6b6457e060405160405180910390a35050565b61180d8062000a5483390190565b6000813590506200070b8162000a1f565b92915050565b600081519050620007228162000a1f565b92915050565b600081519050620007398162000a39565b92915050565b6000602082840312156200075257600080fd5b60006200076284828501620006fa565b91505092915050565b6000602082840312156200077e57600080fd5b60006200078e8482850162000711565b91505092915050565b600060208284031215620007aa57600080fd5b6000620007ba8482850162000728565b91505092915050565b620007ce8162000969565b82525050565b6000620007e360268362000958565b9150620007f082620009a7565b604082019050919050565b60006200080a60208362000958565b91506200081782620009f6565b602082019050919050565b6200082d816200099d565b82525050565b60006020820190506200084a6000830184620007c3565b92915050565b6000604082019050620008676000830185620007c3565b620008766020830184620007c3565b9392505050565b6000606082019050620008946000830186620007c3565b620008a36020830185620007c3565b620008b26040830184620007c3565b949350505050565b6000606082019050620008d16000830186620007c3565b620008e06020830185620007c3565b620008ef604083018462000822565b949350505050565b600060208201905081810360008301526200091281620007d4565b9050919050565b600060208201905081810360008301526200093481620007fb565b9050919050565b600060208201905062000952600083018462000822565b92915050565b600082825260208201905092915050565b600062000976826200097d565b9050919050565b600073ffffffffffffffffffffffffffffffffffffffff82169050919050565b6000819050919050565b7f4f776e61626c653a206e6577206f776e657220697320746865207a65726f206160008201527f6464726573730000000000000000000000000000000000000000000000000000602082015250565b7f4f776e61626c653a2063616c6c6572206973206e6f7420746865206f776e6572600082015250565b62000a2a8162000969565b811462000a3657600080fd5b50565b62000a44816200099d565b811462000a5057600080fd5b5056fe60806040526000600260006101000a81548173ffffffffffffffffffffffffffffffffffffffff021916908373ffffffffffffffffffffffffffffffffffffffff1602179055506040516200180d3803806200180d83398181016040528101906200006b919062000489565b60017f360894a13ba1a3210667c828492db98dca3e2076cc3735a920a3ca505d382bbd60001c6200009d9190620005c0565b60001b7f360894a13ba1a3210667c828492db98dca3e2076cc3735a920a3ca505d382bbc60001b14620000f9577f4e487b7100000000000000000000000000000000000000000000000000000000600052600160045260246000fd5b80600360006101000a81548173ffffffffffffffffffffffffffffffffffffffff021916908373ffffffffffffffffffffffffffffffffffffffff1602179055506200014b836200016560201b60201c565b6200015c82620001bc60201b60201c565b50505062000720565b62000176816200021a60201b60201c565b8073ffffffffffffffffffffffffffffffffffffffff167fbc7cd75a20ee27fd9adebab32041f755214dbc6bffa90cc0225b39da2e5c2d3b60405160405180910390a250565b7f7e644d79422f17c01e4894b5f4f588d331ebfa28653d42ae832dc59e38c9798f620001ed620002f060201b60201c565b82604051620001fe9291906200053e565b60405180910390a162000217816200035460201b60201c565b50565b62000230816200044560201b620007c21760201c565b62000272576040517f08c379a000000000000000000000000000000000000000000000000000000000815260040162000269906200058d565b60405180910390fd5b80620002ac7f360894a13ba1a3210667c828492db98dca3e2076cc3735a920a3ca505d382bbc60001b6200046860201b620007e51760201c565b60000160006101000a81548173ffffffffffffffffffffffffffffffffffffffff021916908373ffffffffffffffffffffffffffffffffffffffff16021790555050565b60006200032b7fb53127684a568b3173ae13b9f8a6016e243e63b6e8ee1178d6a717850b5d610360001b6200046860201b620007e51760201c565b60000160009054906101000a900473ffffffffffffffffffffffffffffffffffffffff16905090565b600073ffffffffffffffffffffffffffffffffffffffff168173ffffffffffffffffffffffffffffffffffffffff161415620003c7576040517f08c379a0000000000000000000000000000000000000000000000000000000008152600401620003be906200056b565b60405180910390fd5b80620004017fb53127684a568b3173ae13b9f8a6016e243e63b6e8ee1178d6a717850b5d610360001b6200046860201b620007e51760201c565b60000160006101000a81548173ffffffffffffffffffffffffffffffffffffffff021916908373ffffffffffffffffffffffffffffffffffffffff16021790555050565b6000808273ffffffffffffffffffffffffffffffffffffffff163b119050919050565b6000819050919050565b600081519050620004838162000706565b92915050565b6000806000606084860312156200049f57600080fd5b6000620004af8682870162000472565b9350506020620004c28682870162000472565b9250506040620004d58682870162000472565b9150509250925092565b620004ea81620005fb565b82525050565b6000620004ff602683620005af565b91506200050c8262000668565b604082019050919050565b600062000526602d83620005af565b91506200053382620006b7565b604082019050919050565b6000604082019050620005556000830185620004df565b620005646020830184620004df565b9392505050565b600060208201905081810360008301526200058681620004f0565b9050919050565b60006020820190508181036000830152620005a88162000517565b9050919050565b600082825260208201905092915050565b6000620005cd826200062f565b9150620005da836200062f565b925082821015620005f057620005ef62000639565b5b828203905092915050565b600062000608826200060f565b9050919050565b600073ffffffffffffffffffffffffffffffffffffffff82169050919050565b6000819050919050565b7f4e487b7100000000000000000000000000000000000000000000000000000000600052601160045260246000fd5b7f455243313936373a206e65772061646d696e20697320746865207a65726f206160008201527f6464726573730000000000000000000000000000000000000000000000000000602082015250565b7f455243313936373a206e657720696d706c656d656e746174696f6e206973206e60008201527f6f74206120636f6e747261637400000000000000000000000000000000000000602082015250565b6200071181620005fb565b81146200071d57600080fd5b50565b6110dd80620007306000396000f3fe60806040526004361061007f5760003560e01c80636ee80de61161004e5780636ee80de61461016d5780639b263eca146101aa578063aac7e156146101d5578063dfb80831146102125761008e565b8063025b22bc14610098578063279a1d19146100c15780633cb5d100146101055780636e9960c3146101425761008e565b3661008e5761008c61023d565b005b61009661023d565b005b3480156100a457600080fd5b506100bf60048036038101906100ba9190610b35565b610257565b005b3480156100cd57600080fd5b506100e860048036038101906100e39190610c29565b6102d8565b6040516100fc989796959493929190610dbf565b60405180910390f35b34801561011157600080fd5b5061012c60048036038101906101279190610bd7565b61039c565b6040516101399190610cf6565b60405180910390f35b34801561014e57600080fd5b506101576103db565b6040516101649190610cf6565b60405180910390f35b34801561017957600080fd5b50610194600480360381019061018f9190610c29565b6103ea565b6040516101a19190610e3d565b60405180910390f35b3480156101b657600080fd5b506101bf61045c565b6040516101cc9190610cf6565b60405180910390f35b3480156101e157600080fd5b506101fc60048036038101906101f79190610b87565b610482565b6040516102099190610da4565b60405180910390f35b34801561021e57600080fd5b506102276107b3565b6040516102349190610cf6565b60405180910390f35b6102456107ef565b6102556102506107f1565b610800565b565b3373ffffffffffffffffffffffffffffffffffffffff166102766103db565b73ffffffffffffffffffffffffffffffffffffffff16146102cc576040517f08c379a00000000000000000000000000000000000000000000000000000000081526004016102c390610d64565b60405180910390fd5b6102d581610826565b50565b6001602052816000526040600020602052806000526040600020600091509150508060000154908060010160009054906101000a900460ff16908060010160019054906101000a900473ffffffffffffffffffffffffffffffffffffffff16908060010160159054906101000a900467ffffffffffffffff16908060020160009054906101000a900467ffffffffffffffff16908060020160089054906101000a900460ff16908060030154908060040160009054906101000a900460ff16905088565b600081815481106103ac57600080fd5b906000526020600020016000915054906101000a900473ffffffffffffffffffffffffffffffffffffffff1681565b60006103e5610875565b905090565b60006001600084815260200190815260200160002060008373ffffffffffffffffffffffffffffffffffffffff1673ffffffffffffffffffffffffffffffffffffffff16815260200190815260200160002060010160159054906101000a900467ffffffffffffffff16905092915050565b600360009054906101000a900473ffffffffffffffffffffffffffffffffffffffff1681565b600080600360009054906101000a900473ffffffffffffffffffffffffffffffffffffffff1673ffffffffffffffffffffffffffffffffffffffff1663c24ccbab6040518163ffffffff1660e01b815260040160206040518083038186803b1580156104ed57600080fd5b505afa158015610501573d6000803e3d6000fd5b505050506040513d601f19601f820116820180604052508101906105259190610b5e565b905060008173ffffffffffffffffffffffffffffffffffffffff1663d4262fa8876040518263ffffffff1660e01b81526004016105629190610cf6565b602060405180830381600087803b15801561057c57600080fd5b505af1158015610590573d6000803e3d6000fd5b505050506040513d601f19601f820116820180604052508101906105b49190610c00565b9050836001600083815260200190815260200160002060008773ffffffffffffffffffffffffffffffffffffffff1673ffffffffffffffffffffffffffffffffffffffff1681526020019081526020016000206000820151816000015560208201518160010160006101000a81548160ff02191690831515021790555060408201518160010160016101000a81548173ffffffffffffffffffffffffffffffffffffffff021916908373ffffffffffffffffffffffffffffffffffffffff16021790555060608201518160010160156101000a81548167ffffffffffffffff021916908367ffffffffffffffff16021790555060808201518160020160006101000a81548167ffffffffffffffff021916908367ffffffffffffffff16021790555060a08201518160020160086101000a81548160ff02191690831515021790555060c0820151816003015560e08201518160040160006101000a81548160ff02191690836001811115610751577f4e487b7100000000000000000000000000000000000000000000000000000000600052602160045260246000fd5b02179055509050507f80b99ed2777f0af14409c587e152b63c994cec0e6a65c825a72bc56700c0c0096107826103db565b82878760600151886080015160405161079f959493929190610d11565b60405180910390a180925050509392505050565b60006107bd6107f1565b905090565b6000808273ffffffffffffffffffffffffffffffffffffffff163b119050919050565b6000819050919050565b565b60006107fb6108cc565b905090565b3660008037600080366000845af43d6000803e8060008114610821573d6000f35b3d6000fd5b61082f81610923565b8073ffffffffffffffffffffffffffffffffffffffff167fbc7cd75a20ee27fd9adebab32041f755214dbc6bffa90cc0225b39da2e5c2d3b60405160405180910390a250565b60006108a37fb53127684a568b3173ae13b9f8a6016e243e63b6e8ee1178d6a717850b5d610360001b6107e5565b60000160009054906101000a900473ffffffffffffffffffffffffffffffffffffffff16905090565b60006108fa7f360894a13ba1a3210667c828492db98dca3e2076cc3735a920a3ca505d382bbc60001b6107e5565b60000160009054906101000a900473ffffffffffffffffffffffffffffffffffffffff16905090565b61092c816107c2565b61096b576040517f08c379a000000000000000000000000000000000000000000000000000000000815260040161096290610d84565b60405180910390fd5b806109987f360894a13ba1a3210667c828492db98dca3e2076cc3735a920a3ca505d382bbc60001b6107e5565b60000160006101000a81548173ffffffffffffffffffffffffffffffffffffffff021916908373ffffffffffffffffffffffffffffffffffffffff16021790555050565b6000813590506109eb8161103b565b92915050565b600081519050610a008161103b565b92915050565b600081359050610a1581611052565b92915050565b600081359050610a2a81611069565b92915050565b60006101008284031215610a4357600080fd5b610a4e610100610e58565b90506000610a5e84828501610af6565b6000830152506020610a7284828501610a06565b6020830152506040610a86848285016109dc565b6040830152506060610a9a84828501610b20565b6060830152506080610aae84828501610b20565b60808301525060a0610ac284828501610a06565b60a08301525060c0610ad684828501610af6565b60c08301525060e0610aea84828501610a1b565b60e08301525092915050565b600081359050610b0581611079565b92915050565b600081519050610b1a81611079565b92915050565b600081359050610b2f81611090565b92915050565b600060208284031215610b4757600080fd5b6000610b55848285016109dc565b91505092915050565b600060208284031215610b7057600080fd5b6000610b7e848285016109f1565b91505092915050565b60008060006101408486031215610b9d57600080fd5b6000610bab868287016109dc565b9350506020610bbc868287016109dc565b9250506040610bcd86828701610a30565b9150509250925092565b600060208284031215610be957600080fd5b6000610bf784828501610af6565b91505092915050565b600060208284031215610c1257600080fd5b6000610c2084828501610b0b565b91505092915050565b60008060408385031215610c3c57600080fd5b6000610c4a85828601610af6565b9250506020610c5b858286016109dc565b9150509250929050565b610c6e81610e8e565b82525050565b610c7d81610ea0565b82525050565b610c8c81610efd565b82525050565b6000610c9f601d83610e7d565b9150610caa82610faf565b602082019050919050565b6000610cc2602d83610e7d565b9150610ccd82610fd8565b604082019050919050565b610ce181610edf565b82525050565b610cf081610ee9565b82525050565b6000602082019050610d0b6000830184610c65565b92915050565b600060a082019050610d266000830188610c65565b610d336020830187610cd8565b610d406040830186610c65565b610d4d6060830185610ce7565b610d5a6080830184610ce7565b9695505050505050565b60006020820190508181036000830152610d7d81610c92565b9050919050565b60006020820190508181036000830152610d9d81610cb5565b9050919050565b6000602082019050610db96000830184610cd8565b92915050565b600061010082019050610dd5600083018b610cd8565b610de2602083018a610c74565b610def6040830189610c65565b610dfc6060830188610ce7565b610e096080830187610ce7565b610e1660a0830186610c74565b610e2360c0830185610cd8565b610e3060e0830184610c83565b9998505050505050505050565b6000602082019050610e526000830184610ce7565b92915050565b6000610e62610e73565b9050610e6e8282610f0f565b919050565b6000604051905090565b600082825260208201905092915050565b6000610e9982610ebf565b9050919050565b60008115159050919050565b6000819050610eba82611027565b919050565b600073ffffffffffffffffffffffffffffffffffffffff82169050919050565b6000819050919050565b600067ffffffffffffffff82169050919050565b6000610f0882610eac565b9050919050565b610f1882610f9e565b810181811067ffffffffffffffff82111715610f3757610f36610f6f565b5b80604052505050565b7f4e487b7100000000000000000000000000000000000000000000000000000000600052602160045260246000fd5b7f4e487b7100000000000000000000000000000000000000000000000000000000600052604160045260246000fd5b6000601f19601f8301169050919050565b7f4f6e6c79206f776e65722063616e206372656174652076657374696e67000000600082015250565b7f455243313936373a206e657720696d706c656d656e746174696f6e206973206e60008201527f6f74206120636f6e747261637400000000000000000000000000000000000000602082015250565b6002811061103857611037610f40565b5b50565b61104481610e8e565b811461104f57600080fd5b50565b61105b81610ea0565b811461106657600080fd5b50565b6002811061107657600080fd5b50565b61108281610edf565b811461108d57600080fd5b50565b61109981610ee9565b81146110a457600080fd5b5056fea2646970667358221220fcb7006b6991e8b4d8a245d929a9d0832d39939ac1210809b51fed0737cc9b0d64736f6c63430008020033a264697066735822122027e140242c2726fdd78a871b1840fb4ab1fa6d3306392476e084eb8e6a04a30c64736f6c63430008020033",
  "linkReferences": {},
  "deployedLinkReferences": {}
}