{
  "_format": "hh-sol-artifact-1",
  "contractName": "Vesting",
  "sourceName": "contracts/modules/linearVesting.sol",
  "abi": [
    {
      "anonymous": false,
      "inputs": [
        {
          "indexed": true,
          "internalType": "address",
          "name": "cancelledBy",
          "type": "address"
        },
        {
          "indexed": true,
          "internalType": "uint256",
          "name": "tokenId",
          "type": "uint256"
        },
        {
          "indexed": true,
          "internalType": "address",
          "name": "asset",
          "type": "address"
        }
      ],
      "name": "Cancelled",
      "type": "event"
    },
    {
      "anonymous": false,
      "inputs": [
        {
          "indexed": true,
          "internalType": "address",
          "name": "claimer",
          "type": "address"
        },
        {
          "indexed": true,
          "internalType": "address",
          "name": "dao",
          "type": "address"
        },
        {
          "indexed": false,
          "internalType": "uint256",
          "name": "amount",
          "type": "uint256"
        },
        {
          "indexed": false,
          "internalType": "address",
          "name": "asset",
          "type": "address"
        }
      ],
      "name": "Claim",
      "type": "event"
    },
    {
      "anonymous": false,
      "inputs": [
        {
          "indexed": true,
          "internalType": "address",
          "name": "contributor",
          "type": "address"
        },
        {
          "indexed": true,
          "internalType": "address",
          "name": "dao",
          "type": "address"
        },
        {
          "indexed": true,
          "internalType": "uint256",
          "name": "tokenId",
          "type": "uint256"
        },
        {
          "indexed": false,
          "internalType": "uint256",
          "name": "amount",
          "type": "uint256"
        },
        {
          "indexed": false,
          "internalType": "address",
          "name": "asset",
          "type": "address"
        },
        {
          "indexed": false,
          "internalType": "uint256",
          "name": "scheduleNumber",
          "type": "uint256"
        }
      ],
      "name": "NewVestingCreated",
      "type": "event"
    },
    {
      "anonymous": false,
      "inputs": [
        {
          "indexed": true,
          "internalType": "address",
          "name": "previousOwner",
          "type": "address"
        },
        {
          "indexed": true,
          "internalType": "address",
          "name": "newOwner",
          "type": "address"
        }
      ],
      "name": "OwnershipTransferred",
      "type": "event"
    },
    {
      "inputs": [
        {
          "internalType": "uint256",
          "name": "tokenId",
          "type": "uint256"
        }
      ],
      "name": "beneificary",
      "outputs": [
        {
          "internalType": "address",
          "name": "",
          "type": "address"
        }
      ],
      "stateMutability": "view",
      "type": "function"
    },
    {
      "inputs": [
        {
          "internalType": "uint256",
          "name": "amount",
          "type": "uint256"
        },
        {
          "internalType": "uint256",
          "name": "currentTime",
          "type": "uint256"
        },
        {
          "internalType": "uint256",
          "name": "startTime",
          "type": "uint256"
        },
        {
          "internalType": "uint256",
          "name": "endTime",
          "type": "uint256"
        }
      ],
      "name": "calcDistribution",
      "outputs": [
        {
          "internalType": "uint256",
          "name": "",
          "type": "uint256"
        }
      ],
      "stateMutability": "pure",
      "type": "function"
    },
    {
      "inputs": [
        {
          "internalType": "uint256",
          "name": "tokenId",
          "type": "uint256"
        },
        {
          "internalType": "uint256",
          "name": "scheduleNumber",
          "type": "uint256"
        }
      ],
      "name": "claim",
      "outputs": [],
      "stateMutability": "nonpayable",
      "type": "function"
    },
    {
      "inputs": [
        {
          "internalType": "address",
          "name": "_registry",
          "type": "address"
        },
        {
          "internalType": "address",
          "name": "_nft",
          "type": "address"
        },
        {
          "internalType": "address",
          "name": "dao",
          "type": "address"
        }
      ],
      "name": "init",
      "outputs": [],
      "stateMutability": "nonpayable",
      "type": "function"
    },
    {
      "inputs": [
        {
          "internalType": "address",
          "name": "",
          "type": "address"
        }
      ],
      "name": "locked",
      "outputs": [
        {
          "internalType": "uint256",
          "name": "",
          "type": "uint256"
        }
      ],
      "stateMutability": "view",
      "type": "function"
    },
    {
      "inputs": [],
      "name": "nft",
      "outputs": [
        {
          "internalType": "address",
          "name": "",
          "type": "address"
        }
      ],
      "stateMutability": "view",
      "type": "function"
    },
    {
      "inputs": [
        {
          "internalType": "uint256",
          "name": "",
          "type": "uint256"
        }
      ],
      "name": "numberOfSchedules",
      "outputs": [
        {
          "internalType": "uint256",
          "name": "",
          "type": "uint256"
        }
      ],
      "stateMutability": "view",
      "type": "function"
    },
    {
      "inputs": [],
      "name": "owner",
      "outputs": [
        {
          "internalType": "address",
          "name": "",
          "type": "address"
        }
      ],
      "stateMutability": "view",
      "type": "function"
    },
    {
      "inputs": [],
      "name": "registry",
      "outputs": [
        {
          "internalType": "address",
          "name": "",
          "type": "address"
        }
      ],
      "stateMutability": "view",
      "type": "function"
    },
    {
      "inputs": [],
      "name": "renounceOwnership",
      "outputs": [],
      "stateMutability": "nonpayable",
      "type": "function"
    },
    {
      "inputs": [
        {
          "internalType": "uint256",
          "name": "tokenId",
          "type": "uint256"
        },
        {
          "internalType": "uint256",
          "name": "scheduleId",
          "type": "uint256"
        }
      ],
      "name": "rug",
      "outputs": [],
      "stateMutability": "nonpayable",
      "type": "function"
    },
    {
      "inputs": [
        {
          "internalType": "uint256",
          "name": "",
          "type": "uint256"
        },
        {
          "internalType": "uint256",
          "name": "",
          "type": "uint256"
        }
      ],
      "name": "schedules",
      "outputs": [
        {
          "internalType": "uint256",
          "name": "totalAmount",
          "type": "uint256"
        },
        {
          "internalType": "uint256",
          "name": "claimedAmount",
          "type": "uint256"
        },
        {
          "internalType": "uint256",
          "name": "startTime",
          "type": "uint256"
        },
        {
          "internalType": "uint256",
          "name": "cliffTime",
          "type": "uint256"
        },
        {
          "internalType": "uint256",
          "name": "endTime",
          "type": "uint256"
        },
        {
          "internalType": "bool",
          "name": "isFixed",
          "type": "bool"
        },
        {
          "internalType": "address",
          "name": "asset",
          "type": "address"
        }
      ],
      "stateMutability": "view",
      "type": "function"
    },
    {
      "inputs": [
        {
          "internalType": "address",
          "name": "newOwner",
          "type": "address"
        }
      ],
      "name": "transferOwnership",
      "outputs": [],
      "stateMutability": "nonpayable",
      "type": "function"
    },
    {
      "inputs": [
        {
          "internalType": "address",
          "name": "account",
          "type": "address"
        },
        {
          "internalType": "uint256",
          "name": "amount",
          "type": "uint256"
        },
        {
          "internalType": "address",
          "name": "asset",
          "type": "address"
        },
        {
          "internalType": "bool",
          "name": "isFixed",
          "type": "bool"
        },
        {
          "internalType": "uint256",
          "name": "cliffWeeks",
          "type": "uint256"
        },
        {
          "internalType": "uint256",
          "name": "vestingWeeks",
          "type": "uint256"
        },
        {
          "internalType": "uint256",
          "name": "startTime",
          "type": "uint256"
        }
      ],
      "name": "vest",
      "outputs": [],
      "stateMutability": "nonpayable",
      "type": "function"
    },
    {
      "inputs": [
        {
          "internalType": "uint256",
          "name": "amount",
          "type": "uint256"
        },
        {
          "internalType": "address",
          "name": "asset",
          "type": "address"
        }
      ],
      "name": "withdraw",
      "outputs": [],
      "stateMutability": "nonpayable",
      "type": "function"
    }
  ],
  "bytecode": "0x60806040523480156200001157600080fd5b5062000032620000266200003860201b60201c565b6200004060201b60201c565b62000104565b600033905090565b60008060009054906101000a900473ffffffffffffffffffffffffffffffffffffffff169050816000806101000a81548173ffffffffffffffffffffffffffffffffffffffff021916908373ffffffffffffffffffffffffffffffffffffffff1602179055508173ffffffffffffffffffffffffffffffffffffffff168173ffffffffffffffffffffffffffffffffffffffff167f8be0079c531659141344cd1fd0a4f28419497f9722a3daafe3b4186f6b6457e060405160405180910390a35050565b6135fd80620001146000396000f3fe608060405234801561001057600080fd5b50600436106100f45760003560e01c8063715018a611610097578063c349026311610066578063c349026314610277578063cbf9fe5f14610293578063d0ca585d146102c3578063f2fde38b146102df576100f4565b8063715018a6146102015780637b1039991461020b5780638da5cb5b146102295780639c4e64e014610247576100f4565b80631e66cca7116100d35780631e66cca71461014d578063215054f01461017d5780632839dba3146101ad57806347ccca02146101e3576100f4565b8062f714ce146100f95780630d53588314610115578063184b955914610131575b600080fd5b610113600480360381019061010e9190612c24565b6102fb565b005b61012f600480360381019061012a9190612b0b565b61074d565b005b61014b60048036038101906101469190612abc565b611020565b005b61016760048036038101906101629190612bd2565b6112c9565b6040516101749190612ed0565b60405180910390f35b61019760048036038101906101929190612bd2565b61145f565b6040516101a49190613094565b60405180910390f35b6101c760048036038101906101c29190612c60565b611477565b6040516101da979695949392919061310f565b60405180910390f35b6101eb6114f3565b6040516101f89190612ed0565b60405180910390f35b610209611519565b005b6102136115a1565b6040516102209190612ed0565b60405180910390f35b6102316115c7565b60405161023e9190612ed0565b60405180910390f35b610261600480360381019061025c9190612c9c565b6115f0565b60405161026e9190613094565b60405180910390f35b610291600480360381019061028c9190612c60565b6117c7565b005b6102ad60048036038101906102a89190612a6a565b612037565b6040516102ba9190613094565b60405180910390f35b6102dd60048036038101906102d89190612c60565b61204f565b005b6102f960048036038101906102f49190612a6a565b6127f1565b005b6103036128e9565b73ffffffffffffffffffffffffffffffffffffffff166103216115c7565b73ffffffffffffffffffffffffffffffffffffffff1614610377576040517f08c379a000000000000000000000000000000000000000000000000000000000815260040161036e90613014565b60405180910390fd5b6103a37f79787cb16b0b94ba5535e17119316a2fe508a250c96ac46e3401e94165e8221b60001b6128f1565b6103cf7f8bc1779df20da70e4d4e7443e3fc77cf428d5232b1cef72471809a3fe6154add60001b6128f1565b6103fb7feccf154160a1272264b9c897c3522b821641b989fdbb13d8c0ca45b43acc8dca60001b6128f1565b600081905061042c7f03203dcd4bbbb5b2a382a8baf1535159dc777dba9a21d7c0db4e5ad85971dcf460001b6128f1565b6104587fb2a19a606a7c706bebc53bed92bb08aa208f85570a021d72f25015e82df3f95d60001b6128f1565b6104847f45fb64b5cb0ca4179eafaed01aa38023563554eecb084824c8389143252bfdf660001b6128f1565b82600560008473ffffffffffffffffffffffffffffffffffffffff1673ffffffffffffffffffffffffffffffffffffffff168152602001908152602001600020548273ffffffffffffffffffffffffffffffffffffffff166370a08231306040518263ffffffff1660e01b81526004016104fe9190612ed0565b60206040518083038186803b15801561051657600080fd5b505afa15801561052a573d6000803e3d6000fd5b505050506040513d601f19601f8201168201806040525081019061054e9190612bfb565b6105589190613270565b1015610599576040517f08c379a000000000000000000000000000000000000000000000000000000000815260040161059090612f14565b60405180910390fd5b6105c57fa3733b9875021fb2e80ad7e0721b39b422aef74ec9e428877c6e3bc54ce1dd6760001b6128f1565b6105f17fc9b87c91412377f9981b67955ef55cc1ef90c4d0f7188bd6aaa2a6de2b5db8ba60001b6128f1565b61061d7fcbbefae00903939bbdeb2fa3df1332046d82ccfa1feafb86f8cdb0b1982928ab60001b6128f1565b6106497f2ce669e6d4978e7fd61f6f025a069e3bc4ad143d3359f8bdea78ce77b50bfc8c60001b6128f1565b8073ffffffffffffffffffffffffffffffffffffffff1663a9059cbb61066d6115c7565b856040518363ffffffff1660e01b815260040161068b929190612eeb565b602060405180830381600087803b1580156106a557600080fd5b505af11580156106b9573d6000803e3d6000fd5b505050506040513d601f19601f820116820180604052508101906106dd9190612ba9565b61071c576040517f08c379a000000000000000000000000000000000000000000000000000000000815260040161071390612f54565b60405180910390fd5b6107487fb006ccfb40389f5de408f0879b7d3e77a4c5449986883a92c93d66c9a3cc72a860001b6128f1565b505050565b6107556128e9565b73ffffffffffffffffffffffffffffffffffffffff166107736115c7565b73ffffffffffffffffffffffffffffffffffffffff16146107c9576040517f08c379a00000000000000000000000000000000000000000000000000000000081526004016107c090613014565b60405180910390fd5b6107f57f47b8ac7786e0a1f949e9b215d303eaedf76318137e32a8d273ec78e4901d737360001b6128f1565b6108217fb54c43c6aa5923bde8567a0d237788763439005914f1d244dea9a04cf46a6db960001b6128f1565b61084d7ff2e91390c5b4dfaf17c21c45e077a217faf0f8c4979feebad50ff682e189a13160001b6128f1565b6108797f6994b4d2fe07f0eb36c99364cb3e7f127f105c475a44d1feb32395ab72495b4d60001b6128f1565b6000821180156108895750828210155b80156108955750600086115b6108d4576040517f08c379a00000000000000000000000000000000000000000000000000000000081526004016108cb90612f74565b60405180910390fd5b6109007f3c68d2680ab73caaef1b02be72b337c1058351a099b2ed86c7d4705a8098e51560001b6128f1565b61092c7f23ad5eb85fc7fb9eda733638f4d77f433fc13e87304c3936179ea46dfb3154ef60001b6128f1565b6109587f0f48c1024807cddf601412edbadeef0e63dcec967fa6ac632b3d20c1785fda5c60001b6128f1565b6000600560008773ffffffffffffffffffffffffffffffffffffffff1673ffffffffffffffffffffffffffffffffffffffff1681526020019081526020016000205490506109c87f59e2b2a30afa875fb953e82ba03e99f4c699f01a8a7022c7ea2d7977d127528b60001b6128f1565b6109f47fb4d5f285b31bfed442c7dc8c1ed8fac8319f5156131254b2f30375989b49354d60001b6128f1565b610a207f0d581e5c216b12eae30d10a05a4d41aeabb61f234dceecaa2ecbe1232c6d49ee60001b6128f1565b8681610a2c919061318f565b8673ffffffffffffffffffffffffffffffffffffffff166370a08231306040518263ffffffff1660e01b8152600401610a659190612ed0565b60206040518083038186803b158015610a7d57600080fd5b505afa158015610a91573d6000803e3d6000fd5b505050506040513d601f19601f82011682018060405250810190610ab59190612bfb565b1015610af6576040517f08c379a0000000000000000000000000000000000000000000000000000000008152600401610aed90613054565b60405180910390fd5b610b227fcc580de792b0c189243bad53dffc094437526b311cbc58d1a2d6b99c2fd53fa960001b6128f1565b610b4e7f1ca45d371730795a3ae40155ebb1510aa991ce1557ab82d5b09d94bb146000f260001b6128f1565b610b7a7fc315ed343ebced5ba32caa0051cf87da3a253c30eff48f3abe03bd860b7f021060001b6128f1565b6000600260009054906101000a900473ffffffffffffffffffffffffffffffffffffffff1673ffffffffffffffffffffffffffffffffffffffff1663e9c2e14b8a6040518263ffffffff1660e01b8152600401610bd79190612ed0565b602060405180830381600087803b158015610bf157600080fd5b505af1158015610c05573d6000803e3d6000fd5b505050506040513d601f19601f82011682018060405250810190610c299190612bfb565b9050610c577f1361e1e72c7ad8e091a08fed939b73861591594896261a7b3e64544233f8927260001b6128f1565b610c837ff6774bcc221f1e682f6ed9ca1e3dae5f51884bd90149db2264be4feeae94fc9860001b6128f1565b600060046000838152602001908152602001600020549050610cc77fc0800581e86e7b4b165d231f6f4685508adeb7937ac3a4030d8d96171a45ce8060001b6128f1565b610cf37fed035af4fdb28f239b4898ae39e758d74f91572e5c8fffd2fbe2eb84467dec3660001b6128f1565b6040518060e001604052808a81526020016000815260200185815260200162093a8088610d209190613216565b86610d2b919061318f565b815260200162093a8087610d3f9190613216565b86610d4a919061318f565b815260200188151581526020018973ffffffffffffffffffffffffffffffffffffffff16815250600360008481526020019081526020016000206000838152602001908152602001600020600082015181600001556020820151816001015560408201518160020155606082015181600301556080820151816004015560a08201518160050160006101000a81548160ff02191690831515021790555060c08201518160050160016101000a81548173ffffffffffffffffffffffffffffffffffffffff021916908373ffffffffffffffffffffffffffffffffffffffff160217905550905050610e5d7ff5ec612fc8198ad449b8010806d56ed3946b245001ced07cd8bbde08d18bccb560001b6128f1565b610e897f32f54698914036ef72e8f1fb33feda547ffb69f376444c2742e7e9a7500feb0c60001b6128f1565b600181610e96919061318f565b6004600084815260200190815260200160002081905550610ed97fa1026add5fe21151554d7bc7cc61e62d076e9e9d1c8c8979315bc1ebc119a08460001b6128f1565b610f057f3547b6ee09b6384537feabaa7092cca6b11c6c1fbffa2661fd20fce44843265e60001b6128f1565b8883610f11919061318f565b600560008a73ffffffffffffffffffffffffffffffffffffffff1673ffffffffffffffffffffffffffffffffffffffff16815260200190815260200160002081905550610f807fae58c5dfcb12b1333cd52d11e74555165432f11fd87ddb1b4d22bc5d8c91842760001b6128f1565b610fac7f8cd972c0d8f8aaf5eda120a99818cfd2ab8604f930ec9e601c75f39a808a4f8e60001b6128f1565b813373ffffffffffffffffffffffffffffffffffffffff168b73ffffffffffffffffffffffffffffffffffffffff167d830bf2dea4b9224bf6775c6ee65e410883549259f16838fba253c6fd9a9d8c8c8660405161100c939291906130d8565b60405180910390a450505050505050505050565b600060159054906101000a900460ff1661104a57600060149054906101000a900460ff1615611053565b6110526128f4565b5b611092576040517f08c379a000000000000000000000000000000000000000000000000000000000815260040161108990612fd4565b60405180910390fd5b60008060159054906101000a900460ff1615905080156110e3576001600060156101000a81548160ff0219169083151502179055506001600060146101000a81548160ff0219169083151502179055505b61110f7f3c139fcb3dcda105b7d8b388d8381be7dc5b4d0f3edac86c883bff0f4c3889d660001b6128f1565b61113b7f111574b4e92784d8a5619f58f0fd405d7b65e1daecef5ed121e228d282c9cd7060001b6128f1565b6111677fe986e470916b44ce69c6fd17554635837d0a3807563fc3ffd06d211075e9818c60001b6128f1565b83600160006101000a81548173ffffffffffffffffffffffffffffffffffffffff021916908373ffffffffffffffffffffffffffffffffffffffff1602179055506111d47f796d85a11303da0254a6e8b51e7b1bdeb23fbafb7989c632fc5c31e25bf10baa60001b6128f1565b6112007f159f705aa3eceb620895af5b7c3de2d416c46770c2c58a11540cecb8747a8a9560001b6128f1565b82600260006101000a81548173ffffffffffffffffffffffffffffffffffffffff021916908373ffffffffffffffffffffffffffffffffffffffff16021790555061126d7fe2268092072f1223d6b1ce1aacccb8f05da1d79af5f5fbe051f956169c2e05b560001b6128f1565b6112997f9699daa079ac8e3162f824f10dab1f0e83cc6cda2a78497031aa550f2446a3bd60001b6128f1565b6112a2826127f1565b80156112c35760008060156101000a81548160ff0219169083151502179055505b50505050565b60006112f77f366e4bbd0ab2aa983a3944cfc5ef5cb61d04544a2f7e45db8255dc588721c5a960001b6128f1565b6113237f465c74ba428781b137d55c8c49e1ded49eb17f267d21e10561e71ac98a74ce0c60001b6128f1565b61134f7f7fc6e24a5c3bcbec0e4f6cac41bfbaab8ef5d90b84447edec2666b416f6f26bd60001b6128f1565b6000600260009054906101000a900473ffffffffffffffffffffffffffffffffffffffff1673ffffffffffffffffffffffffffffffffffffffff16636352211e846040518263ffffffff1660e01b81526004016113ac9190613094565b60206040518083038186803b1580156113c457600080fd5b505afa1580156113d8573d6000803e3d6000fd5b505050506040513d601f19601f820116820180604052508101906113fc9190612a93565b905061142a7f415075b40fac5d5998735a5ff0872d1fb30bdccd126e48c8be6b6ce7651f6efb60001b6128f1565b6114567f9d16613eb222fd473bfe38c57a86621dfb2ecd91ac607caecc2cc01ea1a2b12560001b6128f1565b80915050919050565b60046020528060005260406000206000915090505481565b6003602052816000526040600020602052806000526040600020600091509150508060000154908060010154908060020154908060030154908060040154908060050160009054906101000a900460ff16908060050160019054906101000a900473ffffffffffffffffffffffffffffffffffffffff16905087565b600260009054906101000a900473ffffffffffffffffffffffffffffffffffffffff1681565b6115216128e9565b73ffffffffffffffffffffffffffffffffffffffff1661153f6115c7565b73ffffffffffffffffffffffffffffffffffffffff1614611595576040517f08c379a000000000000000000000000000000000000000000000000000000000815260040161158c90613014565b60405180910390fd5b61159f6000612905565b565b600160009054906101000a900473ffffffffffffffffffffffffffffffffffffffff1681565b60008060009054906101000a900473ffffffffffffffffffffffffffffffffffffffff16905090565b600061161e7fd03aa2e37714e1aee171bfae0b2b5b37b594880e16b5aac51d09145b785340f860001b6128f1565b61164a7f4040c8787f26d34c93060f734d1a08d4422f908fdf162911bf3607f468457a3960001b6128f1565b6116767fdacda3471b0a20655b94f6c2f516be5b8b0d8b7d58eca66a9953aa89b717ce2d60001b6128f1565b8284101561170b576116aa7f8c6675a03d3e998a15ce6c67a0520615e2bdc46dbf9a340a0a9f8829624c5c7960001b6128f1565b6116d67ff853c1ba62c5d4b534b400a88fdf0daef24eb683e91297692f34b41a3961f0f960001b6128f1565b6117027fd1e9c1e63f74fba3c00c28aa3b8b4353b055d47b59d9a00ac2737d1d0c1bcd1860001b6128f1565b600090506117bf565b6117377fe7915266065667b8ff5e6034bb6194619aa0c5360e01de7e57ad4929bae2530c60001b6128f1565b6117637f960f734c1f0d5e0d832b5bdb6fe59af8dd5e940df32b3198c671ae92689234a460001b6128f1565b61178f7f277d0da34477ab9fb6f2100124817bcfabeba0b4ca1b390f37e1d46e531ad55560001b6128f1565b828261179b9190613270565b83856117a79190613270565b866117b29190613216565b6117bc91906131e5565b90505b949350505050565b6117f37f45809503dbca063543f30ab148d6bc391b014875de81c8ff860894d9ea5c6e8a60001b6128f1565b61181f7f3d009085543e52ccc146078b339a896f2275172bcb48ec142ad7728f2853d6eb60001b6128f1565b61184b7f0e6c0fdb20dcfe66f3e9cb96df97d3cea38d16f7dc0e673a668164531560aeb460001b6128f1565b6000600360008481526020019081526020016000206000838152602001908152602001600020905061189f7f87e268737063f19305d13ee61a0b1b110da3e79e9d6ab85975b47d7722f901a460001b6128f1565b6118cb7f07fdb12d8bfc0f73b31a9e0ff283b8a116a7219dd32b52592142a8bb0acee67560001b6128f1565b6118f67eaddb908d9f4d746a825d99d6da409766b0cba47360e769346ad9273a936f5b60001b6128f1565b428160030154111561193d576040517f08c379a000000000000000000000000000000000000000000000000000000000815260040161193490612fb4565b60405180910390fd5b6119697f4e95b630cdcdd08e99d1e60e6f1e63c834373c6bb7cb36992d6ed52b0aa3c86f60001b6128f1565b6119957f7c61cdd0c8d31eeecbc4d1ebd598ae2298a594a37d88c3ef1ed3782a655b7df460001b6128f1565b6119c17f5956c04f51be406a05988766151483d25bee7dc8f8235f423c5bffb0e57739fd60001b6128f1565b6119ed7f29d85253f2adf3e51dbb12e5905e79e091b6476283bc02f1a74c1c21ba8cae6160001b6128f1565b6000816000015411611a34576040517f08c379a0000000000000000000000000000000000000000000000000000000008152600401611a2b90613074565b60405180910390fd5b611a607fc7011d0bc8e02358cddeebae313024bc3da9b99772d48c27d0cb4708bae376df60001b6128f1565b611a8c7f2108dca018a3d4576b19740e6003ee6d02ffde15a490b8cafab1a4c41572496860001b6128f1565b611ab87f0e1de07cfed9cab37eaa0edc5a538d37b801637811a0e7543d1e306bdb3cf87060001b6128f1565b6000611ad2826000015442846002015485600401546115f0565b9050611b007f49ec252a25718ec38346ebd2c1726b32c8319833d515a764501669ae0b01be1a60001b6128f1565b611b2c7f6b215ba25cdfaae46c06a7678f51dc323c328480645f444499703b893f493af260001b6128f1565b81600001548111611b3d5780611b43565b81600001545b9050611b717f0d6ae4501822015f5af2f070709c52efaf81360cc3765adf9593ae60b179541860001b6128f1565b611b9d7f522ed96b3ac0dc6349905285cd6e5a899a7b02a2a8adcaa7f003d11f73f5c8cc60001b6128f1565b6000826001015482611baf9190613270565b9050611bdd7fcd69b81b6638ef6649f4f26ab476dd6059ca8339efbc887c3283a3ff71462f9160001b6128f1565b611c097fc465c7844ea4d4feb1ae6866c285d5073de7e9dc04e61109a5f5555c1d2dfc6b60001b6128f1565b818360010181905550611c3e7ff653c369e3ca55297bc3451c364d1c24304bee454d1768552f103009a8a606e760001b6128f1565b611c6a7f100d667c8d82411e08d8aaf89902ff9a02fb1b9d349f986286ec6e6a6b5538da60001b6128f1565b80600560008560050160019054906101000a900473ffffffffffffffffffffffffffffffffffffffff1673ffffffffffffffffffffffffffffffffffffffff1673ffffffffffffffffffffffffffffffffffffffff16815260200190815260200160002054611cd99190613270565b600560008560050160019054906101000a900473ffffffffffffffffffffffffffffffffffffffff1673ffffffffffffffffffffffffffffffffffffffff1673ffffffffffffffffffffffffffffffffffffffff16815260200190815260200160002081905550611d6c7fabcf2c26b0dacdc4a159d19ebe59523cea47f91f53d7456b778918d7496a4d8f60001b6128f1565b611d987fb695a2a995cacfa9a051a5a2a6bc4fd8abb2ba98776937d58c669fc7705d690c60001b6128f1565b6000611da3866112c9565b9050611dd17f1e9c41c117c39a668b51c9cbc6630e51c42d778f644a6806f305583abb96ecd160001b6128f1565b611dfd7f70729afe34272b211622f2ebf089e1a0d9bebfbfbb4d6fb0704b7dcc5a81b48460001b6128f1565b611e297fcfe3437537957fcefad4a1fb2b291942d3164f70247b06a72a4798726d13819360001b6128f1565b8360050160019054906101000a900473ffffffffffffffffffffffffffffffffffffffff1673ffffffffffffffffffffffffffffffffffffffff1663a9059cbb82846040518363ffffffff1660e01b8152600401611e88929190612eeb565b602060405180830381600087803b158015611ea257600080fd5b505af1158015611eb6573d6000803e3d6000fd5b505050506040513d601f19601f82011682018060405250810190611eda9190612ba9565b611f19576040517f08c379a0000000000000000000000000000000000000000000000000000000008152600401611f1090612ff4565b60405180910390fd5b611f457f109045223e8a8a6dc875cea83559dc902aa0a567af22f126c55432cfaecef45560001b6128f1565b611f717f48ecd93c8ab7218a7184ba100835109720ae95fed194db0ed9eb05bad193a78260001b6128f1565b611f9d7fdd4165486207462d7fd5cea2a35d6e39cb08d90305b8269d8200fa0c5994702860001b6128f1565b611fa56115c7565b73ffffffffffffffffffffffffffffffffffffffff168173ffffffffffffffffffffffffffffffffffffffff167fccfcd9d30328a92e729ad2c1c39054d40a6db0f5121fd5b71b802417eb832c37848760050160019054906101000a900473ffffffffffffffffffffffffffffffffffffffff166040516120279291906130af565b60405180910390a3505050505050565b60056020528060005260406000206000915090505481565b6120576128e9565b73ffffffffffffffffffffffffffffffffffffffff166120756115c7565b73ffffffffffffffffffffffffffffffffffffffff16146120cb576040517f08c379a00000000000000000000000000000000000000000000000000000000081526004016120c290613014565b60405180910390fd5b6120f77f6f948702ce27c06bb663881b0be6a10e1b0058f8d1ec81bee0108bb8efdbc6aa60001b6128f1565b6121237fb8b0ed26cea0eeac51c94ff004731328c9293fddaf631574bec8fb194fa2fcea60001b6128f1565b61214f7f3eecbb6a55b83ef12ef24f2e4050734095f59eba61496deed2130fc20f878e1960001b6128f1565b600060036000848152602001908152602001600020600083815260200190815260200160002090506121a37faf96b05d05438d3d01bc73646f868de5b05ee58ea2de2816f69704235a4cd74760001b6128f1565b6121cf7fe83e9371b95e5fe0c3a555fcb1bd8aa8fd9ea1a7e0baa76de500e530ff43352a60001b6128f1565b6121fb7f17da7527331c02b9e244be090df3a98acb2db8ce0b9fdd338f81eb5245868eb360001b6128f1565b8060050160009054906101000a900460ff161561224d576040517f08c379a000000000000000000000000000000000000000000000000000000000815260040161224490612f94565b60405180910390fd5b6122797fe7e430739f87bc1374b7402563ca6a1e7d31c15410a2fd376f565c15de25c92160001b6128f1565b6122a57f60eb0fe1e77a53cf748d1af1f817a3222ba0087ca03a252fada8c67495e6d36d60001b6128f1565b6122d17f681592b3c31be19b4602d7b2c5d21fdfc42de4b94644a201982840589b8d8a3460001b6128f1565b6000816001015482600001546122e79190613270565b90506123157fe99273fe85f73ff2d0c43820610b10463941cf8375fabe3a736ba3d9dba1f20260001b6128f1565b6123417fb47330ee64a98ffbd92ccfb53a170ff99afd7991fd2d2a62801a9edcbf28a91e60001b6128f1565b61236d7fbb19075419cfa9b5bf22a65c68c3e1ae739528517fefd4fe99e921f390a9ce5460001b6128f1565b60008114156123b1576040517f08c379a00000000000000000000000000000000000000000000000000000000081526004016123a890613034565b60405180910390fd5b6123dd7f65f833722d5bf95fef42c8001fa093373d7a673e916491235d3473a67930712e60001b6128f1565b6124097f9d4bf83d30517e9b1b5189d4fd7e5188bfb68b0777ab74507c9f6404dcfeb2b660001b6128f1565b6124357fa4b1cdebc2f3ae04090ab93eafa6d6057458e6186574042cc49dacce0eca0baf60001b6128f1565b6000826000018190555061246b7ffebad0635b95c09f0198b97329b3e67823be585614fd721d68d782afe9ba5e7060001b6128f1565b6124977fbf992ce6b0d15a7358cb9081c4216706d9b7e5e4b951b82fc7940784af4095ad60001b6128f1565b80600560008460050160019054906101000a900473ffffffffffffffffffffffffffffffffffffffff1673ffffffffffffffffffffffffffffffffffffffff1673ffffffffffffffffffffffffffffffffffffffff168152602001908152602001600020546125069190613270565b600560008460050160019054906101000a900473ffffffffffffffffffffffffffffffffffffffff1673ffffffffffffffffffffffffffffffffffffffff1673ffffffffffffffffffffffffffffffffffffffff168152602001908152602001600020819055506125997f68d84edbff51ea04e510bbcbab2ec23684ded89b8501c0c8ef1da3280915862c60001b6128f1565b6125c57f4016a2b73114235fb758dd82641efb6eba2e218b609dea1301fe0edbc64cdae160001b6128f1565b6125f17f09b43e32b781b179db6ab47e44ce7475a59ee9e88383fa036fc1d5ec6693fc2b60001b6128f1565b8160050160019054906101000a900473ffffffffffffffffffffffffffffffffffffffff1673ffffffffffffffffffffffffffffffffffffffff1663a9059cbb6126396115c7565b836040518363ffffffff1660e01b8152600401612657929190612eeb565b602060405180830381600087803b15801561267157600080fd5b505af1158015612685573d6000803e3d6000fd5b505050506040513d601f19601f820116820180604052508101906126a99190612ba9565b6126e8576040517f08c379a00000000000000000000000000000000000000000000000000000000081526004016126df90612ff4565b60405180910390fd5b6127147f5ed0abeed8da21d8785ee29f79ae3326e6ae586aacef37d6ed52af9ff96555b360001b6128f1565b6127407fcaca03966aa04c573a1643be80078237650af5b601efbb35dd1df94e652d509460001b6128f1565b61276c7f44452909b93a292d9fd7dc4fb2e8da31073be08549edab0326901ade6938a61160001b6128f1565b8160050160019054906101000a900473ffffffffffffffffffffffffffffffffffffffff1673ffffffffffffffffffffffffffffffffffffffff16843373ffffffffffffffffffffffffffffffffffffffff167f0c8fde439b4e72d175ffeb3c5f3c15c6f70f473413f4c2d68f8971c0d629b60d60405160405180910390a450505050565b6127f96128e9565b73ffffffffffffffffffffffffffffffffffffffff166128176115c7565b73ffffffffffffffffffffffffffffffffffffffff161461286d576040517f08c379a000000000000000000000000000000000000000000000000000000000815260040161286490613014565b60405180910390fd5b600073ffffffffffffffffffffffffffffffffffffffff168173ffffffffffffffffffffffffffffffffffffffff1614156128dd576040517f08c379a00000000000000000000000000000000000000000000000000000000081526004016128d490612f34565b60405180910390fd5b6128e681612905565b50565b600033905090565b50565b60006128ff306129c9565b15905090565b60008060009054906101000a900473ffffffffffffffffffffffffffffffffffffffff169050816000806101000a81548173ffffffffffffffffffffffffffffffffffffffff021916908373ffffffffffffffffffffffffffffffffffffffff1602179055508173ffffffffffffffffffffffffffffffffffffffff168173ffffffffffffffffffffffffffffffffffffffff167f8be0079c531659141344cd1fd0a4f28419497f9722a3daafe3b4186f6b6457e060405160405180910390a35050565b6000808273ffffffffffffffffffffffffffffffffffffffff163b119050919050565b6000813590506129fb81613582565b92915050565b600081519050612a1081613582565b92915050565b600081359050612a2581613599565b92915050565b600081519050612a3a81613599565b92915050565b600081359050612a4f816135b0565b92915050565b600081519050612a64816135b0565b92915050565b600060208284031215612a7c57600080fd5b6000612a8a848285016129ec565b91505092915050565b600060208284031215612aa557600080fd5b6000612ab384828501612a01565b91505092915050565b600080600060608486031215612ad157600080fd5b6000612adf868287016129ec565b9350506020612af0868287016129ec565b9250506040612b01868287016129ec565b9150509250925092565b600080600080600080600060e0888a031215612b2657600080fd5b6000612b348a828b016129ec565b9750506020612b458a828b01612a40565b9650506040612b568a828b016129ec565b9550506060612b678a828b01612a16565b9450506080612b788a828b01612a40565b93505060a0612b898a828b01612a40565b92505060c0612b9a8a828b01612a40565b91505092959891949750929550565b600060208284031215612bbb57600080fd5b6000612bc984828501612a2b565b91505092915050565b600060208284031215612be457600080fd5b6000612bf284828501612a40565b91505092915050565b600060208284031215612c0d57600080fd5b6000612c1b84828501612a55565b91505092915050565b60008060408385031215612c3757600080fd5b6000612c4585828601612a40565b9250506020612c56858286016129ec565b9150509250929050565b60008060408385031215612c7357600080fd5b6000612c8185828601612a40565b9250506020612c9285828601612a40565b9150509250929050565b60008060008060808587031215612cb257600080fd5b6000612cc087828801612a40565b9450506020612cd187828801612a40565b9350506040612ce287828801612a40565b9250506060612cf387828801612a40565b91505092959194509250565b612d08816132a4565b82525050565b612d17816132b6565b82525050565b6000612d2a60178361317e565b9150612d358261334a565b602082019050919050565b6000612d4d60268361317e565b9150612d5882613373565b604082019050919050565b6000612d7060188361317e565b9150612d7b826133c2565b602082019050919050565b6000612d93601f8361317e565b9150612d9e826133eb565b602082019050919050565b6000612db660198361317e565b9150612dc182613414565b602082019050919050565b6000612dd9601a8361317e565b9150612de48261343d565b602082019050919050565b6000612dfc602e8361317e565b9150612e0782613466565b604082019050919050565b6000612e1f60188361317e565b9150612e2a826134b5565b602082019050919050565b6000612e4260208361317e565b9150612e4d826134de565b602082019050919050565b6000612e65601e8361317e565b9150612e7082613507565b602082019050919050565b6000612e88601a8361317e565b9150612e9382613530565b602082019050919050565b6000612eab60168361317e565b9150612eb682613559565b602082019050919050565b612eca816132e2565b82525050565b6000602082019050612ee56000830184612cff565b92915050565b6000604082019050612f006000830185612cff565b612f0d6020830184612ec1565b9392505050565b60006020820190508181036000830152612f2d81612d1d565b9050919050565b60006020820190508181036000830152612f4d81612d40565b9050919050565b60006020820190508181036000830152612f6d81612d63565b9050919050565b60006020820190508181036000830152612f8d81612d86565b9050919050565b60006020820190508181036000830152612fad81612da9565b9050919050565b60006020820190508181036000830152612fcd81612dcc565b9050919050565b60006020820190508181036000830152612fed81612def565b9050919050565b6000602082019050818103600083015261300d81612e12565b9050919050565b6000602082019050818103600083015261302d81612e35565b9050919050565b6000602082019050818103600083015261304d81612e58565b9050919050565b6000602082019050818103600083015261306d81612e7b565b9050919050565b6000602082019050818103600083015261308d81612e9e565b9050919050565b60006020820190506130a96000830184612ec1565b92915050565b60006040820190506130c46000830185612ec1565b6130d16020830184612cff565b9392505050565b60006060820190506130ed6000830186612ec1565b6130fa6020830185612cff565b6131076040830184612ec1565b949350505050565b600060e082019050613124600083018a612ec1565b6131316020830189612ec1565b61313e6040830188612ec1565b61314b6060830187612ec1565b6131586080830186612ec1565b61316560a0830185612d0e565b61317260c0830184612cff565b98975050505050505050565b600082825260208201905092915050565b600061319a826132e2565b91506131a5836132e2565b9250827fffffffffffffffffffffffffffffffffffffffffffffffffffffffffffffffff038211156131da576131d96132ec565b5b828201905092915050565b60006131f0826132e2565b91506131fb836132e2565b92508261320b5761320a61331b565b5b828204905092915050565b6000613221826132e2565b915061322c836132e2565b9250817fffffffffffffffffffffffffffffffffffffffffffffffffffffffffffffffff0483118215151615613265576132646132ec565b5b828202905092915050565b600061327b826132e2565b9150613286836132e2565b925082821015613299576132986132ec565b5b828203905092915050565b60006132af826132c2565b9050919050565b60008115159050919050565b600073ffffffffffffffffffffffffffffffffffffffff82169050919050565b6000819050919050565b7f4e487b7100000000000000000000000000000000000000000000000000000000600052601160045260246000fd5b7f4e487b7100000000000000000000000000000000000000000000000000000000600052601260045260246000fd5b7f56657374696e673a2043616e2774207769746864726177000000000000000000600082015250565b7f4f776e61626c653a206e6577206f776e657220697320746865207a65726f206160008201527f6464726573730000000000000000000000000000000000000000000000000000602082015250565b7f56657374696e673a207769746864726177206661696c65640000000000000000600082015250565b7f56657374696e673a20696e76616c69642076657374696e6720706172616d7300600082015250565b7f56657374696e673a204163636f756e7420697320666978656400000000000000600082015250565b7f56657374696e673a20636c696666206e6f742072656163686564000000000000600082015250565b7f496e697469616c697a61626c653a20636f6e747261637420697320616c72656160008201527f647920696e697469616c697a6564000000000000000000000000000000000000602082015250565b7f56657374696e673a207472616e73666572206661696c65640000000000000000600082015250565b7f4f776e61626c653a2063616c6c6572206973206e6f7420746865206f776e6572600082015250565b7f56657374696e673a206e6f206f75747374616e64696e6720746f6b656e730000600082015250565b7f56657374696e673a204e6f7420656e6f75676820746f6b656e73000000000000600082015250565b7f56657374696e673a206e6f7420636c61696d61626c6500000000000000000000600082015250565b61358b816132a4565b811461359657600080fd5b50565b6135a2816132b6565b81146135ad57600080fd5b50565b6135b9816132e2565b81146135c457600080fd5b5056fea26469706673582212202a411eb21595f9872b4d1b57385bc051aaf13196bd414a195ec7a42756da5b9c64736f6c63430008020033",
  "linkReferences": {},
  "deployedLinkReferences": {}
}