{
  "_format": "hh-sol-artifact-1",
  "contractName": "AddressProvider",
  "sourceName": "contracts/configs/AddresProvider.sol",
  "abi": [
    {
      "anonymous": false,
      "inputs": [
        {
          "indexed": true,
          "internalType": "address",
          "name": "previousOwner",
          "type": "address"
        },
        {
          "indexed": true,
          "internalType": "address",
          "name": "newOwner",
          "type": "address"
        }
      ],
      "name": "OwnershipTransferred",
      "type": "event"
    },
    {
      "inputs": [],
      "name": "PARCEL_FACTORY",
      "outputs": [
        {
          "internalType": "bytes32",
          "name": "",
          "type": "bytes32"
        }
      ],
      "stateMutability": "view",
      "type": "function"
    },
    {
      "inputs": [],
      "name": "VESTING",
      "outputs": [
        {
          "internalType": "bytes32",
          "name": "",
          "type": "bytes32"
        }
      ],
      "stateMutability": "view",
      "type": "function"
    },
    {
      "inputs": [],
      "name": "VESTING_OWNERSHIP_NFT",
      "outputs": [
        {
          "internalType": "bytes32",
          "name": "",
          "type": "bytes32"
        }
      ],
      "stateMutability": "view",
      "type": "function"
    },
    {
      "inputs": [],
      "name": "getParcelFactory",
      "outputs": [
        {
          "internalType": "address",
          "name": "",
          "type": "address"
        }
      ],
      "stateMutability": "view",
      "type": "function"
    },
    {
      "inputs": [],
      "name": "getVesting",
      "outputs": [
        {
          "internalType": "address",
          "name": "",
          "type": "address"
        }
      ],
      "stateMutability": "view",
      "type": "function"
    },
    {
      "inputs": [],
      "name": "getVestingOwnershipNft",
      "outputs": [
        {
          "internalType": "address",
          "name": "",
          "type": "address"
        }
      ],
      "stateMutability": "view",
      "type": "function"
    },
    {
      "inputs": [],
      "name": "owner",
      "outputs": [
        {
          "internalType": "address",
          "name": "",
          "type": "address"
        }
      ],
      "stateMutability": "view",
      "type": "function"
    },
    {
      "inputs": [],
      "name": "renounceOwnership",
      "outputs": [],
      "stateMutability": "nonpayable",
      "type": "function"
    },
    {
      "inputs": [
        {
          "internalType": "address",
          "name": "factory",
          "type": "address"
        }
      ],
      "name": "setParcelFactory",
      "outputs": [],
      "stateMutability": "nonpayable",
      "type": "function"
    },
    {
      "inputs": [
        {
          "internalType": "address",
          "name": "vesting",
          "type": "address"
        }
      ],
      "name": "setVesting",
      "outputs": [],
      "stateMutability": "nonpayable",
      "type": "function"
    },
    {
      "inputs": [
        {
          "internalType": "address",
          "name": "ownershipnft",
          "type": "address"
        }
      ],
      "name": "setVestingOwnershipNft",
      "outputs": [],
      "stateMutability": "nonpayable",
      "type": "function"
    },
    {
      "inputs": [
        {
          "internalType": "address",
          "name": "newOwner",
          "type": "address"
        }
      ],
      "name": "transferOwnership",
      "outputs": [],
      "stateMutability": "nonpayable",
      "type": "function"
    }
  ],
  "bytecode": "0x608060405234801561001057600080fd5b5061002d61002261003260201b60201c565b61003a60201b60201c565b6100fe565b600033905090565b60008060009054906101000a900473ffffffffffffffffffffffffffffffffffffffff169050816000806101000a81548173ffffffffffffffffffffffffffffffffffffffff021916908373ffffffffffffffffffffffffffffffffffffffff1602179055508173ffffffffffffffffffffffffffffffffffffffff168173ffffffffffffffffffffffffffffffffffffffff167f8be0079c531659141344cd1fd0a4f28419497f9722a3daafe3b4186f6b6457e060405160405180910390a35050565b610ab08061010d6000396000f3fe608060405234801561001057600080fd5b50600436106100b45760003560e01c8063bcc4e4ab11610071578063bcc4e4ab14610155578063c24ccbab14610173578063c946245e14610191578063c9a5f24d146101af578063d0e97178146101cb578063f2fde38b146101e9576100b4565b8063156ca894146100b957806364e61f20146100d75780636f6ff3bc146100f3578063715018a61461010f5780638da5cb5b146101195780639ae00aea14610137575b600080fd5b6100c1610205565b6040516100ce9190610943565b60405180910390f35b6100f160048036038101906100ec919061089b565b610229565b005b61010d6004803603810190610108919061089b565b61031a565b005b61011761040b565b005b610121610493565b60405161012e9190610928565b60405180910390f35b61013f6104bc565b60405161014c9190610928565b60405180910390f35b61015d6104ec565b60405161016a9190610928565b60405180910390f35b61017b61051c565b6040516101889190610928565b60405180910390f35b61019961054c565b6040516101a69190610943565b60405180910390f35b6101c960048036038101906101c4919061089b565b610570565b005b6101d3610661565b6040516101e09190610943565b60405180910390f35b61020360048036038101906101fe919061089b565b610685565b005b7f56455354494e470000000000000000000000000000000000000000000000000081565b61023161077d565b73ffffffffffffffffffffffffffffffffffffffff1661024f610493565b73ffffffffffffffffffffffffffffffffffffffff16146102a5576040517f08c379a000000000000000000000000000000000000000000000000000000000815260040161029c9061097e565b60405180910390fd5b80600160007f50415243454c5f464143544f5259000000000000000000000000000000000000815260200190815260200160002060006101000a81548173ffffffffffffffffffffffffffffffffffffffff021916908373ffffffffffffffffffffffffffffffffffffffff16021790555050565b61032261077d565b73ffffffffffffffffffffffffffffffffffffffff16610340610493565b73ffffffffffffffffffffffffffffffffffffffff1614610396576040517f08c379a000000000000000000000000000000000000000000000000000000000815260040161038d9061097e565b60405180910390fd5b80600160007f56455354494e4700000000000000000000000000000000000000000000000000815260200190815260200160002060006101000a81548173ffffffffffffffffffffffffffffffffffffffff021916908373ffffffffffffffffffffffffffffffffffffffff16021790555050565b61041361077d565b73ffffffffffffffffffffffffffffffffffffffff16610431610493565b73ffffffffffffffffffffffffffffffffffffffff1614610487576040517f08c379a000000000000000000000000000000000000000000000000000000000815260040161047e9061097e565b60405180910390fd5b6104916000610785565b565b60008060009054906101000a900473ffffffffffffffffffffffffffffffffffffffff16905090565b60006104e77f56455354494e475f4f574e4552534849505f4e46540000000000000000000000610849565b905090565b60006105177f56455354494e4700000000000000000000000000000000000000000000000000610849565b905090565b60006105477f50415243454c5f464143544f5259000000000000000000000000000000000000610849565b905090565b7f56455354494e475f4f574e4552534849505f4e4654000000000000000000000081565b61057861077d565b73ffffffffffffffffffffffffffffffffffffffff16610596610493565b73ffffffffffffffffffffffffffffffffffffffff16146105ec576040517f08c379a00000000000000000000000000000000000000000000000000000000081526004016105e39061097e565b60405180910390fd5b80600160007f56455354494e475f4f574e4552534849505f4e46540000000000000000000000815260200190815260200160002060006101000a81548173ffffffffffffffffffffffffffffffffffffffff021916908373ffffffffffffffffffffffffffffffffffffffff16021790555050565b7f50415243454c5f464143544f525900000000000000000000000000000000000081565b61068d61077d565b73ffffffffffffffffffffffffffffffffffffffff166106ab610493565b73ffffffffffffffffffffffffffffffffffffffff1614610701576040517f08c379a00000000000000000000000000000000000000000000000000000000081526004016106f89061097e565b60405180910390fd5b600073ffffffffffffffffffffffffffffffffffffffff168173ffffffffffffffffffffffffffffffffffffffff161415610771576040517f08c379a00000000000000000000000000000000000000000000000000000000081526004016107689061095e565b60405180910390fd5b61077a81610785565b50565b600033905090565b60008060009054906101000a900473ffffffffffffffffffffffffffffffffffffffff169050816000806101000a81548173ffffffffffffffffffffffffffffffffffffffff021916908373ffffffffffffffffffffffffffffffffffffffff1602179055508173ffffffffffffffffffffffffffffffffffffffff168173ffffffffffffffffffffffffffffffffffffffff167f8be0079c531659141344cd1fd0a4f28419497f9722a3daafe3b4186f6b6457e060405160405180910390a35050565b60006001600083815260200190815260200160002060009054906101000a900473ffffffffffffffffffffffffffffffffffffffff169050919050565b60008135905061089581610a63565b92915050565b6000602082840312156108ad57600080fd5b60006108bb84828501610886565b91505092915050565b6108cd816109af565b82525050565b6108dc816109c1565b82525050565b60006108ef60268361099e565b91506108fa826109eb565b604082019050919050565b600061091260208361099e565b915061091d82610a3a565b602082019050919050565b600060208201905061093d60008301846108c4565b92915050565b600060208201905061095860008301846108d3565b92915050565b60006020820190508181036000830152610977816108e2565b9050919050565b6000602082019050818103600083015261099781610905565b9050919050565b600082825260208201905092915050565b60006109ba826109cb565b9050919050565b6000819050919050565b600073ffffffffffffffffffffffffffffffffffffffff82169050919050565b7f4f776e61626c653a206e6577206f776e657220697320746865207a65726f206160008201527f6464726573730000000000000000000000000000000000000000000000000000602082015250565b7f4f776e61626c653a2063616c6c6572206973206e6f7420746865206f776e6572600082015250565b610a6c816109af565b8114610a7757600080fd5b5056fea2646970667358221220a02dfa970612c31fd0de432ae40d05449d0f0ae57cd17565a9f1032f3314ccef64736f6c63430008020033",
  "linkReferences": {},
  "deployedLinkReferences": {}
}