{
  "_format": "hh-sol-artifact-1",
  "contractName": "Storage",
  "sourceName": "contracts/libraries/Storage.sol",
  "abi": [
    {
      "anonymous": false,
      "inputs": [
        {
          "indexed": true,
          "internalType": "address",
          "name": "token",
          "type": "address"
        },
        {
          "indexed": false,
          "internalType": "uint256",
          "name": "amount",
          "type": "uint256"
        }
      ],
      "name": "ERC20Released",
      "type": "event"
    },
    {
      "anonymous": false,
      "inputs": [
        {
          "indexed": false,
          "internalType": "uint256",
          "name": "amount",
          "type": "uint256"
        }
      ],
      "name": "EtherReleased",
      "type": "event"
    },
    {
      "anonymous": false,
      "inputs": [
        {
          "indexed": false,
          "internalType": "address",
          "name": "dao",
          "type": "address"
        },
        {
          "indexed": false,
          "internalType": "uint256",
          "name": "tokenId",
          "type": "uint256"
        },
        {
          "indexed": false,
          "internalType": "address",
          "name": "token",
          "type": "address"
        },
        {
          "indexed": false,
          "internalType": "uint64",
          "name": "start",
          "type": "uint64"
        },
        {
          "indexed": false,
          "internalType": "uint64",
          "name": "duration",
          "type": "uint64"
        }
      ],
      "name": "NewVestingScheduleCreated",
      "type": "event"
    },
    {
      "anonymous": false,
      "inputs": [],
      "name": "Revoked",
      "type": "event"
    },
    {
      "inputs": [
        {
          "internalType": "uint256",
          "name": "",
          "type": "uint256"
        },
        {
          "internalType": "address",
          "name": "",
          "type": "address"
        }
      ],
      "name": "VestingsList",
      "outputs": [
        {
          "internalType": "uint256",
          "name": "_released",
          "type": "uint256"
        },
        {
          "internalType": "bool",
          "name": "_revoked",
          "type": "bool"
        },
        {
          "internalType": "address",
          "name": "_beneficiary",
          "type": "address"
        },
        {
          "internalType": "uint64",
          "name": "_start",
          "type": "uint64"
        },
        {
          "internalType": "uint64",
          "name": "_duration",
          "type": "uint64"
        },
        {
          "internalType": "bool",
          "name": "_revocable",
          "type": "bool"
        },
        {
          "internalType": "uint256",
          "name": "_cliff",
          "type": "uint256"
        },
        {
          "internalType": "enum Storage.VestingType",
          "name": "vestingType",
          "type": "uint8"
        }
      ],
      "stateMutability": "view",
      "type": "function"
    },
    {
      "inputs": [
        {
          "internalType": "uint256",
          "name": "",
          "type": "uint256"
        }
      ],
      "name": "contributors",
      "outputs": [
        {
          "internalType": "address",
          "name": "",
          "type": "address"
        }
      ],
      "stateMutability": "view",
      "type": "function"
    },
    {
      "inputs": [],
      "name": "providerContract",
      "outputs": [
        {
          "internalType": "address",
          "name": "",
          "type": "address"
        }
      ],
      "stateMutability": "view",
      "type": "function"
    }
  ],
  "bytecode": "0x60806040526000600260006101000a81548173ffffffffffffffffffffffffffffffffffffffff021916908373ffffffffffffffffffffffffffffffffffffffff16021790555034801561005257600080fd5b5061048f806100626000396000f3fe608060405234801561001057600080fd5b50600436106100415760003560e01c8063279a1d19146100465780633cb5d1001461007d5780639b263eca146100ad575b600080fd5b610060600480360381019061005b9190610247565b6100cb565b6040516100749897969594939291906102e9565b60405180910390f35b6100976004803603810190610092919061021e565b61018f565b6040516100a491906102ce565b60405180910390f35b6100b56101ce565b6040516100c291906102ce565b60405180910390f35b6001602052816000526040600020602052806000526040600020600091509150508060000154908060010160009054906101000a900460ff16908060010160019054906101000a900473ffffffffffffffffffffffffffffffffffffffff16908060010160159054906101000a900467ffffffffffffffff16908060020160009054906101000a900467ffffffffffffffff16908060020160089054906101000a900460ff16908060030154908060040160009054906101000a900460ff16905088565b6000818154811061019f57600080fd5b906000526020600020016000915054906101000a900473ffffffffffffffffffffffffffffffffffffffff1681565b600360009054906101000a900473ffffffffffffffffffffffffffffffffffffffff1681565b6000813590506102038161042b565b92915050565b60008135905061021881610442565b92915050565b60006020828403121561023057600080fd5b600061023e84828501610209565b91505092915050565b6000806040838503121561025a57600080fd5b600061026885828601610209565b9250506020610279858286016101f4565b9150509250929050565b61028c81610367565b82525050565b61029b81610379565b82525050565b6102aa816103d6565b82525050565b6102b9816103b8565b82525050565b6102c8816103c2565b82525050565b60006020820190506102e36000830184610283565b92915050565b6000610100820190506102ff600083018b6102b0565b61030c602083018a610292565b6103196040830189610283565b61032660608301886102bf565b61033360808301876102bf565b61034060a0830186610292565b61034d60c08301856102b0565b61035a60e08301846102a1565b9998505050505050505050565b600061037282610398565b9050919050565b60008115159050919050565b600081905061039382610417565b919050565b600073ffffffffffffffffffffffffffffffffffffffff82169050919050565b6000819050919050565b600067ffffffffffffffff82169050919050565b60006103e182610385565b9050919050565b7f4e487b7100000000000000000000000000000000000000000000000000000000600052602160045260246000fd5b60028110610428576104276103e8565b5b50565b61043481610367565b811461043f57600080fd5b50565b61044b816103b8565b811461045657600080fd5b5056fea264697066735822122097176758e0056e7860bb333f877fa207b5590b45ef23d84bca3603f14011c9c564736f6c63430008020033",
  "linkReferences": {},
  "deployedLinkReferences": {}
}