{
  "_format": "hh-sol-artifact-1",
  "contractName": "ParcelFactory",
  "sourceName": "contracts/parcelFactory.sol",
  "abi": [
    {
      "inputs": [
        {
          "internalType": "address",
          "name": "_registry",
          "type": "address"
        }
      ],
      "stateMutability": "nonpayable",
      "type": "constructor"
    },
    {
      "anonymous": false,
      "inputs": [
        {
          "indexed": true,
          "internalType": "address",
          "name": "deployedBy",
          "type": "address"
        },
        {
          "indexed": true,
          "internalType": "bytes32",
          "name": "module",
          "type": "bytes32"
        },
        {
          "indexed": true,
          "internalType": "address",
          "name": "proxy",
          "type": "address"
        }
      ],
      "name": "NewModuleDeployed",
      "type": "event"
    },
    {
      "inputs": [
        {
          "internalType": "bytes32",
          "name": "module",
          "type": "bytes32"
        },
        {
          "internalType": "bytes",
          "name": "data",
          "type": "bytes"
        }
      ],
      "name": "build",
      "outputs": [
        {
          "internalType": "address",
          "name": "",
          "type": "address"
        }
      ],
      "stateMutability": "nonpayable",
      "type": "function"
    },
    {
      "inputs": [
        {
          "internalType": "bytes32",
          "name": "module",
          "type": "bytes32"
        },
        {
          "internalType": "bytes[]",
          "name": "data",
          "type": "bytes[]"
        }
      ],
      "name": "buildAndexecute",
      "outputs": [
        {
          "internalType": "address",
          "name": "",
          "type": "address"
        }
      ],
      "stateMutability": "nonpayable",
      "type": "function"
    },
    {
      "inputs": [],
      "name": "registry",
      "outputs": [
        {
          "internalType": "address",
          "name": "",
          "type": "address"
        }
      ],
      "stateMutability": "view",
      "type": "function"
    }
  ],
  "bytecode": "0x60806040523480156200001157600080fd5b50604051620016f1380380620016f1833981810160405281019062000037919062000134565b6200006b7ff312ccff508eb6edf8003de17b8ab66e66377f90446102dc42bf3d534137f6cc60001b6200011a60201b60201c565b6200009f7ff7f6cf23a51a8985cb4aad405b127aac5cc68ad41a8ba82a8db0075be86df4c160001b6200011a60201b60201c565b620000d37f5bf0fa0bc6eb3745f20a3c67e0116f24d93e0c4821c0de92cd51b742069c4d0560001b6200011a60201b60201c565b806000806101000a81548173ffffffffffffffffffffffffffffffffffffffff021916908373ffffffffffffffffffffffffffffffffffffffff16021790555050620001ae565b50565b6000815190506200012e8162000194565b92915050565b6000602082840312156200014757600080fd5b600062000157848285016200011d565b91505092915050565b60006200016d8262000174565b9050919050565b600073ffffffffffffffffffffffffffffffffffffffff82169050919050565b6200019f8162000160565b8114620001ab57600080fd5b50565b61153380620001be6000396000f3fe608060405234801561001057600080fd5b50600436106100415760003560e01c80632e4d44cb146100465780637b103999146100765780639caa714114610094575b600080fd5b610060600480360381019061005b919061102d565b6100c4565b60405161006d91906111b0565b60405180910390f35b61007e61053b565b60405161008b91906111b0565b60405180910390f35b6100ae60048036038101906100a99190610fd5565b61055f565b6040516100bb91906111b0565b60405180910390f35b60006100f27fae0fa6fd1371184dd0b4ae7be1885d613b015d05801a468132c8bd34e43ed9ff60001b610b0b565b61011e7f474b0745f5d9b30791075c9843ff1377ef2d67d8c115fe3395c36b5af8edbb1660001b610b0b565b61014a7f8ec76ffaf74333e9818c5dbd09d9f15ea4b48b5e7c35c37c64e822d132608f2c60001b610b0b565b60008060009054906101000a900473ffffffffffffffffffffffffffffffffffffffff1673ffffffffffffffffffffffffffffffffffffffff166322dbefbb866040518263ffffffff1660e01b81526004016101a691906111cb565b60206040518083038186803b1580156101be57600080fd5b505afa1580156101d2573d6000803e3d6000fd5b505050506040513d601f19601f820116820180604052508101906101f69190610fac565b90506102247f9b546837009b39deec86ad77c73f8636ce3158de2e599542f8acec6ce5dd0c1660001b610b0b565b6102507f96c14e06d70a84825b2638cd9c343efc8ec4545ec44cbec51578b4d771c2234f60001b610b0b565b61027c7fb4a32a8d49b55ba8abb4875233105bf8c4cd3bf8ae703d6c2791db3edf65efee60001b610b0b565b600073ffffffffffffffffffffffffffffffffffffffff168173ffffffffffffffffffffffffffffffffffffffff1614156102ec576040517f08c379a00000000000000000000000000000000000000000000000000000000081526004016102e390611248565b60405180910390fd5b6103187f4402392c91d718cefc0f4a8bfa708770d53c25714da06c23ae9e0f60c31674df60001b610b0b565b6103447f81c980614199345dfdc5463368fdb59e44b424596d4df5491fa797dcebecfce160001b610b0b565b6103707f051651e501d52bc9062da9f60ba9bf7fa25d4f5dd3e68c74970d9651b195896960001b610b0b565b600061037b82610b0e565b90506103a97ff6eee7c709e36f403be24223f33f0c636d4197a51c235bd047d42c6eb6775f3c60001b610b0b565b6103d57f22fe78f74d2705cddc41abca2c052e6db052f96ce082e3be756e72456dd6195f60001b610b0b565b6104238286868080601f016020809104026020016040519081016040528093929190818152602001838380828437600081840152601f19601f82011690508083019250505050505050610ceb565b506104507fcb8b6116d64bf087830c8aa2470029b88a158e17eb610cc78e3077bb2893ff5f60001b610b0b565b61047c7f2dead3255197f4fc40138f966cc060acd121a5679a10c721bbdcdc07b7130b3860001b610b0b565b8073ffffffffffffffffffffffffffffffffffffffff16863373ffffffffffffffffffffffffffffffffffffffff167fb3cf88248020eaca9b43e825164c413b1cbd218489216eaa31c9924aa3c1a44460405160405180910390a46105037f8c4e062c496c04503dea5bf04dcea7e3ba66792883298ebf0a707404d362c0bd60001b610b0b565b61052f7f925b1095cc1a4fed31928eeeb190e3447d5da08d6ea32f426b943e95aaf083b860001b610b0b565b80925050509392505050565b60008054906101000a900473ffffffffffffffffffffffffffffffffffffffff1681565b600061058d7f81d270696796edb278a98ff6d598ba0ffde09dcdb16a984d5af8eb3045ea7d5160001b610b0b565b6105b97f443b2e2b6b4fff5bfb7b062ced6cff302db82685c1bba83fc6d66f393a1f822260001b610b0b565b6105e57f87366a8964cefefd70f93560c286ed4251123ba8dd792f0b6223dceb56d06a2460001b610b0b565b60008060009054906101000a900473ffffffffffffffffffffffffffffffffffffffff1673ffffffffffffffffffffffffffffffffffffffff166322dbefbb866040518263ffffffff1660e01b815260040161064191906111cb565b60206040518083038186803b15801561065957600080fd5b505afa15801561066d573d6000803e3d6000fd5b505050506040513d601f19601f820116820180604052508101906106919190610fac565b90506106bf7fa1b590771d93c5619f839de578238e46f7e4aea5bcb19fba2186957e264a93e960001b610b0b565b6106eb7f3493e99e655ddb0cbaa7a1afb185c3de1cbd6339e71033ec66f7d10788d8a4c360001b610b0b565b6107177fe16e1609f0e73b00707269597e2dd13868f612cbe311cfdde53f461a48f9274460001b610b0b565b600073ffffffffffffffffffffffffffffffffffffffff168173ffffffffffffffffffffffffffffffffffffffff161415610787576040517f08c379a000000000000000000000000000000000000000000000000000000000815260040161077e90611248565b60405180910390fd5b6107b37fbf3f271009bda6d263fd9565e7ba679f4bafe1642bb269bf409a3ba6a13f5ac460001b610b0b565b6107df7fc7cf117a5a078fdf822e06468251e6f648e9940332337dc29d48c51003fcbbb960001b610b0b565b61080b7f6ea87679e4ddd0277080e924b8aec77d56011db4f4af1fda8d290c549e56d91560001b610b0b565b600061081682610b0e565b90506108447f4d5c16997f0ae5ee04fbc571cea0487ba812839141894f5e0446633111d4a2ba60001b610b0b565b6108707f6fa9a5401b02f4e7d2476ced6e75fc81e0ee5c07e4db0904b206d9b90d89ea5960001b610b0b565b60008585905090506108a47f1866c2f7ca9c3833d3e49db09bbdc0d2e15ad18dcf440efe71eea0aad2c08e2260001b610b0b565b6108d07f108389747e1da31394c991bf56d1aa713891c1273badd7083686cf66bf3be6fe60001b610b0b565b60005b818167ffffffffffffffff1610156109f2576109117f51c5dde5165b7deadd8453f77ee6e70dbefa1a53d1788a17ac8c41fd2ac9cf0460001b610b0b565b61093d7f38ee92e82189bdbc8e09eb2a8fa4b60443088ac6fbbb371bec17dc42b2eaa42a60001b610b0b565b6109de8488888467ffffffffffffffff16818110610984577f4e487b7100000000000000000000000000000000000000000000000000000000600052603260045260246000fd5b90506020028101906109969190611288565b8080601f016020809104026020016040519081016040528093929190818152602001838380828437600081840152601f19601f82011690508083019250505050505050610ceb565b5080806109ea90611394565b9150506108d3565b50610a1f7f9b6e0bbd0dd59b10d71665d28131aa571a2db3dec8f760820902d5ffd3499d7760001b610b0b565b610a4b7fedc9e01183cb6f37c5561ad3af3e25aec6c72bba23f1ab1a2b9e7ed07e60d14360001b610b0b565b8173ffffffffffffffffffffffffffffffffffffffff16873373ffffffffffffffffffffffffffffffffffffffff167fb3cf88248020eaca9b43e825164c413b1cbd218489216eaa31c9924aa3c1a44460405160405180910390a4610ad27ff3ded341a6f7e7aa5ae4bd5067867705ef59ee6082bba8d5fbc8e0653f6c64f060001b610b0b565b610afe7f1d0b19d46e978cd1863b41654ce136ae35a51dc6783c30176d699dde1079500660001b610b0b565b8193505050509392505050565b50565b6000610b3c7f4cfc317e157a3323d157cb89046265126df1fa1d71f35b573027a36a8114503160001b610d35565b610b687fae58a330aae51d364a4912d23b52496d7993edf5f650059af0a1d1851f0e554960001b610d35565b6040517f602d8060093d393df3363d3d373d3d3d363d730000000000000000000000000081528260601b60138201527f5af43d82803e903d91602b57fd5bf3000000000000000000000000000000000060278201526036816000f0915050610bf27fa2fb3cbc886bad583cc34ea84d10822ae32a24f93d7cd07b790ea4098f4769f160001b610d35565b610c1e7f923c382580397e3b4b00a04c53d32e528300d9b81cbf8b3192640e97f04e685160001b610d35565b610c4a7f0dada7060a9e5f617d2873b6dffebd22ccc508bc4621aef55a9c63bcca215de060001b610d35565b600073ffffffffffffffffffffffffffffffffffffffff168173ffffffffffffffffffffffffffffffffffffffff161415610cba576040517f08c379a0000000000000000000000000000000000000000000000000000000008152600401610cb190611228565b60405180910390fd5b610ce67fc4fed7e44c282d1bed6d8eee5bf11c72fc1f52f06e4c7e8b3e6ce82939ec083760001b610d35565b919050565b6060610d2d83836040518060400160405280601e81526020017f416464726573733a206c6f772d6c6576656c2063616c6c206661696c65640000815250610d38565b905092915050565b50565b6060610d478484600085610d50565b90509392505050565b606082471015610d95576040517f08c379a0000000000000000000000000000000000000000000000000000000008152600401610d8c90611208565b60405180910390fd5b610d9e85610e64565b610ddd576040517f08c379a0000000000000000000000000000000000000000000000000000000008152600401610dd490611268565b60405180910390fd5b6000808673ffffffffffffffffffffffffffffffffffffffff168587604051610e069190611199565b60006040518083038185875af1925050503d8060008114610e43576040519150601f19603f3d011682016040523d82523d6000602084013e610e48565b606091505b5091509150610e58828286610e87565b92505050949350505050565b6000808273ffffffffffffffffffffffffffffffffffffffff163b119050919050565b60608315610e9757829050610ee7565b600083511115610eaa5782518084602001fd5b816040517f08c379a0000000000000000000000000000000000000000000000000000000008152600401610ede91906111e6565b60405180910390fd5b9392505050565b600081519050610efd816114cf565b92915050565b60008083601f840112610f1557600080fd5b8235905067ffffffffffffffff811115610f2e57600080fd5b602083019150836020820283011115610f4657600080fd5b9250929050565b600081359050610f5c816114e6565b92915050565b60008083601f840112610f7457600080fd5b8235905067ffffffffffffffff811115610f8d57600080fd5b602083019150836001820283011115610fa557600080fd5b9250929050565b600060208284031215610fbe57600080fd5b6000610fcc84828501610eee565b91505092915050565b600080600060408486031215610fea57600080fd5b6000610ff886828701610f4d565b935050602084013567ffffffffffffffff81111561101557600080fd5b61102186828701610f03565b92509250509250925092565b60008060006040848603121561104257600080fd5b600061105086828701610f4d565b935050602084013567ffffffffffffffff81111561106d57600080fd5b61107986828701610f62565b92509250509250925092565b61108e81611311565b82525050565b61109d81611323565b82525050565b60006110ae826112df565b6110b881856112f5565b93506110c8818560208601611361565b80840191505092915050565b60006110df826112ea565b6110e98185611300565b93506110f9818560208601611361565b611102816113f4565b840191505092915050565b600061111a602683611300565b915061112582611405565b604082019050919050565b600061113d601683611300565b915061114882611454565b602082019050919050565b6000611160601783611300565b915061116b8261147d565b602082019050919050565b6000611183601d83611300565b915061118e826114a6565b602082019050919050565b60006111a582846110a3565b915081905092915050565b60006020820190506111c56000830184611085565b92915050565b60006020820190506111e06000830184611094565b92915050565b6000602082019050818103600083015261120081846110d4565b905092915050565b600060208201905081810360008301526112218161110d565b9050919050565b6000602082019050818103600083015261124181611130565b9050919050565b6000602082019050818103600083015261126181611153565b9050919050565b6000602082019050818103600083015261128181611176565b9050919050565b600080833560016020038436030381126112a157600080fd5b80840192508235915067ffffffffffffffff8211156112bf57600080fd5b6020830192506001820236038313156112d757600080fd5b509250929050565b600081519050919050565b600081519050919050565b600081905092915050565b600082825260208201905092915050565b600061131c8261132d565b9050919050565b6000819050919050565b600073ffffffffffffffffffffffffffffffffffffffff82169050919050565b600067ffffffffffffffff82169050919050565b60005b8381101561137f578082015181840152602081019050611364565b8381111561138e576000848401525b50505050565b600061139f8261134d565b915067ffffffffffffffff8214156113ba576113b96113c5565b5b600182019050919050565b7f4e487b7100000000000000000000000000000000000000000000000000000000600052601160045260246000fd5b6000601f19601f8301169050919050565b7f416464726573733a20696e73756666696369656e742062616c616e636520666f60008201527f722063616c6c0000000000000000000000000000000000000000000000000000602082015250565b7f455243313136373a20637265617465206661696c656400000000000000000000600082015250565b7f466163746f72793a20496e76616c6964206d6f64756c65000000000000000000600082015250565b7f416464726573733a2063616c6c20746f206e6f6e2d636f6e7472616374000000600082015250565b6114d881611311565b81146114e357600080fd5b50565b6114ef81611323565b81146114fa57600080fd5b5056fea264697066735822122054b14e1a11d6dcd3fd144d3c7c3ddf51a50c654e5513d459017a79cf80eba07064736f6c63430008020033",
  "linkReferences": {},
  "deployedLinkReferences": {}
}