{
  "_format": "hh-sol-artifact-1",
  "contractName": "VestingOwnership",
  "sourceName": "contracts/vesting/VestingOwnership.sol",
  "abi": [
    {
      "inputs": [
        {
          "internalType": "address",
          "name": "owner",
          "type": "address"
        }
      ],
      "stateMutability": "nonpayable",
      "type": "constructor"
    },
    {
      "anonymous": false,
      "inputs": [
        {
          "indexed": true,
          "internalType": "address",
          "name": "owner",
          "type": "address"
        },
        {
          "indexed": true,
          "internalType": "address",
          "name": "approved",
          "type": "address"
        },
        {
          "indexed": true,
          "internalType": "uint256",
          "name": "tokenId",
          "type": "uint256"
        }
      ],
      "name": "Approval",
      "type": "event"
    },
    {
      "anonymous": false,
      "inputs": [
        {
          "indexed": true,
          "internalType": "address",
          "name": "owner",
          "type": "address"
        },
        {
          "indexed": true,
          "internalType": "address",
          "name": "operator",
          "type": "address"
        },
        {
          "indexed": false,
          "internalType": "bool",
          "name": "approved",
          "type": "bool"
        }
      ],
      "name": "ApprovalForAll",
      "type": "event"
    },
    {
      "anonymous": false,
      "inputs": [
        {
          "indexed": true,
          "internalType": "address",
          "name": "previousOwner",
          "type": "address"
        },
        {
          "indexed": true,
          "internalType": "address",
          "name": "newOwner",
          "type": "address"
        }
      ],
      "name": "OwnershipTransferred",
      "type": "event"
    },
    {
      "anonymous": false,
      "inputs": [
        {
          "indexed": true,
          "internalType": "address",
          "name": "from",
          "type": "address"
        },
        {
          "indexed": true,
          "internalType": "address",
          "name": "to",
          "type": "address"
        },
        {
          "indexed": true,
          "internalType": "uint256",
          "name": "tokenId",
          "type": "uint256"
        }
      ],
      "name": "Transfer",
      "type": "event"
    },
    {
      "inputs": [
        {
          "internalType": "address",
          "name": "to",
          "type": "address"
        },
        {
          "internalType": "uint256",
          "name": "tokenId",
          "type": "uint256"
        }
      ],
      "name": "approve",
      "outputs": [],
      "stateMutability": "nonpayable",
      "type": "function"
    },
    {
      "inputs": [
        {
          "internalType": "address",
          "name": "owner",
          "type": "address"
        }
      ],
      "name": "balanceOf",
      "outputs": [
        {
          "internalType": "uint256",
          "name": "",
          "type": "uint256"
        }
      ],
      "stateMutability": "view",
      "type": "function"
    },
    {
      "inputs": [
        {
          "internalType": "uint256",
          "name": "tokenId",
          "type": "uint256"
        }
      ],
      "name": "getApproved",
      "outputs": [
        {
          "internalType": "address",
          "name": "",
          "type": "address"
        }
      ],
      "stateMutability": "view",
      "type": "function"
    },
    {
      "inputs": [
        {
          "internalType": "address",
          "name": "contributor",
          "type": "address"
        }
      ],
      "name": "getTokenId",
      "outputs": [
        {
          "internalType": "uint256",
          "name": "tokenId",
          "type": "uint256"
        }
      ],
      "stateMutability": "view",
      "type": "function"
    },
    {
      "inputs": [
        {
          "internalType": "address",
          "name": "owner",
          "type": "address"
        },
        {
          "internalType": "address",
          "name": "operator",
          "type": "address"
        }
      ],
      "name": "isApprovedForAll",
      "outputs": [
        {
          "internalType": "bool",
          "name": "",
          "type": "bool"
        }
      ],
      "stateMutability": "view",
      "type": "function"
    },
    {
      "inputs": [],
      "name": "name",
      "outputs": [
        {
          "internalType": "string",
          "name": "",
          "type": "string"
        }
      ],
      "stateMutability": "view",
      "type": "function"
    },
    {
      "inputs": [],
      "name": "owner",
      "outputs": [
        {
          "internalType": "address",
          "name": "",
          "type": "address"
        }
      ],
      "stateMutability": "view",
      "type": "function"
    },
    {
      "inputs": [
        {
          "internalType": "uint256",
          "name": "tokenId",
          "type": "uint256"
        }
      ],
      "name": "ownerOf",
      "outputs": [
        {
          "internalType": "address",
          "name": "",
          "type": "address"
        }
      ],
      "stateMutability": "view",
      "type": "function"
    },
    {
      "inputs": [],
      "name": "renounceOwnership",
      "outputs": [],
      "stateMutability": "nonpayable",
      "type": "function"
    },
    {
      "inputs": [
        {
          "internalType": "address",
          "name": "to",
          "type": "address"
        }
      ],
      "name": "safeMint",
      "outputs": [],
      "stateMutability": "nonpayable",
      "type": "function"
    },
    {
      "inputs": [
        {
          "internalType": "address",
          "name": "from",
          "type": "address"
        },
        {
          "internalType": "address",
          "name": "to",
          "type": "address"
        },
        {
          "internalType": "uint256",
          "name": "tokenId",
          "type": "uint256"
        }
      ],
      "name": "safeTransferFrom",
      "outputs": [],
      "stateMutability": "nonpayable",
      "type": "function"
    },
    {
      "inputs": [
        {
          "internalType": "address",
          "name": "from",
          "type": "address"
        },
        {
          "internalType": "address",
          "name": "to",
          "type": "address"
        },
        {
          "internalType": "uint256",
          "name": "tokenId",
          "type": "uint256"
        },
        {
          "internalType": "bytes",
          "name": "_data",
          "type": "bytes"
        }
      ],
      "name": "safeTransferFrom",
      "outputs": [],
      "stateMutability": "nonpayable",
      "type": "function"
    },
    {
      "inputs": [
        {
          "internalType": "address",
          "name": "operator",
          "type": "address"
        },
        {
          "internalType": "bool",
          "name": "approved",
          "type": "bool"
        }
      ],
      "name": "setApprovalForAll",
      "outputs": [],
      "stateMutability": "nonpayable",
      "type": "function"
    },
    {
      "inputs": [
        {
          "internalType": "bytes4",
          "name": "interfaceId",
          "type": "bytes4"
        }
      ],
      "name": "supportsInterface",
      "outputs": [
        {
          "internalType": "bool",
          "name": "",
          "type": "bool"
        }
      ],
      "stateMutability": "view",
      "type": "function"
    },
    {
      "inputs": [],
      "name": "symbol",
      "outputs": [
        {
          "internalType": "string",
          "name": "",
          "type": "string"
        }
      ],
      "stateMutability": "view",
      "type": "function"
    },
    {
      "inputs": [
        {
          "internalType": "uint256",
          "name": "index",
          "type": "uint256"
        }
      ],
      "name": "tokenByIndex",
      "outputs": [
        {
          "internalType": "uint256",
          "name": "",
          "type": "uint256"
        }
      ],
      "stateMutability": "view",
      "type": "function"
    },
    {
      "inputs": [
        {
          "internalType": "address",
          "name": "owner",
          "type": "address"
        },
        {
          "internalType": "uint256",
          "name": "index",
          "type": "uint256"
        }
      ],
      "name": "tokenOfOwnerByIndex",
      "outputs": [
        {
          "internalType": "uint256",
          "name": "",
          "type": "uint256"
        }
      ],
      "stateMutability": "view",
      "type": "function"
    },
    {
      "inputs": [
        {
          "internalType": "uint256",
          "name": "tokenId",
          "type": "uint256"
        }
      ],
      "name": "tokenURI",
      "outputs": [
        {
          "internalType": "string",
          "name": "",
          "type": "string"
        }
      ],
      "stateMutability": "view",
      "type": "function"
    },
    {
      "inputs": [],
      "name": "totalSupply",
      "outputs": [
        {
          "internalType": "uint256",
          "name": "",
          "type": "uint256"
        }
      ],
      "stateMutability": "view",
      "type": "function"
    },
    {
      "inputs": [
        {
          "internalType": "address",
          "name": "from",
          "type": "address"
        },
        {
          "internalType": "address",
          "name": "to",
          "type": "address"
        },
        {
          "internalType": "uint256",
          "name": "tokenId",
          "type": "uint256"
        }
      ],
      "name": "transferFrom",
      "outputs": [],
      "stateMutability": "nonpayable",
      "type": "function"
    },
    {
      "inputs": [
        {
          "internalType": "address",
          "name": "newOwner",
          "type": "address"
        }
      ],
      "name": "transferOwnership",
      "outputs": [],
      "stateMutability": "nonpayable",
      "type": "function"
    }
  ],
  "bytecode": "0x60806040523480156200001157600080fd5b5060405162003aaf38038062003aaf8339818101604052810190620000379190620003e4565b6040518060400160405280600c81526020017f50617263656c56657374657200000000000000000000000000000000000000008152506040518060400160405280600381526020017f50565400000000000000000000000000000000000000000000000000000000008152508160009080519060200190620000bb9291906200031d565b508060019080519060200190620000d49291906200031d565b505050620000f7620000eb6200010f60201b60201c565b6200011760201b60201c565b6200010881620001dd60201b60201c565b50620005de565b600033905090565b6000600a60009054906101000a900473ffffffffffffffffffffffffffffffffffffffff16905081600a60006101000a81548173ffffffffffffffffffffffffffffffffffffffff021916908373ffffffffffffffffffffffffffffffffffffffff1602179055508173ffffffffffffffffffffffffffffffffffffffff168173ffffffffffffffffffffffffffffffffffffffff167f8be0079c531659141344cd1fd0a4f28419497f9722a3daafe3b4186f6b6457e060405160405180910390a35050565b620001ed6200010f60201b60201c565b73ffffffffffffffffffffffffffffffffffffffff1662000213620002f360201b60201c565b73ffffffffffffffffffffffffffffffffffffffff16146200026c576040517f08c379a0000000000000000000000000000000000000000000000000000000008152600401620002639062000480565b60405180910390fd5b600073ffffffffffffffffffffffffffffffffffffffff168173ffffffffffffffffffffffffffffffffffffffff161415620002df576040517f08c379a0000000000000000000000000000000000000000000000000000000008152600401620002d6906200045e565b60405180910390fd5b620002f0816200011760201b60201c565b50565b6000600a60009054906101000a900473ffffffffffffffffffffffffffffffffffffffff16905090565b8280546200032b90620004e7565b90600052602060002090601f0160209004810192826200034f57600085556200039b565b82601f106200036a57805160ff19168380011785556200039b565b828001600101855582156200039b579182015b828111156200039a5782518255916020019190600101906200037d565b5b509050620003aa9190620003ae565b5090565b5b80821115620003c9576000816000905550600101620003af565b5090565b600081519050620003de81620005c4565b92915050565b600060208284031215620003f757600080fd5b60006200040784828501620003cd565b91505092915050565b60006200041f602683620004a2565b91506200042c826200054c565b604082019050919050565b600062000446602083620004a2565b915062000453826200059b565b602082019050919050565b60006020820190508181036000830152620004798162000410565b9050919050565b600060208201905081810360008301526200049b8162000437565b9050919050565b600082825260208201905092915050565b6000620004c082620004c7565b9050919050565b600073ffffffffffffffffffffffffffffffffffffffff82169050919050565b600060028204905060018216806200050057607f821691505b602082108114156200051757620005166200051d565b5b50919050565b7f4e487b7100000000000000000000000000000000000000000000000000000000600052602260045260246000fd5b7f4f776e61626c653a206e6577206f776e657220697320746865207a65726f206160008201527f6464726573730000000000000000000000000000000000000000000000000000602082015250565b7f4f776e61626c653a2063616c6c6572206973206e6f7420746865206f776e6572600082015250565b620005cf81620004b3565b8114620005db57600080fd5b50565b6134c180620005ee6000396000f3fe608060405234801561001057600080fd5b50600436106101375760003560e01c80636352211e116100b8578063a22cb4651161007c578063a22cb4651461034e578063b88d4fde1461036a578063c87b56dd14610386578063e985e9c5146103b6578063f1537686146103e6578063f2fde38b1461041657610137565b80636352211e146102a857806370a08231146102d8578063715018a6146103085780638da5cb5b1461031257806395d89b411461033057610137565b806323b872dd116100ff57806323b872dd146101f45780632f745c591461021057806340d097c31461024057806342842e0e1461025c5780634f6ccce71461027857610137565b806301ffc9a71461013c57806306fdde031461016c578063081812fc1461018a578063095ea7b3146101ba57806318160ddd146101d6575b600080fd5b610156600480360381019061015191906124a1565b610432565b60405161016391906128ed565b60405180910390f35b610174610444565b6040516101819190612908565b60405180910390f35b6101a4600480360381019061019f91906124f3565b6104d6565b6040516101b19190612886565b60405180910390f35b6101d460048036038101906101cf9190612465565b61055b565b005b6101de610673565b6040516101eb9190612b6a565b60405180910390f35b61020e6004803603810190610209919061235f565b610680565b005b61022a60048036038101906102259190612465565b6106e0565b6040516102379190612b6a565b60405180910390f35b61025a600480360381019061025591906122fa565b610785565b005b6102766004803603810190610271919061235f565b610827565b005b610292600480360381019061028d91906124f3565b610847565b60405161029f9190612b6a565b60405180910390f35b6102c260048036038101906102bd91906124f3565b6108de565b6040516102cf9190612886565b60405180910390f35b6102f260048036038101906102ed91906122fa565b610990565b6040516102ff9190612b6a565b60405180910390f35b610310610a48565b005b61031a610ad0565b6040516103279190612886565b60405180910390f35b610338610afa565b6040516103459190612908565b60405180910390f35b61036860048036038101906103639190612429565b610b8c565b005b610384600480360381019061037f91906123ae565b610ba2565b005b6103a0600480360381019061039b91906124f3565b610c04565b6040516103ad9190612908565b60405180910390f35b6103d060048036038101906103cb9190612323565b610cab565b6040516103dd91906128ed565b60405180910390f35b61040060048036038101906103fb91906122fa565b610d3f565b60405161040d9190612b6a565b60405180910390f35b610430600480360381019061042b91906122fa565b610dcf565b005b600061043d82610ec7565b9050919050565b60606000805461045390612d8f565b80601f016020809104026020016040519081016040528092919081815260200182805461047f90612d8f565b80156104cc5780601f106104a1576101008083540402835291602001916104cc565b820191906000526020600020905b8154815290600101906020018083116104af57829003601f168201915b5050505050905090565b60006104e182610f41565b610520576040517f08c379a000000000000000000000000000000000000000000000000000000000815260040161051790612aaa565b60405180910390fd5b6004600083815260200190815260200160002060009054906101000a900473ffffffffffffffffffffffffffffffffffffffff169050919050565b6000610566826108de565b90508073ffffffffffffffffffffffffffffffffffffffff168373ffffffffffffffffffffffffffffffffffffffff1614156105d7576040517f08c379a00000000000000000000000000000000000000000000000000000000081526004016105ce90612b0a565b60405180910390fd5b8073ffffffffffffffffffffffffffffffffffffffff166105f6610fad565b73ffffffffffffffffffffffffffffffffffffffff16148061062557506106248161061f610fad565b610cab565b5b610664576040517f08c379a000000000000000000000000000000000000000000000000000000000815260040161065b90612a2a565b60405180910390fd5b61066e8383610fb5565b505050565b6000600880549050905090565b61069161068b610fad565b8261106e565b6106d0576040517f08c379a00000000000000000000000000000000000000000000000000000000081526004016106c790612b2a565b60405180910390fd5b6106db83838361114c565b505050565b60006106eb83610990565b821061072c576040517f08c379a00000000000000000000000000000000000000000000000000000000081526004016107239061292a565b60405180910390fd5b600660008473ffffffffffffffffffffffffffffffffffffffff1673ffffffffffffffffffffffffffffffffffffffff168152602001908152602001600020600083815260200190815260200160002054905092915050565b61078d610fad565b73ffffffffffffffffffffffffffffffffffffffff166107ab610ad0565b73ffffffffffffffffffffffffffffffffffffffff1614610801576040517f08c379a00000000000000000000000000000000000000000000000000000000081526004016107f890612aca565b60405180910390fd5b600061080d600b6113b3565b9050610819600b6113c1565b61082382826113d7565b5050565b61084283838360405180602001604052806000815250610ba2565b505050565b6000610851610673565b8210610892576040517f08c379a000000000000000000000000000000000000000000000000000000000815260040161088990612b4a565b60405180910390fd5b600882815481106108cc577f4e487b7100000000000000000000000000000000000000000000000000000000600052603260045260246000fd5b90600052602060002001549050919050565b6000806002600084815260200190815260200160002060009054906101000a900473ffffffffffffffffffffffffffffffffffffffff169050600073ffffffffffffffffffffffffffffffffffffffff168173ffffffffffffffffffffffffffffffffffffffff161415610987576040517f08c379a000000000000000000000000000000000000000000000000000000000815260040161097e90612a6a565b60405180910390fd5b80915050919050565b60008073ffffffffffffffffffffffffffffffffffffffff168273ffffffffffffffffffffffffffffffffffffffff161415610a01576040517f08c379a00000000000000000000000000000000000000000000000000000000081526004016109f890612a4a565b60405180910390fd5b600360008373ffffffffffffffffffffffffffffffffffffffff1673ffffffffffffffffffffffffffffffffffffffff168152602001908152602001600020549050919050565b610a50610fad565b73ffffffffffffffffffffffffffffffffffffffff16610a6e610ad0565b73ffffffffffffffffffffffffffffffffffffffff1614610ac4576040517f08c379a0000000000000000000000000000000000000000000000000000000008152600401610abb90612aca565b60405180910390fd5b610ace60006113f5565b565b6000600a60009054906101000a900473ffffffffffffffffffffffffffffffffffffffff16905090565b606060018054610b0990612d8f565b80601f0160208091040260200160405190810160405280929190818152602001828054610b3590612d8f565b8015610b825780601f10610b5757610100808354040283529160200191610b82565b820191906000526020600020905b815481529060010190602001808311610b6557829003601f168201915b5050505050905090565b610b9e610b97610fad565b83836114bb565b5050565b610bb3610bad610fad565b8361106e565b610bf2576040517f08c379a0000000000000000000000000000000000000000000000000000000008152600401610be990612b2a565b60405180910390fd5b610bfe84848484611628565b50505050565b6060610c0f82610f41565b610c4e576040517f08c379a0000000000000000000000000000000000000000000000000000000008152600401610c4590612aea565b60405180910390fd5b6000610c58611684565b90506000815111610c785760405180602001604052806000815250610ca3565b80610c828461169b565b604051602001610c93929190612862565b6040516020818303038152906040525b915050919050565b6000600560008473ffffffffffffffffffffffffffffffffffffffff1673ffffffffffffffffffffffffffffffffffffffff16815260200190815260200160002060008373ffffffffffffffffffffffffffffffffffffffff1673ffffffffffffffffffffffffffffffffffffffff16815260200190815260200160002060009054906101000a900460ff16905092915050565b6000610d49610fad565b73ffffffffffffffffffffffffffffffffffffffff16610d67610ad0565b73ffffffffffffffffffffffffffffffffffffffff1614610dbd576040517f08c379a0000000000000000000000000000000000000000000000000000000008152600401610db490612aca565b60405180910390fd5b610dc88260006106e0565b9050919050565b610dd7610fad565b73ffffffffffffffffffffffffffffffffffffffff16610df5610ad0565b73ffffffffffffffffffffffffffffffffffffffff1614610e4b576040517f08c379a0000000000000000000000000000000000000000000000000000000008152600401610e4290612aca565b60405180910390fd5b600073ffffffffffffffffffffffffffffffffffffffff168173ffffffffffffffffffffffffffffffffffffffff161415610ebb576040517f08c379a0000000000000000000000000000000000000000000000000000000008152600401610eb29061296a565b60405180910390fd5b610ec4816113f5565b50565b60007f780e9d63000000000000000000000000000000000000000000000000000000007bffffffffffffffffffffffffffffffffffffffffffffffffffffffff1916827bffffffffffffffffffffffffffffffffffffffffffffffffffffffff19161480610f3a5750610f3982611848565b5b9050919050565b60008073ffffffffffffffffffffffffffffffffffffffff166002600084815260200190815260200160002060009054906101000a900473ffffffffffffffffffffffffffffffffffffffff1673ffffffffffffffffffffffffffffffffffffffff1614159050919050565b600033905090565b816004600083815260200190815260200160002060006101000a81548173ffffffffffffffffffffffffffffffffffffffff021916908373ffffffffffffffffffffffffffffffffffffffff160217905550808273ffffffffffffffffffffffffffffffffffffffff16611028836108de565b73ffffffffffffffffffffffffffffffffffffffff167f8c5be1e5ebec7d5bd14f71427d1e84f3dd0314c0f7b2291e5b200ac8c7c3b92560405160405180910390a45050565b600061107982610f41565b6110b8576040517f08c379a00000000000000000000000000000000000000000000000000000000081526004016110af90612a0a565b60405180910390fd5b60006110c3836108de565b90508073ffffffffffffffffffffffffffffffffffffffff168473ffffffffffffffffffffffffffffffffffffffff16148061113257508373ffffffffffffffffffffffffffffffffffffffff1661111a846104d6565b73ffffffffffffffffffffffffffffffffffffffff16145b8061114357506111428185610cab565b5b91505092915050565b8273ffffffffffffffffffffffffffffffffffffffff1661116c826108de565b73ffffffffffffffffffffffffffffffffffffffff16146111c2576040517f08c379a00000000000000000000000000000000000000000000000000000000081526004016111b99061298a565b60405180910390fd5b600073ffffffffffffffffffffffffffffffffffffffff168273ffffffffffffffffffffffffffffffffffffffff161415611232576040517f08c379a0000000000000000000000000000000000000000000000000000000008152600401611229906129ca565b60405180910390fd5b61123d83838361192a565b611248600082610fb5565b6001600360008573ffffffffffffffffffffffffffffffffffffffff1673ffffffffffffffffffffffffffffffffffffffff16815260200190815260200160002060008282546112989190612ca5565b925050819055506001600360008473ffffffffffffffffffffffffffffffffffffffff1673ffffffffffffffffffffffffffffffffffffffff16815260200190815260200160002060008282546112ef9190612c1e565b92505081905550816002600083815260200190815260200160002060006101000a81548173ffffffffffffffffffffffffffffffffffffffff021916908373ffffffffffffffffffffffffffffffffffffffff160217905550808273ffffffffffffffffffffffffffffffffffffffff168473ffffffffffffffffffffffffffffffffffffffff167fddf252ad1be2c89b69c2b068fc378daa952ba7f163c4a11628f55a4df523b3ef60405160405180910390a46113ae83838361193a565b505050565b600081600001549050919050565b6001816000016000828254019250508190555050565b6113f182826040518060200160405280600081525061193f565b5050565b6000600a60009054906101000a900473ffffffffffffffffffffffffffffffffffffffff16905081600a60006101000a81548173ffffffffffffffffffffffffffffffffffffffff021916908373ffffffffffffffffffffffffffffffffffffffff1602179055508173ffffffffffffffffffffffffffffffffffffffff168173ffffffffffffffffffffffffffffffffffffffff167f8be0079c531659141344cd1fd0a4f28419497f9722a3daafe3b4186f6b6457e060405160405180910390a35050565b8173ffffffffffffffffffffffffffffffffffffffff168373ffffffffffffffffffffffffffffffffffffffff16141561152a576040517f08c379a0000000000000000000000000000000000000000000000000000000008152600401611521906129ea565b60405180910390fd5b80600560008573ffffffffffffffffffffffffffffffffffffffff1673ffffffffffffffffffffffffffffffffffffffff16815260200190815260200160002060008473ffffffffffffffffffffffffffffffffffffffff1673ffffffffffffffffffffffffffffffffffffffff16815260200190815260200160002060006101000a81548160ff0219169083151502179055508173ffffffffffffffffffffffffffffffffffffffff168373ffffffffffffffffffffffffffffffffffffffff167f17307eab39ab6107e8899845ad3d59bd9653f200f220920489ca2b5937696c318360405161161b91906128ed565b60405180910390a3505050565b61163384848461114c565b61163f8484848461199a565b61167e576040517f08c379a00000000000000000000000000000000000000000000000000000000081526004016116759061294a565b60405180910390fd5b50505050565b606060405180602001604052806000815250905090565b606060008214156116e3576040518060400160405280600181526020017f30000000000000000000000000000000000000000000000000000000000000008152509050611843565b600082905060005b600082146117155780806116fe90612df2565b915050600a8261170e9190612c74565b91506116eb565b60008167ffffffffffffffff811115611757577f4e487b7100000000000000000000000000000000000000000000000000000000600052604160045260246000fd5b6040519080825280601f01601f1916602001820160405280156117895781602001600182028036833780820191505090505b5090505b6000851461183c576001826117a29190612ca5565b9150600a856117b19190612e3b565b60306117bd9190612c1e565b60f81b8183815181106117f9577f4e487b7100000000000000000000000000000000000000000000000000000000600052603260045260246000fd5b60200101907effffffffffffffffffffffffffffffffffffffffffffffffffffffffffffff1916908160001a905350600a856118359190612c74565b945061178d565b8093505050505b919050565b60007f80ac58cd000000000000000000000000000000000000000000000000000000007bffffffffffffffffffffffffffffffffffffffffffffffffffffffff1916827bffffffffffffffffffffffffffffffffffffffffffffffffffffffff1916148061191357507f5b5e139f000000000000000000000000000000000000000000000000000000007bffffffffffffffffffffffffffffffffffffffffffffffffffffffff1916827bffffffffffffffffffffffffffffffffffffffffffffffffffffffff1916145b80611923575061192282611b31565b5b9050919050565b611935838383611b9b565b505050565b505050565b6119498383611caf565b611956600084848461199a565b611995576040517f08c379a000000000000000000000000000000000000000000000000000000000815260040161198c9061294a565b60405180910390fd5b505050565b60006119bb8473ffffffffffffffffffffffffffffffffffffffff16611e89565b15611b24578373ffffffffffffffffffffffffffffffffffffffff1663150b7a026119e4610fad565b8786866040518563ffffffff1660e01b8152600401611a0694939291906128a1565b602060405180830381600087803b158015611a2057600080fd5b505af1925050508015611a5157506040513d601f19601f82011682018060405250810190611a4e91906124ca565b60015b611ad4573d8060008114611a81576040519150601f19603f3d011682016040523d82523d6000602084013e611a86565b606091505b50600081511415611acc576040517f08c379a0000000000000000000000000000000000000000000000000000000008152600401611ac39061294a565b60405180910390fd5b805181602001fd5b63150b7a0260e01b7bffffffffffffffffffffffffffffffffffffffffffffffffffffffff1916817bffffffffffffffffffffffffffffffffffffffffffffffffffffffff191614915050611b29565b600190505b949350505050565b60007f01ffc9a7000000000000000000000000000000000000000000000000000000007bffffffffffffffffffffffffffffffffffffffffffffffffffffffff1916827bffffffffffffffffffffffffffffffffffffffffffffffffffffffff1916149050919050565b611ba6838383611eac565b600073ffffffffffffffffffffffffffffffffffffffff168373ffffffffffffffffffffffffffffffffffffffff161415611be957611be481611eb1565b611c28565b8173ffffffffffffffffffffffffffffffffffffffff168373ffffffffffffffffffffffffffffffffffffffff1614611c2757611c268382611efa565b5b5b600073ffffffffffffffffffffffffffffffffffffffff168273ffffffffffffffffffffffffffffffffffffffff161415611c6b57611c6681612067565b611caa565b8273ffffffffffffffffffffffffffffffffffffffff168273ffffffffffffffffffffffffffffffffffffffff1614611ca957611ca882826121aa565b5b5b505050565b600073ffffffffffffffffffffffffffffffffffffffff168273ffffffffffffffffffffffffffffffffffffffff161415611d1f576040517f08c379a0000000000000000000000000000000000000000000000000000000008152600401611d1690612a8a565b60405180910390fd5b611d2881610f41565b15611d68576040517f08c379a0000000000000000000000000000000000000000000000000000000008152600401611d5f906129aa565b60405180910390fd5b611d746000838361192a565b6001600360008473ffffffffffffffffffffffffffffffffffffffff1673ffffffffffffffffffffffffffffffffffffffff1681526020019081526020016000206000828254611dc49190612c1e565b92505081905550816002600083815260200190815260200160002060006101000a81548173ffffffffffffffffffffffffffffffffffffffff021916908373ffffffffffffffffffffffffffffffffffffffff160217905550808273ffffffffffffffffffffffffffffffffffffffff16600073ffffffffffffffffffffffffffffffffffffffff167fddf252ad1be2c89b69c2b068fc378daa952ba7f163c4a11628f55a4df523b3ef60405160405180910390a4611e856000838361193a565b5050565b6000808273ffffffffffffffffffffffffffffffffffffffff163b119050919050565b505050565b6008805490506009600083815260200190815260200160002081905550600881908060018154018082558091505060019003906000526020600020016000909190919091505550565b60006001611f0784610990565b611f119190612ca5565b9050600060076000848152602001908152602001600020549050818114611ff6576000600660008673ffffffffffffffffffffffffffffffffffffffff1673ffffffffffffffffffffffffffffffffffffffff168152602001908152602001600020600084815260200190815260200160002054905080600660008773ffffffffffffffffffffffffffffffffffffffff1673ffffffffffffffffffffffffffffffffffffffff168152602001908152602001600020600084815260200190815260200160002081905550816007600083815260200190815260200160002081905550505b6007600084815260200190815260200160002060009055600660008573ffffffffffffffffffffffffffffffffffffffff1673ffffffffffffffffffffffffffffffffffffffff16815260200190815260200160002060008381526020019081526020016000206000905550505050565b6000600160088054905061207b9190612ca5565b90506000600960008481526020019081526020016000205490506000600883815481106120d1577f4e487b7100000000000000000000000000000000000000000000000000000000600052603260045260246000fd5b906000526020600020015490508060088381548110612119577f4e487b7100000000000000000000000000000000000000000000000000000000600052603260045260246000fd5b90600052602060002001819055508160096000838152602001908152602001600020819055506009600085815260200190815260200160002060009055600880548061218e577f4e487b7100000000000000000000000000000000000000000000000000000000600052603160045260246000fd5b6001900381819060005260206000200160009055905550505050565b60006121b583610990565b905081600660008573ffffffffffffffffffffffffffffffffffffffff1673ffffffffffffffffffffffffffffffffffffffff168152602001908152602001600020600083815260200190815260200160002081905550806007600084815260200190815260200160002081905550505050565b600061223c61223784612baa565b612b85565b90508281526020810184848401111561225457600080fd5b61225f848285612d4d565b509392505050565b6000813590506122768161342f565b92915050565b60008135905061228b81613446565b92915050565b6000813590506122a08161345d565b92915050565b6000815190506122b58161345d565b92915050565b600082601f8301126122cc57600080fd5b81356122dc848260208601612229565b91505092915050565b6000813590506122f481613474565b92915050565b60006020828403121561230c57600080fd5b600061231a84828501612267565b91505092915050565b6000806040838503121561233657600080fd5b600061234485828601612267565b925050602061235585828601612267565b9150509250929050565b60008060006060848603121561237457600080fd5b600061238286828701612267565b935050602061239386828701612267565b92505060406123a4868287016122e5565b9150509250925092565b600080600080608085870312156123c457600080fd5b60006123d287828801612267565b94505060206123e387828801612267565b93505060406123f4878288016122e5565b925050606085013567ffffffffffffffff81111561241157600080fd5b61241d878288016122bb565b91505092959194509250565b6000806040838503121561243c57600080fd5b600061244a85828601612267565b925050602061245b8582860161227c565b9150509250929050565b6000806040838503121561247857600080fd5b600061248685828601612267565b9250506020612497858286016122e5565b9150509250929050565b6000602082840312156124b357600080fd5b60006124c184828501612291565b91505092915050565b6000602082840312156124dc57600080fd5b60006124ea848285016122a6565b91505092915050565b60006020828403121561250557600080fd5b6000612513848285016122e5565b91505092915050565b61252581612cd9565b82525050565b61253481612ceb565b82525050565b600061254582612bdb565b61254f8185612bf1565b935061255f818560208601612d5c565b61256881612f28565b840191505092915050565b600061257e82612be6565b6125888185612c02565b9350612598818560208601612d5c565b6125a181612f28565b840191505092915050565b60006125b782612be6565b6125c18185612c13565b93506125d1818560208601612d5c565b80840191505092915050565b60006125ea602b83612c02565b91506125f582612f39565b604082019050919050565b600061260d603283612c02565b915061261882612f88565b604082019050919050565b6000612630602683612c02565b915061263b82612fd7565b604082019050919050565b6000612653602583612c02565b915061265e82613026565b604082019050919050565b6000612676601c83612c02565b915061268182613075565b602082019050919050565b6000612699602483612c02565b91506126a48261309e565b604082019050919050565b60006126bc601983612c02565b91506126c7826130ed565b602082019050919050565b60006126df602c83612c02565b91506126ea82613116565b604082019050919050565b6000612702603883612c02565b915061270d82613165565b604082019050919050565b6000612725602a83612c02565b9150612730826131b4565b604082019050919050565b6000612748602983612c02565b915061275382613203565b604082019050919050565b600061276b602083612c02565b915061277682613252565b602082019050919050565b600061278e602c83612c02565b91506127998261327b565b604082019050919050565b60006127b1602083612c02565b91506127bc826132ca565b602082019050919050565b60006127d4602f83612c02565b91506127df826132f3565b604082019050919050565b60006127f7602183612c02565b915061280282613342565b604082019050919050565b600061281a603183612c02565b915061282582613391565b604082019050919050565b600061283d602c83612c02565b9150612848826133e0565b604082019050919050565b61285c81612d43565b82525050565b600061286e82856125ac565b915061287a82846125ac565b91508190509392505050565b600060208201905061289b600083018461251c565b92915050565b60006080820190506128b6600083018761251c565b6128c3602083018661251c565b6128d06040830185612853565b81810360608301526128e2818461253a565b905095945050505050565b6000602082019050612902600083018461252b565b92915050565b600060208201905081810360008301526129228184612573565b905092915050565b60006020820190508181036000830152612943816125dd565b9050919050565b6000602082019050818103600083015261296381612600565b9050919050565b6000602082019050818103600083015261298381612623565b9050919050565b600060208201905081810360008301526129a381612646565b9050919050565b600060208201905081810360008301526129c381612669565b9050919050565b600060208201905081810360008301526129e38161268c565b9050919050565b60006020820190508181036000830152612a03816126af565b9050919050565b60006020820190508181036000830152612a23816126d2565b9050919050565b60006020820190508181036000830152612a43816126f5565b9050919050565b60006020820190508181036000830152612a6381612718565b9050919050565b60006020820190508181036000830152612a838161273b565b9050919050565b60006020820190508181036000830152612aa38161275e565b9050919050565b60006020820190508181036000830152612ac381612781565b9050919050565b60006020820190508181036000830152612ae3816127a4565b9050919050565b60006020820190508181036000830152612b03816127c7565b9050919050565b60006020820190508181036000830152612b23816127ea565b9050919050565b60006020820190508181036000830152612b438161280d565b9050919050565b60006020820190508181036000830152612b6381612830565b9050919050565b6000602082019050612b7f6000830184612853565b92915050565b6000612b8f612ba0565b9050612b9b8282612dc1565b919050565b6000604051905090565b600067ffffffffffffffff821115612bc557612bc4612ef9565b5b612bce82612f28565b9050602081019050919050565b600081519050919050565b600081519050919050565b600082825260208201905092915050565b600082825260208201905092915050565b600081905092915050565b6000612c2982612d43565b9150612c3483612d43565b9250827fffffffffffffffffffffffffffffffffffffffffffffffffffffffffffffffff03821115612c6957612c68612e6c565b5b828201905092915050565b6000612c7f82612d43565b9150612c8a83612d43565b925082612c9a57612c99612e9b565b5b828204905092915050565b6000612cb082612d43565b9150612cbb83612d43565b925082821015612cce57612ccd612e6c565b5b828203905092915050565b6000612ce482612d23565b9050919050565b60008115159050919050565b60007fffffffff0000000000000000000000000000000000000000000000000000000082169050919050565b600073ffffffffffffffffffffffffffffffffffffffff82169050919050565b6000819050919050565b82818337600083830152505050565b60005b83811015612d7a578082015181840152602081019050612d5f565b83811115612d89576000848401525b50505050565b60006002820490506001821680612da757607f821691505b60208210811415612dbb57612dba612eca565b5b50919050565b612dca82612f28565b810181811067ffffffffffffffff82111715612de957612de8612ef9565b5b80604052505050565b6000612dfd82612d43565b91507fffffffffffffffffffffffffffffffffffffffffffffffffffffffffffffffff821415612e3057612e2f612e6c565b5b600182019050919050565b6000612e4682612d43565b9150612e5183612d43565b925082612e6157612e60612e9b565b5b828206905092915050565b7f4e487b7100000000000000000000000000000000000000000000000000000000600052601160045260246000fd5b7f4e487b7100000000000000000000000000000000000000000000000000000000600052601260045260246000fd5b7f4e487b7100000000000000000000000000000000000000000000000000000000600052602260045260246000fd5b7f4e487b7100000000000000000000000000000000000000000000000000000000600052604160045260246000fd5b6000601f19601f8301169050919050565b7f455243373231456e756d657261626c653a206f776e657220696e646578206f7560008201527f74206f6620626f756e6473000000000000000000000000000000000000000000602082015250565b7f4552433732313a207472616e7366657220746f206e6f6e20455243373231526560008201527f63656976657220696d706c656d656e7465720000000000000000000000000000602082015250565b7f4f776e61626c653a206e6577206f776e657220697320746865207a65726f206160008201527f6464726573730000000000000000000000000000000000000000000000000000602082015250565b7f4552433732313a207472616e736665722066726f6d20696e636f72726563742060008201527f6f776e6572000000000000000000000000000000000000000000000000000000602082015250565b7f4552433732313a20746f6b656e20616c7265616479206d696e74656400000000600082015250565b7f4552433732313a207472616e7366657220746f20746865207a65726f2061646460008201527f7265737300000000000000000000000000000000000000000000000000000000602082015250565b7f4552433732313a20617070726f766520746f2063616c6c657200000000000000600082015250565b7f4552433732313a206f70657261746f7220717565727920666f72206e6f6e657860008201527f697374656e7420746f6b656e0000000000000000000000000000000000000000602082015250565b7f4552433732313a20617070726f76652063616c6c6572206973206e6f74206f7760008201527f6e6572206e6f7220617070726f76656420666f7220616c6c0000000000000000602082015250565b7f4552433732313a2062616c616e636520717565727920666f7220746865207a6560008201527f726f206164647265737300000000000000000000000000000000000000000000602082015250565b7f4552433732313a206f776e657220717565727920666f72206e6f6e657869737460008201527f656e7420746f6b656e0000000000000000000000000000000000000000000000602082015250565b7f4552433732313a206d696e7420746f20746865207a65726f2061646472657373600082015250565b7f4552433732313a20617070726f76656420717565727920666f72206e6f6e657860008201527f697374656e7420746f6b656e0000000000000000000000000000000000000000602082015250565b7f4f776e61626c653a2063616c6c6572206973206e6f7420746865206f776e6572600082015250565b7f4552433732314d657461646174613a2055524920717565727920666f72206e6f60008201527f6e6578697374656e7420746f6b656e0000000000000000000000000000000000602082015250565b7f4552433732313a20617070726f76616c20746f2063757272656e74206f776e6560008201527f7200000000000000000000000000000000000000000000000000000000000000602082015250565b7f4552433732313a207472616e736665722063616c6c6572206973206e6f74206f60008201527f776e6572206e6f7220617070726f766564000000000000000000000000000000602082015250565b7f455243373231456e756d657261626c653a20676c6f62616c20696e646578206f60008201527f7574206f6620626f756e64730000000000000000000000000000000000000000602082015250565b61343881612cd9565b811461344357600080fd5b50565b61344f81612ceb565b811461345a57600080fd5b50565b61346681612cf7565b811461347157600080fd5b50565b61347d81612d43565b811461348857600080fd5b5056fea2646970667358221220a37b610de4b03c1019032327537d4c73e35da2b05598904d00e8f86a566014f864736f6c63430008020033",
  "linkReferences": {},
  "deployedLinkReferences": {}
}