{
  "_format": "hh-sol-artifact-1",
  "contractName": "AddressRegistry",
  "sourceName": "contracts/registry.sol",
  "abi": [
    {
      "anonymous": false,
      "inputs": [
        {
          "indexed": true,
          "internalType": "address",
          "name": "impl",
          "type": "address"
        },
        {
          "indexed": true,
          "internalType": "bytes32",
          "name": "name",
          "type": "bytes32"
        },
        {
          "indexed": true,
          "internalType": "bool",
          "name": "currStatus",
          "type": "bool"
        },
        {
          "indexed": false,
          "internalType": "address",
          "name": "updatedby",
          "type": "address"
        }
      ],
      "name": "ModuleStatusUpdated",
      "type": "event"
    },
    {
      "anonymous": false,
      "inputs": [
        {
          "indexed": true,
          "internalType": "address",
          "name": "impl",
          "type": "address"
        },
        {
          "indexed": true,
          "internalType": "bytes32",
          "name": "name",
          "type": "bytes32"
        },
        {
          "indexed": true,
          "internalType": "address",
          "name": "addedby",
          "type": "address"
        }
      ],
      "name": "NewModuleAddded",
      "type": "event"
    },
    {
      "anonymous": false,
      "inputs": [
        {
          "indexed": true,
          "internalType": "address",
          "name": "previousOwner",
          "type": "address"
        },
        {
          "indexed": true,
          "internalType": "address",
          "name": "newOwner",
          "type": "address"
        }
      ],
      "name": "OwnershipTransferred",
      "type": "event"
    },
    {
      "inputs": [
        {
          "internalType": "address",
          "name": "impl",
          "type": "address"
        },
        {
          "internalType": "bytes32",
          "name": "name",
          "type": "bytes32"
        }
      ],
      "name": "addModule",
      "outputs": [
        {
          "internalType": "bool",
          "name": "",
          "type": "bool"
        }
      ],
      "stateMutability": "nonpayable",
      "type": "function"
    },
    {
      "inputs": [
        {
          "internalType": "bytes32",
          "name": "name",
          "type": "bytes32"
        }
      ],
      "name": "getModuleAddress",
      "outputs": [
        {
          "internalType": "address",
          "name": "",
          "type": "address"
        }
      ],
      "stateMutability": "view",
      "type": "function"
    },
    {
      "inputs": [
        {
          "internalType": "bytes32",
          "name": "",
          "type": "bytes32"
        }
      ],
      "name": "implementationStatus",
      "outputs": [
        {
          "internalType": "bool",
          "name": "",
          "type": "bool"
        }
      ],
      "stateMutability": "view",
      "type": "function"
    },
    {
      "inputs": [
        {
          "internalType": "bytes32",
          "name": "",
          "type": "bytes32"
        }
      ],
      "name": "implementations",
      "outputs": [
        {
          "internalType": "address",
          "name": "",
          "type": "address"
        }
      ],
      "stateMutability": "view",
      "type": "function"
    },
    {
      "inputs": [
        {
          "internalType": "uint256",
          "name": "",
          "type": "uint256"
        }
      ],
      "name": "moduleNames",
      "outputs": [
        {
          "internalType": "bytes32",
          "name": "",
          "type": "bytes32"
        }
      ],
      "stateMutability": "view",
      "type": "function"
    },
    {
      "inputs": [],
      "name": "owner",
      "outputs": [
        {
          "internalType": "address",
          "name": "",
          "type": "address"
        }
      ],
      "stateMutability": "view",
      "type": "function"
    },
    {
      "inputs": [],
      "name": "renounceOwnership",
      "outputs": [],
      "stateMutability": "nonpayable",
      "type": "function"
    },
    {
      "inputs": [
        {
          "internalType": "bool",
          "name": "status",
          "type": "bool"
        },
        {
          "internalType": "bytes32",
          "name": "name",
          "type": "bytes32"
        }
      ],
      "name": "toggle",
      "outputs": [],
      "stateMutability": "nonpayable",
      "type": "function"
    },
    {
      "inputs": [
        {
          "internalType": "address",
          "name": "newOwner",
          "type": "address"
        }
      ],
      "name": "transferOwnership",
      "outputs": [],
      "stateMutability": "nonpayable",
      "type": "function"
    }
  ],
  "bytecode": "0x608060405234801561001057600080fd5b5061002d61002261003260201b60201c565b61003a60201b60201c565b6100fe565b600033905090565b60008060009054906101000a900473ffffffffffffffffffffffffffffffffffffffff169050816000806101000a81548173ffffffffffffffffffffffffffffffffffffffff021916908373ffffffffffffffffffffffffffffffffffffffff1602179055508173ffffffffffffffffffffffffffffffffffffffff168173ffffffffffffffffffffffffffffffffffffffff167f8be0079c531659141344cd1fd0a4f28419497f9722a3daafe3b4186f6b6457e060405160405180910390a35050565b6117ab8061010d6000396000f3fe608060405234801561001057600080fd5b50600436106100935760003560e01c806348d6297d1161006657806348d6297d146101585780636e2e68b314610174578063715018a6146101a45780638da5cb5b146101ae578063f2fde38b146101cc57610093565b806302cfeaca1461009857806322dbefbb146100c85780633cf5fff3146100f85780633ef6fbed14610128575b600080fd5b6100b260048036038101906100ad91906112cc565b6101e8565b6040516100bf9190611440565b60405180910390f35b6100e260048036038101906100dd91906112cc565b61021b565b6040516100ef9190611440565b60405180910390f35b610112600480360381019061010d91906112cc565b610546565b60405161011f919061145b565b60405180910390f35b610142600480360381019061013d91906112f5565b610566565b60405161014f9190611476565b60405180910390f35b610172600480360381019061016d9190611290565b61058a565b005b61018e60048036038101906101899190611254565b610a00565b60405161019b919061145b565b60405180910390f35b6101ac610f5f565b005b6101b6610fe7565b6040516101c39190611440565b60405180910390f35b6101e660048036038101906101e1919061122b565b611010565b005b60016020528060005260406000206000915054906101000a900473ffffffffffffffffffffffffffffffffffffffff1681565b60006102497f90775063b52c0bde8835544d2d63ece00a2472442fed3447da2cbc7d1188c56b60001b611108565b6102757fedd8b0a8bd4e41d277eaf51cd0a9c08fe938671f44785c8f284bbae7b53cc45160001b611108565b6102a17f726ec2f14544920c0acf565f22facd433de45fcbde80dc2b371a3734f19661be60001b611108565b6102cd7f96e218aa9889bec40a011aee1bf836c192b1b2fc7cc46a1ff437e0fb4f52542860001b611108565b600073ffffffffffffffffffffffffffffffffffffffff166001600084815260200190815260200160002060009054906101000a900473ffffffffffffffffffffffffffffffffffffffff1673ffffffffffffffffffffffffffffffffffffffff161415610370576040517f08c379a0000000000000000000000000000000000000000000000000000000008152600401610367906114f1565b60405180910390fd5b61039c7fa9668b49bccd46dd83f6ac012654cb80d437f35f85b7cc485b621aa7c43dc49d60001b611108565b6103c87f303fd1c97a764e0760563b34b74073a1948c211961c3143cc19f6a587962f9cf60001b611108565b6103f47f532a6620031e83edf9aceaff9849a56551e0b1c905be953d8d8f3ea0d0c89f2e60001b611108565b6104207f6e301c71cfa2e23817722385843a904f455f08a4e9c4fe5c527e4cce62674d8c60001b611108565b600115156002600084815260200190815260200160002060009054906101000a900460ff16151514610487576040517f08c379a000000000000000000000000000000000000000000000000000000000815260040161047e906114b1565b60405180910390fd5b6104b37fd12b7adeec0a24c9d22f344b4fe0c19e7888edec9c74dc21f7f106434788399c60001b611108565b6104df7f0d65f10ab0ca77bfa33d6110961c2c4b8aed4f57a6b6252d2da7ec2270c7daad60001b611108565b61050b7fa1a16f776073f5f85e328a76e616fee209a38b803061caeb2e35bf2604b4505f60001b611108565b6001600083815260200190815260200160002060009054906101000a900473ffffffffffffffffffffffffffffffffffffffff169050919050565b60026020528060005260406000206000915054906101000a900460ff1681565b6003818154811061057657600080fd5b906000526020600020016000915090505481565b61059261110b565b73ffffffffffffffffffffffffffffffffffffffff166105b0610fe7565b73ffffffffffffffffffffffffffffffffffffffff1614610606576040517f08c379a00000000000000000000000000000000000000000000000000000000081526004016105fd90611511565b60405180910390fd5b6106327f7bb6c314ffb13c6a7532603492fad020a9b4331d449599fd8302cfe8de59cbca60001b611108565b61065e7fbd21d64aba68fef8e83961bc170863a4459839869b6270eb7d7d2b6e2e044cd660001b611108565b61068a7fc102bb5834973966f8f91c3aa3b08512e4bee1c68a362130d7ac498df6d056fb60001b611108565b6106b67fae5cbcfcb45672da3a8711e821b3e0ee8ceb465ad02b69797debc8518b9b1b9e60001b611108565b600073ffffffffffffffffffffffffffffffffffffffff166001600083815260200190815260200160002060009054906101000a900473ffffffffffffffffffffffffffffffffffffffff1673ffffffffffffffffffffffffffffffffffffffff161415610759576040517f08c379a0000000000000000000000000000000000000000000000000000000008152600401610750906114f1565b60405180910390fd5b6107857f6d5a71314719a05c40784f6fc3120d9d0e0bfd7c0f78e85933bae346ff23c35260001b611108565b6107b17fb855fe82fe61a9894d7cbd6a621275b3085e2e5adb2255ac47810e644616fc3160001b611108565b6107dd7fb2f6b0bcbaeebed5af92fa8a47db417e26c9a9c1aa6fc42c1059295f908e1cfa60001b611108565b6108097f9b85c02723e7062af6a9e17d0449b8bd9104d5c87e4b497ffbda531fbc61f34660001b611108565b8115156002600083815260200190815260200160002060009054906101000a900460ff1615151415610870576040517f08c379a0000000000000000000000000000000000000000000000000000000008152600401610867906114d1565b60405180910390fd5b61089c7fa4aa4ddb4917f00481c987359a2b33b84ff3e2bec186149b74394b83dd0b815660001b611108565b6108c87f552b7392a8d975abbf9dbbfa596a547d56dc35fd1d3b54fba4ae2502cfa1079160001b611108565b6108f47f3472ec2cb77d2b6739d9bae6af3f2c35c4d4d052bcf4b82b73b80b432d07f9b060001b611108565b816002600083815260200190815260200160002060006101000a81548160ff02191690831515021790555061094b7f56a9427fc56d05fca28da24a652294f2abce02a5cd35e36050c1e235c0ba277260001b611108565b6109777f975fe209089ee59930824377462f9325365ff954b778b20599608f184168d9e360001b611108565b811515816001600084815260200190815260200160002060009054906101000a900473ffffffffffffffffffffffffffffffffffffffff1673ffffffffffffffffffffffffffffffffffffffff167f221c15a0733640d02f1698a606f6c193089f4e953524ad01b7a6fcec091d78ac336040516109f49190611440565b60405180910390a45050565b6000610a0a61110b565b73ffffffffffffffffffffffffffffffffffffffff16610a28610fe7565b73ffffffffffffffffffffffffffffffffffffffff1614610a7e576040517f08c379a0000000000000000000000000000000000000000000000000000000008152600401610a7590611511565b60405180910390fd5b610aaa7fb31b5b5ae3cdf05382b3c3040a800cdac103b365c6324825b7ac02442aa0034260001b611108565b610ad67f0e5e036c13d9c9e4876b4a1515f991a25b7f96eb5dc4aab4f01ba25e4c3edbb060001b611108565b610b027fab2ff8ad9c0679be5aa2d0e8940602c05d7747532fc1fe78f65e17192ffe946460001b611108565b610b2e7fa4ddd9995ea323338a2a5ecc8dce3b98cd271751bf658d5338c08aec9774f2da60001b611108565b600073ffffffffffffffffffffffffffffffffffffffff166001600084815260200190815260200160002060009054906101000a900473ffffffffffffffffffffffffffffffffffffffff1673ffffffffffffffffffffffffffffffffffffffff1614610bd0576040517f08c379a0000000000000000000000000000000000000000000000000000000008152600401610bc790611551565b60405180910390fd5b610bfc7f76e1ca80534e8e11a124bf7d167d3fbbaacccb89efac99e6557f9cd66b1fe87060001b611108565b610c287fdd88750cb07ede03aae50b9909ec4239fa939a7ea91bf7dcd88d2408eb3d7f1960001b611108565b610c547f0a22c673a6d8f2c1a10307dd9be3cd10fc8f2c9f27f4ba48405b9a13ff1ec8ca60001b611108565b610c807fd82cf4b1e3b4fabafe66db6222cf61dde944c89ae2e32a673889c0989279d12760001b611108565b600073ffffffffffffffffffffffffffffffffffffffff168373ffffffffffffffffffffffffffffffffffffffff161415610cf0576040517f08c379a0000000000000000000000000000000000000000000000000000000008152600401610ce790611531565b60405180910390fd5b610d1c7f6e7a99505c17506f3b6c3a7a5a3e35cf47c414e7153971df6dff30088d51bbbb60001b611108565b610d487fbc795e46520ad2f4fb1cd2ae9c35b6443abe7fe5a889e48455aaed499398e04d60001b611108565b610d747fda2e24dece5d7708077822e631c0f279b064635c5c2ae7fe731805a4b24205b860001b611108565b826001600084815260200190815260200160002060006101000a81548173ffffffffffffffffffffffffffffffffffffffff021916908373ffffffffffffffffffffffffffffffffffffffff160217905550610df27fe73261b13cb607f849ce266f1cf079b6973ca3f2772f489a3db6d4e80e586e0560001b611108565b610e1e7fe772d88793192100bee33a5db4ba0edb4a8e6c6a50442e5511c852d22d09498960001b611108565b60016002600084815260200190815260200160002060006101000a81548160ff021916908315150217905550610e767fe02821b1d2ff2b383d1d469bc25b4ff82f4159d82be7be7bc0449e52d3af6d4f60001b611108565b610ea27fafde14d273e29f6b4b2fca6d735b4f665b4f42a50dcd520799622fd78290f19c60001b611108565b3373ffffffffffffffffffffffffffffffffffffffff16828473ffffffffffffffffffffffffffffffffffffffff167ffe8ff20a7da569371ebffbf966799384e60b9ca8c3b76a8e700c3b7803da8fa460405160405180910390a4610f297f73fce297ba635d150b66154577faca2d0f0850b1266e1e29ae4862858b46b3a960001b611108565b610f557f8fe53a8de70c441534cb9d1658e3cc9fe9a67465e5d0e3e89c9ed7310ba7b9ac60001b611108565b6001905092915050565b610f6761110b565b73ffffffffffffffffffffffffffffffffffffffff16610f85610fe7565b73ffffffffffffffffffffffffffffffffffffffff1614610fdb576040517f08c379a0000000000000000000000000000000000000000000000000000000008152600401610fd290611511565b60405180910390fd5b610fe56000611113565b565b60008060009054906101000a900473ffffffffffffffffffffffffffffffffffffffff16905090565b61101861110b565b73ffffffffffffffffffffffffffffffffffffffff16611036610fe7565b73ffffffffffffffffffffffffffffffffffffffff161461108c576040517f08c379a000000000000000000000000000000000000000000000000000000000815260040161108390611511565b60405180910390fd5b600073ffffffffffffffffffffffffffffffffffffffff168173ffffffffffffffffffffffffffffffffffffffff1614156110fc576040517f08c379a00000000000000000000000000000000000000000000000000000000081526004016110f390611491565b60405180910390fd5b61110581611113565b50565b50565b600033905090565b60008060009054906101000a900473ffffffffffffffffffffffffffffffffffffffff169050816000806101000a81548173ffffffffffffffffffffffffffffffffffffffff021916908373ffffffffffffffffffffffffffffffffffffffff1602179055508173ffffffffffffffffffffffffffffffffffffffff168173ffffffffffffffffffffffffffffffffffffffff167f8be0079c531659141344cd1fd0a4f28419497f9722a3daafe3b4186f6b6457e060405160405180910390a35050565b6000813590506111e681611719565b92915050565b6000813590506111fb81611730565b92915050565b60008135905061121081611747565b92915050565b6000813590506112258161175e565b92915050565b60006020828403121561123d57600080fd5b600061124b848285016111d7565b91505092915050565b6000806040838503121561126757600080fd5b6000611275858286016111d7565b925050602061128685828601611201565b9150509250929050565b600080604083850312156112a357600080fd5b60006112b1858286016111ec565b92505060206112c285828601611201565b9150509250929050565b6000602082840312156112de57600080fd5b60006112ec84828501611201565b91505092915050565b60006020828403121561130757600080fd5b600061131584828501611216565b91505092915050565b61132781611582565b82525050565b61133681611594565b82525050565b611345816115a0565b82525050565b6000611358602683611571565b9150611363826115d4565b604082019050919050565b600061137b600f83611571565b915061138682611623565b602082019050919050565b600061139e601483611571565b91506113a98261164c565b602082019050919050565b60006113c1600f83611571565b91506113cc82611675565b602082019050919050565b60006113e4602083611571565b91506113ef8261169e565b602082019050919050565b6000611407601283611571565b9150611412826116c7565b602082019050919050565b600061142a600d83611571565b9150611435826116f0565b602082019050919050565b6000602082019050611455600083018461131e565b92915050565b6000602082019050611470600083018461132d565b92915050565b600060208201905061148b600083018461133c565b92915050565b600060208201905081810360008301526114aa8161134b565b9050919050565b600060208201905081810360008301526114ca8161136e565b9050919050565b600060208201905081810360008301526114ea81611391565b9050919050565b6000602082019050818103600083015261150a816113b4565b9050919050565b6000602082019050818103600083015261152a816113d7565b9050919050565b6000602082019050818103600083015261154a816113fa565b9050919050565b6000602082019050818103600083015261156a8161141d565b9050919050565b600082825260208201905092915050565b600061158d826115aa565b9050919050565b60008115159050919050565b6000819050919050565b600073ffffffffffffffffffffffffffffffffffffffff82169050919050565b6000819050919050565b7f4f776e61626c653a206e6577206f776e657220697320746865207a65726f206160008201527f6464726573730000000000000000000000000000000000000000000000000000602082015250565b7f4d6f64756c652064697361626c65640000000000000000000000000000000000600082015250565b7f537461746520616c726561647920657869737473000000000000000000000000600082015250565b7f4e6f206d6f64756c6520666f756e640000000000000000000000000000000000600082015250565b7f4f776e61626c653a2063616c6c6572206973206e6f7420746865206f776e6572600082015250565b7f4e6f7420612076616c6964206d6f64756c650000000000000000000000000000600082015250565b7f416c726561647920616464656400000000000000000000000000000000000000600082015250565b61172281611582565b811461172d57600080fd5b50565b61173981611594565b811461174457600080fd5b50565b611750816115a0565b811461175b57600080fd5b50565b611767816115ca565b811461177257600080fd5b5056fea2646970667358221220fc97705f51c86d915c913718f92796e3891803b801e92fbc98918ae5f13d6e1f64736f6c63430008020033",
  "linkReferences": {},
  "deployedLinkReferences": {}
}