{
  "_format": "hh-sol-artifact-1",
  "contractName": "OwnerShipNft",
  "sourceName": "contracts/modules/ownershipNft.sol",
  "abi": [
    {
      "inputs": [],
      "stateMutability": "nonpayable",
      "type": "constructor"
    },
    {
      "anonymous": false,
      "inputs": [
        {
          "indexed": true,
          "internalType": "address",
          "name": "owner",
          "type": "address"
        },
        {
          "indexed": true,
          "internalType": "address",
          "name": "approved",
          "type": "address"
        },
        {
          "indexed": true,
          "internalType": "uint256",
          "name": "tokenId",
          "type": "uint256"
        }
      ],
      "name": "Approval",
      "type": "event"
    },
    {
      "anonymous": false,
      "inputs": [
        {
          "indexed": true,
          "internalType": "address",
          "name": "owner",
          "type": "address"
        },
        {
          "indexed": true,
          "internalType": "address",
          "name": "operator",
          "type": "address"
        },
        {
          "indexed": false,
          "internalType": "bool",
          "name": "approved",
          "type": "bool"
        }
      ],
      "name": "ApprovalForAll",
      "type": "event"
    },
    {
      "anonymous": false,
      "inputs": [
        {
          "indexed": true,
          "internalType": "address",
          "name": "previousOwner",
          "type": "address"
        },
        {
          "indexed": true,
          "internalType": "address",
          "name": "newOwner",
          "type": "address"
        }
      ],
      "name": "OwnershipTransferred",
      "type": "event"
    },
    {
      "anonymous": false,
      "inputs": [
        {
          "indexed": true,
          "internalType": "address",
          "name": "from",
          "type": "address"
        },
        {
          "indexed": true,
          "internalType": "address",
          "name": "to",
          "type": "address"
        },
        {
          "indexed": true,
          "internalType": "uint256",
          "name": "tokenId",
          "type": "uint256"
        }
      ],
      "name": "Transfer",
      "type": "event"
    },
    {
      "inputs": [
        {
          "internalType": "address",
          "name": "to",
          "type": "address"
        },
        {
          "internalType": "uint256",
          "name": "tokenId",
          "type": "uint256"
        }
      ],
      "name": "approve",
      "outputs": [],
      "stateMutability": "nonpayable",
      "type": "function"
    },
    {
      "inputs": [
        {
          "internalType": "address",
          "name": "owner",
          "type": "address"
        }
      ],
      "name": "balanceOf",
      "outputs": [
        {
          "internalType": "uint256",
          "name": "",
          "type": "uint256"
        }
      ],
      "stateMutability": "view",
      "type": "function"
    },
    {
      "inputs": [
        {
          "internalType": "uint256",
          "name": "tokenId",
          "type": "uint256"
        }
      ],
      "name": "getApproved",
      "outputs": [
        {
          "internalType": "address",
          "name": "",
          "type": "address"
        }
      ],
      "stateMutability": "view",
      "type": "function"
    },
    {
      "inputs": [
        {
          "internalType": "address",
          "name": "owner",
          "type": "address"
        },
        {
          "internalType": "address",
          "name": "operator",
          "type": "address"
        }
      ],
      "name": "isApprovedForAll",
      "outputs": [
        {
          "internalType": "bool",
          "name": "",
          "type": "bool"
        }
      ],
      "stateMutability": "view",
      "type": "function"
    },
    {
      "inputs": [
        {
          "internalType": "address",
          "name": "to",
          "type": "address"
        }
      ],
      "name": "mintNft",
      "outputs": [
        {
          "internalType": "uint256",
          "name": "",
          "type": "uint256"
        }
      ],
      "stateMutability": "nonpayable",
      "type": "function"
    },
    {
      "inputs": [],
      "name": "name",
      "outputs": [
        {
          "internalType": "string",
          "name": "",
          "type": "string"
        }
      ],
      "stateMutability": "view",
      "type": "function"
    },
    {
      "inputs": [],
      "name": "owner",
      "outputs": [
        {
          "internalType": "address",
          "name": "",
          "type": "address"
        }
      ],
      "stateMutability": "view",
      "type": "function"
    },
    {
      "inputs": [
        {
          "internalType": "uint256",
          "name": "tokenId",
          "type": "uint256"
        }
      ],
      "name": "ownerOf",
      "outputs": [
        {
          "internalType": "address",
          "name": "",
          "type": "address"
        }
      ],
      "stateMutability": "view",
      "type": "function"
    },
    {
      "inputs": [],
      "name": "renounceOwnership",
      "outputs": [],
      "stateMutability": "nonpayable",
      "type": "function"
    },
    {
      "inputs": [
        {
          "internalType": "address",
          "name": "from",
          "type": "address"
        },
        {
          "internalType": "address",
          "name": "to",
          "type": "address"
        },
        {
          "internalType": "uint256",
          "name": "tokenId",
          "type": "uint256"
        }
      ],
      "name": "safeTransferFrom",
      "outputs": [],
      "stateMutability": "nonpayable",
      "type": "function"
    },
    {
      "inputs": [
        {
          "internalType": "address",
          "name": "from",
          "type": "address"
        },
        {
          "internalType": "address",
          "name": "to",
          "type": "address"
        },
        {
          "internalType": "uint256",
          "name": "tokenId",
          "type": "uint256"
        },
        {
          "internalType": "bytes",
          "name": "_data",
          "type": "bytes"
        }
      ],
      "name": "safeTransferFrom",
      "outputs": [],
      "stateMutability": "nonpayable",
      "type": "function"
    },
    {
      "inputs": [
        {
          "internalType": "address",
          "name": "operator",
          "type": "address"
        },
        {
          "internalType": "bool",
          "name": "approved",
          "type": "bool"
        }
      ],
      "name": "setApprovalForAll",
      "outputs": [],
      "stateMutability": "nonpayable",
      "type": "function"
    },
    {
      "inputs": [
        {
          "internalType": "bytes4",
          "name": "interfaceId",
          "type": "bytes4"
        }
      ],
      "name": "supportsInterface",
      "outputs": [
        {
          "internalType": "bool",
          "name": "",
          "type": "bool"
        }
      ],
      "stateMutability": "view",
      "type": "function"
    },
    {
      "inputs": [],
      "name": "symbol",
      "outputs": [
        {
          "internalType": "string",
          "name": "",
          "type": "string"
        }
      ],
      "stateMutability": "view",
      "type": "function"
    },
    {
      "inputs": [
        {
          "internalType": "uint256",
          "name": "index",
          "type": "uint256"
        }
      ],
      "name": "tokenByIndex",
      "outputs": [
        {
          "internalType": "uint256",
          "name": "",
          "type": "uint256"
        }
      ],
      "stateMutability": "view",
      "type": "function"
    },
    {
      "inputs": [
        {
          "internalType": "address",
          "name": "owner",
          "type": "address"
        },
        {
          "internalType": "uint256",
          "name": "index",
          "type": "uint256"
        }
      ],
      "name": "tokenOfOwnerByIndex",
      "outputs": [
        {
          "internalType": "uint256",
          "name": "",
          "type": "uint256"
        }
      ],
      "stateMutability": "view",
      "type": "function"
    },
    {
      "inputs": [
        {
          "internalType": "uint256",
          "name": "tokenId",
          "type": "uint256"
        }
      ],
      "name": "tokenURI",
      "outputs": [
        {
          "internalType": "string",
          "name": "",
          "type": "string"
        }
      ],
      "stateMutability": "view",
      "type": "function"
    },
    {
      "inputs": [],
      "name": "totalSupply",
      "outputs": [
        {
          "internalType": "uint256",
          "name": "",
          "type": "uint256"
        }
      ],
      "stateMutability": "view",
      "type": "function"
    },
    {
      "inputs": [
        {
          "internalType": "address",
          "name": "from",
          "type": "address"
        },
        {
          "internalType": "address",
          "name": "to",
          "type": "address"
        },
        {
          "internalType": "uint256",
          "name": "tokenId",
          "type": "uint256"
        }
      ],
      "name": "transferFrom",
      "outputs": [],
      "stateMutability": "nonpayable",
      "type": "function"
    },
    {
      "inputs": [
        {
          "internalType": "address",
          "name": "newOwner",
          "type": "address"
        }
      ],
      "name": "transferOwnership",
      "outputs": [],
      "stateMutability": "nonpayable",
      "type": "function"
    }
  ],
  "bytecode": "0x60806040523480156200001157600080fd5b506040518060400160405280601781526020017f496e63656e746976654f776e657273686970546f6b656e0000000000000000008152506040518060400160405280600581526020017f494f4e4654000000000000000000000000000000000000000000000000000000815250816000908051906020019062000096929190620001dd565b508060019080519060200190620000af929190620001dd565b505050620000d2620000c66200010c60201b60201c565b6200011460201b60201c565b620001067f157719a0fd20d958849495068f6cb43e1b2bd205f3bf8adf9c9dc546a7cbcbe460001b620001da60201b60201c565b620002f2565b600033905090565b6000600a60009054906101000a900473ffffffffffffffffffffffffffffffffffffffff16905081600a60006101000a81548173ffffffffffffffffffffffffffffffffffffffff021916908373ffffffffffffffffffffffffffffffffffffffff1602179055508173ffffffffffffffffffffffffffffffffffffffff168173ffffffffffffffffffffffffffffffffffffffff167f8be0079c531659141344cd1fd0a4f28419497f9722a3daafe3b4186f6b6457e060405160405180910390a35050565b50565b828054620001eb906200028d565b90600052602060002090601f0160209004810192826200020f57600085556200025b565b82601f106200022a57805160ff19168380011785556200025b565b828001600101855582156200025b579182015b828111156200025a5782518255916020019190600101906200023d565b5b5090506200026a91906200026e565b5090565b5b80821115620002895760008160009055506001016200026f565b5090565b60006002820490506001821680620002a657607f821691505b60208210811415620002bd57620002bc620002c3565b5b50919050565b7f4e487b7100000000000000000000000000000000000000000000000000000000600052602260045260246000fd5b6135b380620003026000396000f3fe608060405234801561001057600080fd5b506004361061012c5760003560e01c806370a08231116100ad578063b88d4fde11610071578063b88d4fde14610343578063c87b56dd1461035f578063e985e9c51461038f578063e9c2e14b146103bf578063f2fde38b146103ef5761012c565b806370a08231146102b1578063715018a6146102e15780638da5cb5b146102eb57806395d89b4114610309578063a22cb465146103275761012c565b806323b872dd116100f457806323b872dd146101e95780632f745c591461020557806342842e0e146102355780634f6ccce7146102515780636352211e146102815761012c565b806301ffc9a71461013157806306fdde0314610161578063081812fc1461017f578063095ea7b3146101af57806318160ddd146101cb575b600080fd5b61014b60048036038101906101469190612593565b61040b565b60405161015891906129df565b60405180910390f35b6101696104a1565b60405161017691906129fa565b60405180910390f35b610199600480360381019061019491906125e5565b610533565b6040516101a69190612978565b60405180910390f35b6101c960048036038101906101c49190612557565b6105b8565b005b6101d36106d0565b6040516101e09190612c5c565b60405180910390f35b61020360048036038101906101fe9190612451565b6106dd565b005b61021f600480360381019061021a9190612557565b61073d565b60405161022c9190612c5c565b60405180910390f35b61024f600480360381019061024a9190612451565b6107e2565b005b61026b600480360381019061026691906125e5565b610802565b6040516102789190612c5c565b60405180910390f35b61029b600480360381019061029691906125e5565b610899565b6040516102a89190612978565b60405180910390f35b6102cb60048036038101906102c691906123ec565b61094b565b6040516102d89190612c5c565b60405180910390f35b6102e9610a03565b005b6102f3610a8b565b6040516103009190612978565b60405180910390f35b610311610ab5565b60405161031e91906129fa565b60405180910390f35b610341600480360381019061033c919061251b565b610b47565b005b61035d600480360381019061035891906124a0565b610b5d565b005b610379600480360381019061037491906125e5565b610bbf565b60405161038691906129fa565b60405180910390f35b6103a960048036038101906103a49190612415565b610c66565b6040516103b691906129df565b60405180910390f35b6103d960048036038101906103d491906123ec565b610cfa565b6040516103e69190612c5c565b60405180910390f35b610409600480360381019061040491906123ec565b610eb3565b005b60006104397fbb89204fef5e5107d2c547ae84a4371dba536269d32f3414d1d521147a4551bb60001b610fab565b6104657fd69d685a00e092983723001a195af71f75be402d57c02d3a990de0e97720029160001b610fab565b6104917f1b4e26c0b679b0f04f43d4a902cb84579406c3d8302c3f004a37fc53a1ad923660001b610fab565b61049a82610fae565b9050919050565b6060600080546104b090612e81565b80601f01602080910402602001604051908101604052809291908181526020018280546104dc90612e81565b80156105295780601f106104fe57610100808354040283529160200191610529565b820191906000526020600020905b81548152906001019060200180831161050c57829003601f168201915b5050505050905090565b600061053e82611028565b61057d576040517f08c379a000000000000000000000000000000000000000000000000000000000815260040161057490612b9c565b60405180910390fd5b6004600083815260200190815260200160002060009054906101000a900473ffffffffffffffffffffffffffffffffffffffff169050919050565b60006105c382610899565b90508073ffffffffffffffffffffffffffffffffffffffff168373ffffffffffffffffffffffffffffffffffffffff161415610634576040517f08c379a000000000000000000000000000000000000000000000000000000000815260040161062b90612bfc565b60405180910390fd5b8073ffffffffffffffffffffffffffffffffffffffff16610653611094565b73ffffffffffffffffffffffffffffffffffffffff16148061068257506106818161067c611094565b610c66565b5b6106c1576040517f08c379a00000000000000000000000000000000000000000000000000000000081526004016106b890612b1c565b60405180910390fd5b6106cb838361109c565b505050565b6000600880549050905090565b6106ee6106e8611094565b82611155565b61072d576040517f08c379a000000000000000000000000000000000000000000000000000000000815260040161072490612c1c565b60405180910390fd5b610738838383611233565b505050565b60006107488361094b565b8210610789576040517f08c379a000000000000000000000000000000000000000000000000000000000815260040161078090612a1c565b60405180910390fd5b600660008473ffffffffffffffffffffffffffffffffffffffff1673ffffffffffffffffffffffffffffffffffffffff168152602001908152602001600020600083815260200190815260200160002054905092915050565b6107fd83838360405180602001604052806000815250610b5d565b505050565b600061080c6106d0565b821061084d576040517f08c379a000000000000000000000000000000000000000000000000000000000815260040161084490612c3c565b60405180910390fd5b60088281548110610887577f4e487b7100000000000000000000000000000000000000000000000000000000600052603260045260246000fd5b90600052602060002001549050919050565b6000806002600084815260200190815260200160002060009054906101000a900473ffffffffffffffffffffffffffffffffffffffff169050600073ffffffffffffffffffffffffffffffffffffffff168173ffffffffffffffffffffffffffffffffffffffff161415610942576040517f08c379a000000000000000000000000000000000000000000000000000000000815260040161093990612b5c565b60405180910390fd5b80915050919050565b60008073ffffffffffffffffffffffffffffffffffffffff168273ffffffffffffffffffffffffffffffffffffffff1614156109bc576040517f08c379a00000000000000000000000000000000000000000000000000000000081526004016109b390612b3c565b60405180910390fd5b600360008373ffffffffffffffffffffffffffffffffffffffff1673ffffffffffffffffffffffffffffffffffffffff168152602001908152602001600020549050919050565b610a0b611094565b73ffffffffffffffffffffffffffffffffffffffff16610a29610a8b565b73ffffffffffffffffffffffffffffffffffffffff1614610a7f576040517f08c379a0000000000000000000000000000000000000000000000000000000008152600401610a7690612bbc565b60405180910390fd5b610a89600061149a565b565b6000600a60009054906101000a900473ffffffffffffffffffffffffffffffffffffffff16905090565b606060018054610ac490612e81565b80601f0160208091040260200160405190810160405280929190818152602001828054610af090612e81565b8015610b3d5780601f10610b1257610100808354040283529160200191610b3d565b820191906000526020600020905b815481529060010190602001808311610b2057829003601f168201915b5050505050905090565b610b59610b52611094565b8383611560565b5050565b610b6e610b68611094565b83611155565b610bad576040517f08c379a0000000000000000000000000000000000000000000000000000000008152600401610ba490612c1c565b60405180910390fd5b610bb9848484846116cd565b50505050565b6060610bca82611028565b610c09576040517f08c379a0000000000000000000000000000000000000000000000000000000008152600401610c0090612bdc565b60405180910390fd5b6000610c13611729565b90506000815111610c335760405180602001604052806000815250610c5e565b80610c3d84611740565b604051602001610c4e929190612954565b6040516020818303038152906040525b915050919050565b6000600560008473ffffffffffffffffffffffffffffffffffffffff1673ffffffffffffffffffffffffffffffffffffffff16815260200190815260200160002060008373ffffffffffffffffffffffffffffffffffffffff1673ffffffffffffffffffffffffffffffffffffffff16815260200190815260200160002060009054906101000a900460ff16905092915050565b6000610d287fea54254bc629873cd5898bb8b08aaf49e466ec45372242cb09b33f80d101d4af60001b610fab565b610d547facef15bbfd8d18fca71d3573eb3e2ed9177bd67cbd3910f9fe1d99597b89f8cf60001b610fab565b610d807f29f0f4ad451570ad704067238b5d4f158e325f43f45590f2a3255d9c2142fee560001b610fab565b6000610d8c600b6118ed565b9050610dba7f44238bac232060cf4434d953691103e4de303ff9fad2473f40dd0e38b2cc256060001b610fab565b610de67f0bb49f4ca91937691da512cb1ac16979fa83faa7c206fad49c702e7ebbe1d31260001b610fab565b610df0600b6118fb565b610e1c7f71a6888e7a68fd5a92e341a3c3b4484c27e223a4c9d4b3e2b9d57a8f74be9d1c60001b610fab565b610e487f4b57157191f0e13a6f9062130939cd160d36b33e4a5d06cb2feea9ef7d259e7460001b610fab565b610e528382611911565b610e7e7f25fd5071e79f36b653dcba8c0c1352915a631e8f0ab36e57c96f23ac34f3f46a60001b610fab565b610eaa7f756283a037517323214d3397e69621bd0707077eb4004eba2561d8abdbb757ac60001b610fab565b80915050919050565b610ebb611094565b73ffffffffffffffffffffffffffffffffffffffff16610ed9610a8b565b73ffffffffffffffffffffffffffffffffffffffff1614610f2f576040517f08c379a0000000000000000000000000000000000000000000000000000000008152600401610f2690612bbc565b60405180910390fd5b600073ffffffffffffffffffffffffffffffffffffffff168173ffffffffffffffffffffffffffffffffffffffff161415610f9f576040517f08c379a0000000000000000000000000000000000000000000000000000000008152600401610f9690612a5c565b60405180910390fd5b610fa88161149a565b50565b50565b60007f780e9d63000000000000000000000000000000000000000000000000000000007bffffffffffffffffffffffffffffffffffffffffffffffffffffffff1916827bffffffffffffffffffffffffffffffffffffffffffffffffffffffff19161480611021575061102082611aeb565b5b9050919050565b60008073ffffffffffffffffffffffffffffffffffffffff166002600084815260200190815260200160002060009054906101000a900473ffffffffffffffffffffffffffffffffffffffff1673ffffffffffffffffffffffffffffffffffffffff1614159050919050565b600033905090565b816004600083815260200190815260200160002060006101000a81548173ffffffffffffffffffffffffffffffffffffffff021916908373ffffffffffffffffffffffffffffffffffffffff160217905550808273ffffffffffffffffffffffffffffffffffffffff1661110f83610899565b73ffffffffffffffffffffffffffffffffffffffff167f8c5be1e5ebec7d5bd14f71427d1e84f3dd0314c0f7b2291e5b200ac8c7c3b92560405160405180910390a45050565b600061116082611028565b61119f576040517f08c379a000000000000000000000000000000000000000000000000000000000815260040161119690612afc565b60405180910390fd5b60006111aa83610899565b90508073ffffffffffffffffffffffffffffffffffffffff168473ffffffffffffffffffffffffffffffffffffffff16148061121957508373ffffffffffffffffffffffffffffffffffffffff1661120184610533565b73ffffffffffffffffffffffffffffffffffffffff16145b8061122a57506112298185610c66565b5b91505092915050565b8273ffffffffffffffffffffffffffffffffffffffff1661125382610899565b73ffffffffffffffffffffffffffffffffffffffff16146112a9576040517f08c379a00000000000000000000000000000000000000000000000000000000081526004016112a090612a7c565b60405180910390fd5b600073ffffffffffffffffffffffffffffffffffffffff168273ffffffffffffffffffffffffffffffffffffffff161415611319576040517f08c379a000000000000000000000000000000000000000000000000000000000815260040161131090612abc565b60405180910390fd5b611324838383611bcd565b61132f60008261109c565b6001600360008573ffffffffffffffffffffffffffffffffffffffff1673ffffffffffffffffffffffffffffffffffffffff168152602001908152602001600020600082825461137f9190612d97565b925050819055506001600360008473ffffffffffffffffffffffffffffffffffffffff1673ffffffffffffffffffffffffffffffffffffffff16815260200190815260200160002060008282546113d69190612d10565b92505081905550816002600083815260200190815260200160002060006101000a81548173ffffffffffffffffffffffffffffffffffffffff021916908373ffffffffffffffffffffffffffffffffffffffff160217905550808273ffffffffffffffffffffffffffffffffffffffff168473ffffffffffffffffffffffffffffffffffffffff167fddf252ad1be2c89b69c2b068fc378daa952ba7f163c4a11628f55a4df523b3ef60405160405180910390a4611495838383611c61565b505050565b6000600a60009054906101000a900473ffffffffffffffffffffffffffffffffffffffff16905081600a60006101000a81548173ffffffffffffffffffffffffffffffffffffffff021916908373ffffffffffffffffffffffffffffffffffffffff1602179055508173ffffffffffffffffffffffffffffffffffffffff168173ffffffffffffffffffffffffffffffffffffffff167f8be0079c531659141344cd1fd0a4f28419497f9722a3daafe3b4186f6b6457e060405160405180910390a35050565b8173ffffffffffffffffffffffffffffffffffffffff168373ffffffffffffffffffffffffffffffffffffffff1614156115cf576040517f08c379a00000000000000000000000000000000000000000000000000000000081526004016115c690612adc565b60405180910390fd5b80600560008573ffffffffffffffffffffffffffffffffffffffff1673ffffffffffffffffffffffffffffffffffffffff16815260200190815260200160002060008473ffffffffffffffffffffffffffffffffffffffff1673ffffffffffffffffffffffffffffffffffffffff16815260200190815260200160002060006101000a81548160ff0219169083151502179055508173ffffffffffffffffffffffffffffffffffffffff168373ffffffffffffffffffffffffffffffffffffffff167f17307eab39ab6107e8899845ad3d59bd9653f200f220920489ca2b5937696c31836040516116c091906129df565b60405180910390a3505050565b6116d8848484611233565b6116e484848484611c66565b611723576040517f08c379a000000000000000000000000000000000000000000000000000000000815260040161171a90612a3c565b60405180910390fd5b50505050565b606060405180602001604052806000815250905090565b60606000821415611788576040518060400160405280600181526020017f300000000000000000000000000000000000000000000000000000000000000081525090506118e8565b600082905060005b600082146117ba5780806117a390612ee4565b915050600a826117b39190612d66565b9150611790565b60008167ffffffffffffffff8111156117fc577f4e487b7100000000000000000000000000000000000000000000000000000000600052604160045260246000fd5b6040519080825280601f01601f19166020018201604052801561182e5781602001600182028036833780820191505090505b5090505b600085146118e1576001826118479190612d97565b9150600a856118569190612f2d565b60306118629190612d10565b60f81b81838151811061189e577f4e487b7100000000000000000000000000000000000000000000000000000000600052603260045260246000fd5b60200101907effffffffffffffffffffffffffffffffffffffffffffffffffffffffffffff1916908160001a905350600a856118da9190612d66565b9450611832565b8093505050505b919050565b600081600001549050919050565b6001816000016000828254019250508190555050565b600073ffffffffffffffffffffffffffffffffffffffff168273ffffffffffffffffffffffffffffffffffffffff161415611981576040517f08c379a000000000000000000000000000000000000000000000000000000000815260040161197890612b7c565b60405180910390fd5b61198a81611028565b156119ca576040517f08c379a00000000000000000000000000000000000000000000000000000000081526004016119c190612a9c565b60405180910390fd5b6119d660008383611bcd565b6001600360008473ffffffffffffffffffffffffffffffffffffffff1673ffffffffffffffffffffffffffffffffffffffff1681526020019081526020016000206000828254611a269190612d10565b92505081905550816002600083815260200190815260200160002060006101000a81548173ffffffffffffffffffffffffffffffffffffffff021916908373ffffffffffffffffffffffffffffffffffffffff160217905550808273ffffffffffffffffffffffffffffffffffffffff16600073ffffffffffffffffffffffffffffffffffffffff167fddf252ad1be2c89b69c2b068fc378daa952ba7f163c4a11628f55a4df523b3ef60405160405180910390a4611ae760008383611c61565b5050565b60007f80ac58cd000000000000000000000000000000000000000000000000000000007bffffffffffffffffffffffffffffffffffffffffffffffffffffffff1916827bffffffffffffffffffffffffffffffffffffffffffffffffffffffff19161480611bb657507f5b5e139f000000000000000000000000000000000000000000000000000000007bffffffffffffffffffffffffffffffffffffffffffffffffffffffff1916827bffffffffffffffffffffffffffffffffffffffffffffffffffffffff1916145b80611bc65750611bc582611dfd565b5b9050919050565b611bf97f6e9df2884472b879b1e15954828504c1bbcb16dedfff9fea1277a631671a498960001b610fab565b611c257f9137bc2bd84e760f5051884b71f1bcf40cbd6cef0b38990d0ea58332b577fa7460001b610fab565b611c517ff9b3aa7c6a7c61f361480edac60139ae924fd72812ef897f85e02834ddbbbb9360001b610fab565b611c5c838383611e67565b505050565b505050565b6000611c878473ffffffffffffffffffffffffffffffffffffffff16611f7b565b15611df0578373ffffffffffffffffffffffffffffffffffffffff1663150b7a02611cb0611094565b8786866040518563ffffffff1660e01b8152600401611cd29493929190612993565b602060405180830381600087803b158015611cec57600080fd5b505af1925050508015611d1d57506040513d601f19601f82011682018060405250810190611d1a91906125bc565b60015b611da0573d8060008114611d4d576040519150601f19603f3d011682016040523d82523d6000602084013e611d52565b606091505b50600081511415611d98576040517f08c379a0000000000000000000000000000000000000000000000000000000008152600401611d8f90612a3c565b60405180910390fd5b805181602001fd5b63150b7a0260e01b7bffffffffffffffffffffffffffffffffffffffffffffffffffffffff1916817bffffffffffffffffffffffffffffffffffffffffffffffffffffffff191614915050611df5565b600190505b949350505050565b60007f01ffc9a7000000000000000000000000000000000000000000000000000000007bffffffffffffffffffffffffffffffffffffffffffffffffffffffff1916827bffffffffffffffffffffffffffffffffffffffffffffffffffffffff1916149050919050565b611e72838383611f9e565b600073ffffffffffffffffffffffffffffffffffffffff168373ffffffffffffffffffffffffffffffffffffffff161415611eb557611eb081611fa3565b611ef4565b8173ffffffffffffffffffffffffffffffffffffffff168373ffffffffffffffffffffffffffffffffffffffff1614611ef357611ef28382611fec565b5b5b600073ffffffffffffffffffffffffffffffffffffffff168273ffffffffffffffffffffffffffffffffffffffff161415611f3757611f3281612159565b611f76565b8273ffffffffffffffffffffffffffffffffffffffff168273ffffffffffffffffffffffffffffffffffffffff1614611f7557611f74828261229c565b5b5b505050565b6000808273ffffffffffffffffffffffffffffffffffffffff163b119050919050565b505050565b6008805490506009600083815260200190815260200160002081905550600881908060018154018082558091505060019003906000526020600020016000909190919091505550565b60006001611ff98461094b565b6120039190612d97565b90506000600760008481526020019081526020016000205490508181146120e8576000600660008673ffffffffffffffffffffffffffffffffffffffff1673ffffffffffffffffffffffffffffffffffffffff168152602001908152602001600020600084815260200190815260200160002054905080600660008773ffffffffffffffffffffffffffffffffffffffff1673ffffffffffffffffffffffffffffffffffffffff168152602001908152602001600020600084815260200190815260200160002081905550816007600083815260200190815260200160002081905550505b6007600084815260200190815260200160002060009055600660008573ffffffffffffffffffffffffffffffffffffffff1673ffffffffffffffffffffffffffffffffffffffff16815260200190815260200160002060008381526020019081526020016000206000905550505050565b6000600160088054905061216d9190612d97565b90506000600960008481526020019081526020016000205490506000600883815481106121c3577f4e487b7100000000000000000000000000000000000000000000000000000000600052603260045260246000fd5b90600052602060002001549050806008838154811061220b577f4e487b7100000000000000000000000000000000000000000000000000000000600052603260045260246000fd5b906000526020600020018190555081600960008381526020019081526020016000208190555060096000858152602001908152602001600020600090556008805480612280577f4e487b7100000000000000000000000000000000000000000000000000000000600052603160045260246000fd5b6001900381819060005260206000200160009055905550505050565b60006122a78361094b565b905081600660008573ffffffffffffffffffffffffffffffffffffffff1673ffffffffffffffffffffffffffffffffffffffff168152602001908152602001600020600083815260200190815260200160002081905550806007600084815260200190815260200160002081905550505050565b600061232e61232984612c9c565b612c77565b90508281526020810184848401111561234657600080fd5b612351848285612e3f565b509392505050565b60008135905061236881613521565b92915050565b60008135905061237d81613538565b92915050565b6000813590506123928161354f565b92915050565b6000815190506123a78161354f565b92915050565b600082601f8301126123be57600080fd5b81356123ce84826020860161231b565b91505092915050565b6000813590506123e681613566565b92915050565b6000602082840312156123fe57600080fd5b600061240c84828501612359565b91505092915050565b6000806040838503121561242857600080fd5b600061243685828601612359565b925050602061244785828601612359565b9150509250929050565b60008060006060848603121561246657600080fd5b600061247486828701612359565b935050602061248586828701612359565b9250506040612496868287016123d7565b9150509250925092565b600080600080608085870312156124b657600080fd5b60006124c487828801612359565b94505060206124d587828801612359565b93505060406124e6878288016123d7565b925050606085013567ffffffffffffffff81111561250357600080fd5b61250f878288016123ad565b91505092959194509250565b6000806040838503121561252e57600080fd5b600061253c85828601612359565b925050602061254d8582860161236e565b9150509250929050565b6000806040838503121561256a57600080fd5b600061257885828601612359565b9250506020612589858286016123d7565b9150509250929050565b6000602082840312156125a557600080fd5b60006125b384828501612383565b91505092915050565b6000602082840312156125ce57600080fd5b60006125dc84828501612398565b91505092915050565b6000602082840312156125f757600080fd5b6000612605848285016123d7565b91505092915050565b61261781612dcb565b82525050565b61262681612ddd565b82525050565b600061263782612ccd565b6126418185612ce3565b9350612651818560208601612e4e565b61265a8161301a565b840191505092915050565b600061267082612cd8565b61267a8185612cf4565b935061268a818560208601612e4e565b6126938161301a565b840191505092915050565b60006126a982612cd8565b6126b38185612d05565b93506126c3818560208601612e4e565b80840191505092915050565b60006126dc602b83612cf4565b91506126e78261302b565b604082019050919050565b60006126ff603283612cf4565b915061270a8261307a565b604082019050919050565b6000612722602683612cf4565b915061272d826130c9565b604082019050919050565b6000612745602583612cf4565b915061275082613118565b604082019050919050565b6000612768601c83612cf4565b915061277382613167565b602082019050919050565b600061278b602483612cf4565b915061279682613190565b604082019050919050565b60006127ae601983612cf4565b91506127b9826131df565b602082019050919050565b60006127d1602c83612cf4565b91506127dc82613208565b604082019050919050565b60006127f4603883612cf4565b91506127ff82613257565b604082019050919050565b6000612817602a83612cf4565b9150612822826132a6565b604082019050919050565b600061283a602983612cf4565b9150612845826132f5565b604082019050919050565b600061285d602083612cf4565b915061286882613344565b602082019050919050565b6000612880602c83612cf4565b915061288b8261336d565b604082019050919050565b60006128a3602083612cf4565b91506128ae826133bc565b602082019050919050565b60006128c6602f83612cf4565b91506128d1826133e5565b604082019050919050565b60006128e9602183612cf4565b91506128f482613434565b604082019050919050565b600061290c603183612cf4565b915061291782613483565b604082019050919050565b600061292f602c83612cf4565b915061293a826134d2565b604082019050919050565b61294e81612e35565b82525050565b6000612960828561269e565b915061296c828461269e565b91508190509392505050565b600060208201905061298d600083018461260e565b92915050565b60006080820190506129a8600083018761260e565b6129b5602083018661260e565b6129c26040830185612945565b81810360608301526129d4818461262c565b905095945050505050565b60006020820190506129f4600083018461261d565b92915050565b60006020820190508181036000830152612a148184612665565b905092915050565b60006020820190508181036000830152612a35816126cf565b9050919050565b60006020820190508181036000830152612a55816126f2565b9050919050565b60006020820190508181036000830152612a7581612715565b9050919050565b60006020820190508181036000830152612a9581612738565b9050919050565b60006020820190508181036000830152612ab58161275b565b9050919050565b60006020820190508181036000830152612ad58161277e565b9050919050565b60006020820190508181036000830152612af5816127a1565b9050919050565b60006020820190508181036000830152612b15816127c4565b9050919050565b60006020820190508181036000830152612b35816127e7565b9050919050565b60006020820190508181036000830152612b558161280a565b9050919050565b60006020820190508181036000830152612b758161282d565b9050919050565b60006020820190508181036000830152612b9581612850565b9050919050565b60006020820190508181036000830152612bb581612873565b9050919050565b60006020820190508181036000830152612bd581612896565b9050919050565b60006020820190508181036000830152612bf5816128b9565b9050919050565b60006020820190508181036000830152612c15816128dc565b9050919050565b60006020820190508181036000830152612c35816128ff565b9050919050565b60006020820190508181036000830152612c5581612922565b9050919050565b6000602082019050612c716000830184612945565b92915050565b6000612c81612c92565b9050612c8d8282612eb3565b919050565b6000604051905090565b600067ffffffffffffffff821115612cb757612cb6612feb565b5b612cc08261301a565b9050602081019050919050565b600081519050919050565b600081519050919050565b600082825260208201905092915050565b600082825260208201905092915050565b600081905092915050565b6000612d1b82612e35565b9150612d2683612e35565b9250827fffffffffffffffffffffffffffffffffffffffffffffffffffffffffffffffff03821115612d5b57612d5a612f5e565b5b828201905092915050565b6000612d7182612e35565b9150612d7c83612e35565b925082612d8c57612d8b612f8d565b5b828204905092915050565b6000612da282612e35565b9150612dad83612e35565b925082821015612dc057612dbf612f5e565b5b828203905092915050565b6000612dd682612e15565b9050919050565b60008115159050919050565b60007fffffffff0000000000000000000000000000000000000000000000000000000082169050919050565b600073ffffffffffffffffffffffffffffffffffffffff82169050919050565b6000819050919050565b82818337600083830152505050565b60005b83811015612e6c578082015181840152602081019050612e51565b83811115612e7b576000848401525b50505050565b60006002820490506001821680612e9957607f821691505b60208210811415612ead57612eac612fbc565b5b50919050565b612ebc8261301a565b810181811067ffffffffffffffff82111715612edb57612eda612feb565b5b80604052505050565b6000612eef82612e35565b91507fffffffffffffffffffffffffffffffffffffffffffffffffffffffffffffffff821415612f2257612f21612f5e565b5b600182019050919050565b6000612f3882612e35565b9150612f4383612e35565b925082612f5357612f52612f8d565b5b828206905092915050565b7f4e487b7100000000000000000000000000000000000000000000000000000000600052601160045260246000fd5b7f4e487b7100000000000000000000000000000000000000000000000000000000600052601260045260246000fd5b7f4e487b7100000000000000000000000000000000000000000000000000000000600052602260045260246000fd5b7f4e487b7100000000000000000000000000000000000000000000000000000000600052604160045260246000fd5b6000601f19601f8301169050919050565b7f455243373231456e756d657261626c653a206f776e657220696e646578206f7560008201527f74206f6620626f756e6473000000000000000000000000000000000000000000602082015250565b7f4552433732313a207472616e7366657220746f206e6f6e20455243373231526560008201527f63656976657220696d706c656d656e7465720000000000000000000000000000602082015250565b7f4f776e61626c653a206e6577206f776e657220697320746865207a65726f206160008201527f6464726573730000000000000000000000000000000000000000000000000000602082015250565b7f4552433732313a207472616e736665722066726f6d20696e636f72726563742060008201527f6f776e6572000000000000000000000000000000000000000000000000000000602082015250565b7f4552433732313a20746f6b656e20616c7265616479206d696e74656400000000600082015250565b7f4552433732313a207472616e7366657220746f20746865207a65726f2061646460008201527f7265737300000000000000000000000000000000000000000000000000000000602082015250565b7f4552433732313a20617070726f766520746f2063616c6c657200000000000000600082015250565b7f4552433732313a206f70657261746f7220717565727920666f72206e6f6e657860008201527f697374656e7420746f6b656e0000000000000000000000000000000000000000602082015250565b7f4552433732313a20617070726f76652063616c6c6572206973206e6f74206f7760008201527f6e6572206e6f7220617070726f76656420666f7220616c6c0000000000000000602082015250565b7f4552433732313a2062616c616e636520717565727920666f7220746865207a6560008201527f726f206164647265737300000000000000000000000000000000000000000000602082015250565b7f4552433732313a206f776e657220717565727920666f72206e6f6e657869737460008201527f656e7420746f6b656e0000000000000000000000000000000000000000000000602082015250565b7f4552433732313a206d696e7420746f20746865207a65726f2061646472657373600082015250565b7f4552433732313a20617070726f76656420717565727920666f72206e6f6e657860008201527f697374656e7420746f6b656e0000000000000000000000000000000000000000602082015250565b7f4f776e61626c653a2063616c6c6572206973206e6f7420746865206f776e6572600082015250565b7f4552433732314d657461646174613a2055524920717565727920666f72206e6f60008201527f6e6578697374656e7420746f6b656e0000000000000000000000000000000000602082015250565b7f4552433732313a20617070726f76616c20746f2063757272656e74206f776e6560008201527f7200000000000000000000000000000000000000000000000000000000000000602082015250565b7f4552433732313a207472616e736665722063616c6c6572206973206e6f74206f60008201527f776e6572206e6f7220617070726f766564000000000000000000000000000000602082015250565b7f455243373231456e756d657261626c653a20676c6f62616c20696e646578206f60008201527f7574206f6620626f756e64730000000000000000000000000000000000000000602082015250565b61352a81612dcb565b811461353557600080fd5b50565b61354181612ddd565b811461354c57600080fd5b50565b61355881612de9565b811461356357600080fd5b50565b61356f81612e35565b811461357a57600080fd5b5056fea264697066735822122043ad7912a531d0deffb322c6d1089d1d5b1821511cb1900843a6cf094cc188ba64736f6c63430008020033",
  "linkReferences": {},
  "deployedLinkReferences": {}
}