{
  "_format": "hh-sol-artifact-1",
  "contractName": "VestingProxy",
  "sourceName": "contracts/VestingProxy.sol",
  "abi": [
    {
      "inputs": [
        {
          "internalType": "address",
          "name": "logic",
          "type": "address"
        },
        {
          "internalType": "address",
          "name": "admin",
          "type": "address"
        },
        {
          "internalType": "address",
          "name": "provider",
          "type": "address"
        }
      ],
      "stateMutability": "payable",
      "type": "constructor"
    },
    {
      "anonymous": false,
      "inputs": [
        {
          "indexed": false,
          "internalType": "address",
          "name": "previousAdmin",
          "type": "address"
        },
        {
          "indexed": false,
          "internalType": "address",
          "name": "newAdmin",
          "type": "address"
        }
      ],
      "name": "AdminChanged",
      "type": "event"
    },
    {
      "anonymous": false,
      "inputs": [
        {
          "indexed": true,
          "internalType": "address",
          "name": "beacon",
          "type": "address"
        }
      ],
      "name": "BeaconUpgraded",
      "type": "event"
    },
    {
      "anonymous": false,
      "inputs": [
        {
          "indexed": true,
          "internalType": "address",
          "name": "token",
          "type": "address"
        },
        {
          "indexed": false,
          "internalType": "uint256",
          "name": "amount",
          "type": "uint256"
        }
      ],
      "name": "ERC20Released",
      "type": "event"
    },
    {
      "anonymous": false,
      "inputs": [
        {
          "indexed": false,
          "internalType": "uint256",
          "name": "amount",
          "type": "uint256"
        }
      ],
      "name": "EtherReleased",
      "type": "event"
    },
    {
      "anonymous": false,
      "inputs": [
        {
          "indexed": false,
          "internalType": "address",
          "name": "dao",
          "type": "address"
        },
        {
          "indexed": false,
          "internalType": "uint256",
          "name": "tokenId",
          "type": "uint256"
        },
        {
          "indexed": false,
          "internalType": "address",
          "name": "token",
          "type": "address"
        },
        {
          "indexed": false,
          "internalType": "uint64",
          "name": "start",
          "type": "uint64"
        },
        {
          "indexed": false,
          "internalType": "uint64",
          "name": "duration",
          "type": "uint64"
        }
      ],
      "name": "NewVestingScheduleCreated",
      "type": "event"
    },
    {
      "anonymous": false,
      "inputs": [],
      "name": "Revoked",
      "type": "event"
    },
    {
      "anonymous": false,
      "inputs": [
        {
          "indexed": true,
          "internalType": "address",
          "name": "implementation",
          "type": "address"
        }
      ],
      "name": "Upgraded",
      "type": "event"
    },
    {
      "stateMutability": "payable",
      "type": "fallback"
    },
    {
      "inputs": [
        {
          "internalType": "uint256",
          "name": "",
          "type": "uint256"
        },
        {
          "internalType": "address",
          "name": "",
          "type": "address"
        }
      ],
      "name": "VestingsList",
      "outputs": [
        {
          "internalType": "uint256",
          "name": "_released",
          "type": "uint256"
        },
        {
          "internalType": "bool",
          "name": "_revoked",
          "type": "bool"
        },
        {
          "internalType": "address",
          "name": "_beneficiary",
          "type": "address"
        },
        {
          "internalType": "uint64",
          "name": "_start",
          "type": "uint64"
        },
        {
          "internalType": "uint64",
          "name": "_duration",
          "type": "uint64"
        },
        {
          "internalType": "bool",
          "name": "_revocable",
          "type": "bool"
        },
        {
          "internalType": "uint256",
          "name": "_cliff",
          "type": "uint256"
        },
        {
          "internalType": "enum Storage.VestingType",
          "name": "vestingType",
          "type": "uint8"
        }
      ],
      "stateMutability": "view",
      "type": "function"
    },
    {
      "inputs": [
        {
          "internalType": "uint256",
          "name": "",
          "type": "uint256"
        }
      ],
      "name": "contributors",
      "outputs": [
        {
          "internalType": "address",
          "name": "",
          "type": "address"
        }
      ],
      "stateMutability": "view",
      "type": "function"
    },
    {
      "inputs": [
        {
          "internalType": "address",
          "name": "contributor",
          "type": "address"
        },
        {
          "internalType": "address",
          "name": "token",
          "type": "address"
        },
        {
          "components": [
            {
              "internalType": "uint256",
              "name": "_released",
              "type": "uint256"
            },
            {
              "internalType": "bool",
              "name": "_revoked",
              "type": "bool"
            },
            {
              "internalType": "address",
              "name": "_beneficiary",
              "type": "address"
            },
            {
              "internalType": "uint64",
              "name": "_start",
              "type": "uint64"
            },
            {
              "internalType": "uint64",
              "name": "_duration",
              "type": "uint64"
            },
            {
              "internalType": "bool",
              "name": "_revocable",
              "type": "bool"
            },
            {
              "internalType": "uint256",
              "name": "_cliff",
              "type": "uint256"
            },
            {
              "internalType": "enum Storage.VestingType",
              "name": "vestingType",
              "type": "uint8"
            }
          ],
          "internalType": "struct Storage.VestingSchedule",
          "name": "vestingSchedule",
          "type": "tuple"
        }
      ],
      "name": "createVesting",
      "outputs": [
        {
          "internalType": "uint256",
          "name": "",
          "type": "uint256"
        }
      ],
      "stateMutability": "nonpayable",
      "type": "function"
    },
    {
      "inputs": [],
      "name": "getAdmin",
      "outputs": [
        {
          "internalType": "address",
          "name": "",
          "type": "address"
        }
      ],
      "stateMutability": "view",
      "type": "function"
    },
    {
      "inputs": [],
      "name": "getImpl",
      "outputs": [
        {
          "internalType": "address",
          "name": "",
          "type": "address"
        }
      ],
      "stateMutability": "view",
      "type": "function"
    },
    {
      "inputs": [
        {
          "internalType": "uint256",
          "name": "tokenId",
          "type": "uint256"
        },
        {
          "internalType": "address",
          "name": "token",
          "type": "address"
        }
      ],
      "name": "getstart",
      "outputs": [
        {
          "internalType": "uint64",
          "name": "",
          "type": "uint64"
        }
      ],
      "stateMutability": "view",
      "type": "function"
    },
    {
      "inputs": [],
      "name": "providerContract",
      "outputs": [
        {
          "internalType": "address",
          "name": "",
          "type": "address"
        }
      ],
      "stateMutability": "view",
      "type": "function"
    },
    {
      "inputs": [
        {
          "internalType": "address",
          "name": "_newLogic",
          "type": "address"
        }
      ],
      "name": "updateImplementation",
      "outputs": [],
      "stateMutability": "nonpayable",
      "type": "function"
    },
    {
      "stateMutability": "payable",
      "type": "receive"
    }
  ],
  "bytecode": "0x60806040526000600260006101000a81548173ffffffffffffffffffffffffffffffffffffffff021916908373ffffffffffffffffffffffffffffffffffffffff1602179055506040516200180d3803806200180d83398181016040528101906200006b919062000489565b60017f360894a13ba1a3210667c828492db98dca3e2076cc3735a920a3ca505d382bbd60001c6200009d9190620005c0565b60001b7f360894a13ba1a3210667c828492db98dca3e2076cc3735a920a3ca505d382bbc60001b14620000f9577f4e487b7100000000000000000000000000000000000000000000000000000000600052600160045260246000fd5b80600360006101000a81548173ffffffffffffffffffffffffffffffffffffffff021916908373ffffffffffffffffffffffffffffffffffffffff1602179055506200014b836200016560201b60201c565b6200015c82620001bc60201b60201c565b50505062000720565b62000176816200021a60201b60201c565b8073ffffffffffffffffffffffffffffffffffffffff167fbc7cd75a20ee27fd9adebab32041f755214dbc6bffa90cc0225b39da2e5c2d3b60405160405180910390a250565b7f7e644d79422f17c01e4894b5f4f588d331ebfa28653d42ae832dc59e38c9798f620001ed620002f060201b60201c565b82604051620001fe9291906200053e565b60405180910390a162000217816200035460201b60201c565b50565b62000230816200044560201b620007c21760201c565b62000272576040517f08c379a000000000000000000000000000000000000000000000000000000000815260040162000269906200058d565b60405180910390fd5b80620002ac7f360894a13ba1a3210667c828492db98dca3e2076cc3735a920a3ca505d382bbc60001b6200046860201b620007e51760201c565b60000160006101000a81548173ffffffffffffffffffffffffffffffffffffffff021916908373ffffffffffffffffffffffffffffffffffffffff16021790555050565b60006200032b7fb53127684a568b3173ae13b9f8a6016e243e63b6e8ee1178d6a717850b5d610360001b6200046860201b620007e51760201c565b60000160009054906101000a900473ffffffffffffffffffffffffffffffffffffffff16905090565b600073ffffffffffffffffffffffffffffffffffffffff168173ffffffffffffffffffffffffffffffffffffffff161415620003c7576040517f08c379a0000000000000000000000000000000000000000000000000000000008152600401620003be906200056b565b60405180910390fd5b80620004017fb53127684a568b3173ae13b9f8a6016e243e63b6e8ee1178d6a717850b5d610360001b6200046860201b620007e51760201c565b60000160006101000a81548173ffffffffffffffffffffffffffffffffffffffff021916908373ffffffffffffffffffffffffffffffffffffffff16021790555050565b6000808273ffffffffffffffffffffffffffffffffffffffff163b119050919050565b6000819050919050565b600081519050620004838162000706565b92915050565b6000806000606084860312156200049f57600080fd5b6000620004af8682870162000472565b9350506020620004c28682870162000472565b9250506040620004d58682870162000472565b9150509250925092565b620004ea81620005fb565b82525050565b6000620004ff602683620005af565b91506200050c8262000668565b604082019050919050565b600062000526602d83620005af565b91506200053382620006b7565b604082019050919050565b6000604082019050620005556000830185620004df565b620005646020830184620004df565b9392505050565b600060208201905081810360008301526200058681620004f0565b9050919050565b60006020820190508181036000830152620005a88162000517565b9050919050565b600082825260208201905092915050565b6000620005cd826200062f565b9150620005da836200062f565b925082821015620005f057620005ef62000639565b5b828203905092915050565b600062000608826200060f565b9050919050565b600073ffffffffffffffffffffffffffffffffffffffff82169050919050565b6000819050919050565b7f4e487b7100000000000000000000000000000000000000000000000000000000600052601160045260246000fd5b7f455243313936373a206e65772061646d696e20697320746865207a65726f206160008201527f6464726573730000000000000000000000000000000000000000000000000000602082015250565b7f455243313936373a206e657720696d706c656d656e746174696f6e206973206e60008201527f6f74206120636f6e747261637400000000000000000000000000000000000000602082015250565b6200071181620005fb565b81146200071d57600080fd5b50565b6110dd80620007306000396000f3fe60806040526004361061007f5760003560e01c80636ee80de61161004e5780636ee80de61461016d5780639b263eca146101aa578063aac7e156146101d5578063dfb80831146102125761008e565b8063025b22bc14610098578063279a1d19146100c15780633cb5d100146101055780636e9960c3146101425761008e565b3661008e5761008c61023d565b005b61009661023d565b005b3480156100a457600080fd5b506100bf60048036038101906100ba9190610b35565b610257565b005b3480156100cd57600080fd5b506100e860048036038101906100e39190610c29565b6102d8565b6040516100fc989796959493929190610dbf565b60405180910390f35b34801561011157600080fd5b5061012c60048036038101906101279190610bd7565b61039c565b6040516101399190610cf6565b60405180910390f35b34801561014e57600080fd5b506101576103db565b6040516101649190610cf6565b60405180910390f35b34801561017957600080fd5b50610194600480360381019061018f9190610c29565b6103ea565b6040516101a19190610e3d565b60405180910390f35b3480156101b657600080fd5b506101bf61045c565b6040516101cc9190610cf6565b60405180910390f35b3480156101e157600080fd5b506101fc60048036038101906101f79190610b87565b610482565b6040516102099190610da4565b60405180910390f35b34801561021e57600080fd5b506102276107b3565b6040516102349190610cf6565b60405180910390f35b6102456107ef565b6102556102506107f1565b610800565b565b3373ffffffffffffffffffffffffffffffffffffffff166102766103db565b73ffffffffffffffffffffffffffffffffffffffff16146102cc576040517f08c379a00000000000000000000000000000000000000000000000000000000081526004016102c390610d64565b60405180910390fd5b6102d581610826565b50565b6001602052816000526040600020602052806000526040600020600091509150508060000154908060010160009054906101000a900460ff16908060010160019054906101000a900473ffffffffffffffffffffffffffffffffffffffff16908060010160159054906101000a900467ffffffffffffffff16908060020160009054906101000a900467ffffffffffffffff16908060020160089054906101000a900460ff16908060030154908060040160009054906101000a900460ff16905088565b600081815481106103ac57600080fd5b906000526020600020016000915054906101000a900473ffffffffffffffffffffffffffffffffffffffff1681565b60006103e5610875565b905090565b60006001600084815260200190815260200160002060008373ffffffffffffffffffffffffffffffffffffffff1673ffffffffffffffffffffffffffffffffffffffff16815260200190815260200160002060010160159054906101000a900467ffffffffffffffff16905092915050565b600360009054906101000a900473ffffffffffffffffffffffffffffffffffffffff1681565b600080600360009054906101000a900473ffffffffffffffffffffffffffffffffffffffff1673ffffffffffffffffffffffffffffffffffffffff1663c24ccbab6040518163ffffffff1660e01b815260040160206040518083038186803b1580156104ed57600080fd5b505afa158015610501573d6000803e3d6000fd5b505050506040513d601f19601f820116820180604052508101906105259190610b5e565b905060008173ffffffffffffffffffffffffffffffffffffffff1663d4262fa8876040518263ffffffff1660e01b81526004016105629190610cf6565b602060405180830381600087803b15801561057c57600080fd5b505af1158015610590573d6000803e3d6000fd5b505050506040513d601f19601f820116820180604052508101906105b49190610c00565b9050836001600083815260200190815260200160002060008773ffffffffffffffffffffffffffffffffffffffff1673ffffffffffffffffffffffffffffffffffffffff1681526020019081526020016000206000820151816000015560208201518160010160006101000a81548160ff02191690831515021790555060408201518160010160016101000a81548173ffffffffffffffffffffffffffffffffffffffff021916908373ffffffffffffffffffffffffffffffffffffffff16021790555060608201518160010160156101000a81548167ffffffffffffffff021916908367ffffffffffffffff16021790555060808201518160020160006101000a81548167ffffffffffffffff021916908367ffffffffffffffff16021790555060a08201518160020160086101000a81548160ff02191690831515021790555060c0820151816003015560e08201518160040160006101000a81548160ff02191690836001811115610751577f4e487b7100000000000000000000000000000000000000000000000000000000600052602160045260246000fd5b02179055509050507f80b99ed2777f0af14409c587e152b63c994cec0e6a65c825a72bc56700c0c0096107826103db565b82878760600151886080015160405161079f959493929190610d11565b60405180910390a180925050509392505050565b60006107bd6107f1565b905090565b6000808273ffffffffffffffffffffffffffffffffffffffff163b119050919050565b6000819050919050565b565b60006107fb6108cc565b905090565b3660008037600080366000845af43d6000803e8060008114610821573d6000f35b3d6000fd5b61082f81610923565b8073ffffffffffffffffffffffffffffffffffffffff167fbc7cd75a20ee27fd9adebab32041f755214dbc6bffa90cc0225b39da2e5c2d3b60405160405180910390a250565b60006108a37fb53127684a568b3173ae13b9f8a6016e243e63b6e8ee1178d6a717850b5d610360001b6107e5565b60000160009054906101000a900473ffffffffffffffffffffffffffffffffffffffff16905090565b60006108fa7f360894a13ba1a3210667c828492db98dca3e2076cc3735a920a3ca505d382bbc60001b6107e5565b60000160009054906101000a900473ffffffffffffffffffffffffffffffffffffffff16905090565b61092c816107c2565b61096b576040517f08c379a000000000000000000000000000000000000000000000000000000000815260040161096290610d84565b60405180910390fd5b806109987f360894a13ba1a3210667c828492db98dca3e2076cc3735a920a3ca505d382bbc60001b6107e5565b60000160006101000a81548173ffffffffffffffffffffffffffffffffffffffff021916908373ffffffffffffffffffffffffffffffffffffffff16021790555050565b6000813590506109eb8161103b565b92915050565b600081519050610a008161103b565b92915050565b600081359050610a1581611052565b92915050565b600081359050610a2a81611069565b92915050565b60006101008284031215610a4357600080fd5b610a4e610100610e58565b90506000610a5e84828501610af6565b6000830152506020610a7284828501610a06565b6020830152506040610a86848285016109dc565b6040830152506060610a9a84828501610b20565b6060830152506080610aae84828501610b20565b60808301525060a0610ac284828501610a06565b60a08301525060c0610ad684828501610af6565b60c08301525060e0610aea84828501610a1b565b60e08301525092915050565b600081359050610b0581611079565b92915050565b600081519050610b1a81611079565b92915050565b600081359050610b2f81611090565b92915050565b600060208284031215610b4757600080fd5b6000610b55848285016109dc565b91505092915050565b600060208284031215610b7057600080fd5b6000610b7e848285016109f1565b91505092915050565b60008060006101408486031215610b9d57600080fd5b6000610bab868287016109dc565b9350506020610bbc868287016109dc565b9250506040610bcd86828701610a30565b9150509250925092565b600060208284031215610be957600080fd5b6000610bf784828501610af6565b91505092915050565b600060208284031215610c1257600080fd5b6000610c2084828501610b0b565b91505092915050565b60008060408385031215610c3c57600080fd5b6000610c4a85828601610af6565b9250506020610c5b858286016109dc565b9150509250929050565b610c6e81610e8e565b82525050565b610c7d81610ea0565b82525050565b610c8c81610efd565b82525050565b6000610c9f601d83610e7d565b9150610caa82610faf565b602082019050919050565b6000610cc2602d83610e7d565b9150610ccd82610fd8565b604082019050919050565b610ce181610edf565b82525050565b610cf081610ee9565b82525050565b6000602082019050610d0b6000830184610c65565b92915050565b600060a082019050610d266000830188610c65565b610d336020830187610cd8565b610d406040830186610c65565b610d4d6060830185610ce7565b610d5a6080830184610ce7565b9695505050505050565b60006020820190508181036000830152610d7d81610c92565b9050919050565b60006020820190508181036000830152610d9d81610cb5565b9050919050565b6000602082019050610db96000830184610cd8565b92915050565b600061010082019050610dd5600083018b610cd8565b610de2602083018a610c74565b610def6040830189610c65565b610dfc6060830188610ce7565b610e096080830187610ce7565b610e1660a0830186610c74565b610e2360c0830185610cd8565b610e3060e0830184610c83565b9998505050505050505050565b6000602082019050610e526000830184610ce7565b92915050565b6000610e62610e73565b9050610e6e8282610f0f565b919050565b6000604051905090565b600082825260208201905092915050565b6000610e9982610ebf565b9050919050565b60008115159050919050565b6000819050610eba82611027565b919050565b600073ffffffffffffffffffffffffffffffffffffffff82169050919050565b6000819050919050565b600067ffffffffffffffff82169050919050565b6000610f0882610eac565b9050919050565b610f1882610f9e565b810181811067ffffffffffffffff82111715610f3757610f36610f6f565b5b80604052505050565b7f4e487b7100000000000000000000000000000000000000000000000000000000600052602160045260246000fd5b7f4e487b7100000000000000000000000000000000000000000000000000000000600052604160045260246000fd5b6000601f19601f8301169050919050565b7f4f6e6c79206f776e65722063616e206372656174652076657374696e67000000600082015250565b7f455243313936373a206e657720696d706c656d656e746174696f6e206973206e60008201527f6f74206120636f6e747261637400000000000000000000000000000000000000602082015250565b6002811061103857611037610f40565b5b50565b61104481610e8e565b811461104f57600080fd5b50565b61105b81610ea0565b811461106657600080fd5b50565b6002811061107657600080fd5b50565b61108281610edf565b811461108d57600080fd5b50565b61109981610ee9565b81146110a457600080fd5b5056fea2646970667358221220fcb7006b6991e8b4d8a245d929a9d0832d39939ac1210809b51fed0737cc9b0d64736f6c63430008020033",
  "linkReferences": {},
  "deployedLinkReferences": {}
}