{
  "_format": "hh-sol-artifact-1",
  "contractName": "VestingWallet",
  "sourceName": "contracts/vesting/VestingWallet.sol",
  "abi": [
    {
      "anonymous": false,
      "inputs": [
        {
          "indexed": true,
          "internalType": "address",
          "name": "token",
          "type": "address"
        },
        {
          "indexed": false,
          "internalType": "uint256",
          "name": "amount",
          "type": "uint256"
        }
      ],
      "name": "ERC20Released",
      "type": "event"
    },
    {
      "anonymous": false,
      "inputs": [
        {
          "indexed": false,
          "internalType": "uint256",
          "name": "amount",
          "type": "uint256"
        }
      ],
      "name": "EtherReleased",
      "type": "event"
    },
    {
      "anonymous": false,
      "inputs": [
        {
          "indexed": false,
          "internalType": "address",
          "name": "dao",
          "type": "address"
        },
        {
          "indexed": false,
          "internalType": "uint256",
          "name": "tokenId",
          "type": "uint256"
        },
        {
          "indexed": false,
          "internalType": "address",
          "name": "token",
          "type": "address"
        },
        {
          "indexed": false,
          "internalType": "uint64",
          "name": "start",
          "type": "uint64"
        },
        {
          "indexed": false,
          "internalType": "uint64",
          "name": "duration",
          "type": "uint64"
        }
      ],
      "name": "NewVestingScheduleCreated",
      "type": "event"
    },
    {
      "anonymous": false,
      "inputs": [
        {
          "indexed": true,
          "internalType": "address",
          "name": "previousOwner",
          "type": "address"
        },
        {
          "indexed": true,
          "internalType": "address",
          "name": "newOwner",
          "type": "address"
        }
      ],
      "name": "OwnershipTransferred",
      "type": "event"
    },
    {
      "anonymous": false,
      "inputs": [],
      "name": "Revoked",
      "type": "event"
    },
    {
      "inputs": [
        {
          "internalType": "uint256",
          "name": "",
          "type": "uint256"
        },
        {
          "internalType": "address",
          "name": "",
          "type": "address"
        }
      ],
      "name": "VestingsList",
      "outputs": [
        {
          "internalType": "uint256",
          "name": "_released",
          "type": "uint256"
        },
        {
          "internalType": "bool",
          "name": "_revoked",
          "type": "bool"
        },
        {
          "internalType": "address",
          "name": "_beneficiary",
          "type": "address"
        },
        {
          "internalType": "uint64",
          "name": "_start",
          "type": "uint64"
        },
        {
          "internalType": "uint64",
          "name": "_duration",
          "type": "uint64"
        },
        {
          "internalType": "bool",
          "name": "_revocable",
          "type": "bool"
        },
        {
          "internalType": "uint256",
          "name": "_cliff",
          "type": "uint256"
        },
        {
          "internalType": "enum Storage.VestingType",
          "name": "vestingType",
          "type": "uint8"
        }
      ],
      "stateMutability": "view",
      "type": "function"
    },
    {
      "inputs": [
        {
          "internalType": "uint256",
          "name": "tokenId",
          "type": "uint256"
        },
        {
          "internalType": "address",
          "name": "token",
          "type": "address"
        }
      ],
      "name": "beneficiary",
      "outputs": [
        {
          "internalType": "address",
          "name": "",
          "type": "address"
        }
      ],
      "stateMutability": "view",
      "type": "function"
    },
    {
      "inputs": [
        {
          "internalType": "uint256",
          "name": "",
          "type": "uint256"
        }
      ],
      "name": "contributors",
      "outputs": [
        {
          "internalType": "address",
          "name": "",
          "type": "address"
        }
      ],
      "stateMutability": "view",
      "type": "function"
    },
    {
      "inputs": [
        {
          "internalType": "uint256",
          "name": "tokenId",
          "type": "uint256"
        },
        {
          "internalType": "address",
          "name": "token",
          "type": "address"
        }
      ],
      "name": "duration",
      "outputs": [
        {
          "internalType": "uint256",
          "name": "",
          "type": "uint256"
        }
      ],
      "stateMutability": "view",
      "type": "function"
    },
    {
      "inputs": [],
      "name": "getBlockTime",
      "outputs": [
        {
          "internalType": "uint256",
          "name": "",
          "type": "uint256"
        }
      ],
      "stateMutability": "view",
      "type": "function"
    },
    {
      "inputs": [],
      "name": "owner",
      "outputs": [
        {
          "internalType": "address",
          "name": "",
          "type": "address"
        }
      ],
      "stateMutability": "view",
      "type": "function"
    },
    {
      "inputs": [],
      "name": "providerContract",
      "outputs": [
        {
          "internalType": "address",
          "name": "",
          "type": "address"
        }
      ],
      "stateMutability": "view",
      "type": "function"
    },
    {
      "inputs": [
        {
          "internalType": "uint256",
          "name": "tokenId",
          "type": "uint256"
        },
        {
          "internalType": "address",
          "name": "token",
          "type": "address"
        }
      ],
      "name": "release",
      "outputs": [],
      "stateMutability": "nonpayable",
      "type": "function"
    },
    {
      "inputs": [
        {
          "internalType": "uint256",
          "name": "tokenId",
          "type": "uint256"
        },
        {
          "internalType": "address",
          "name": "token",
          "type": "address"
        }
      ],
      "name": "released",
      "outputs": [
        {
          "internalType": "uint256",
          "name": "",
          "type": "uint256"
        }
      ],
      "stateMutability": "view",
      "type": "function"
    },
    {
      "inputs": [],
      "name": "renounceOwnership",
      "outputs": [],
      "stateMutability": "nonpayable",
      "type": "function"
    },
    {
      "inputs": [
        {
          "internalType": "uint256",
          "name": "tokenId",
          "type": "uint256"
        },
        {
          "internalType": "address",
          "name": "token",
          "type": "address"
        }
      ],
      "name": "revoke",
      "outputs": [],
      "stateMutability": "nonpayable",
      "type": "function"
    },
    {
      "inputs": [
        {
          "internalType": "uint256",
          "name": "tokenId",
          "type": "uint256"
        },
        {
          "internalType": "address",
          "name": "token",
          "type": "address"
        }
      ],
      "name": "start",
      "outputs": [
        {
          "internalType": "uint256",
          "name": "",
          "type": "uint256"
        }
      ],
      "stateMutability": "view",
      "type": "function"
    },
    {
      "inputs": [
        {
          "internalType": "address",
          "name": "newOwner",
          "type": "address"
        }
      ],
      "name": "transferOwnership",
      "outputs": [],
      "stateMutability": "nonpayable",
      "type": "function"
    },
    {
      "inputs": [
        {
          "internalType": "uint256",
          "name": "tokenId",
          "type": "uint256"
        },
        {
          "internalType": "address",
          "name": "token",
          "type": "address"
        },
        {
          "internalType": "uint64",
          "name": "timestamp",
          "type": "uint64"
        }
      ],
      "name": "vestedAmount",
      "outputs": [
        {
          "internalType": "uint256",
          "name": "",
          "type": "uint256"
        }
      ],
      "stateMutability": "view",
      "type": "function"
    },
    {
      "stateMutability": "payable",
      "type": "receive"
    }
  ],
  "bytecode": "0x60806040526000600260006101000a81548173ffffffffffffffffffffffffffffffffffffffff021916908373ffffffffffffffffffffffffffffffffffffffff1602179055503480156200005357600080fd5b5062000074620000686200007a60201b60201c565b6200008260201b60201c565b62000148565b600033905090565b6000600460009054906101000a900473ffffffffffffffffffffffffffffffffffffffff16905081600460006101000a81548173ffffffffffffffffffffffffffffffffffffffff021916908373ffffffffffffffffffffffffffffffffffffffff1602179055508173ffffffffffffffffffffffffffffffffffffffff168173ffffffffffffffffffffffffffffffffffffffff167f8be0079c531659141344cd1fd0a4f28419497f9722a3daafe3b4186f6b6457e060405160405180910390a35050565b61257b80620001586000396000f3fe6080604052600436106100e15760003560e01c806387ceff091161007f5780639b263eca116100595780639b263eca146102e4578063ac953d451461030f578063debf76971461034c578063f2fde38b14610389576100e8565b806387ceff09146102515780638da5cb5b1461027c57806392ee399f146102a7576100e8565b80633cb5d100116100bb5780633cb5d100146101975780634fb2ce04146101d4578063715018a6146102115780638124fea614610228576100e8565b80630551e611146100ed57806320d154da1461012a578063279a1d1914610153576100e8565b366100e857005b600080fd5b3480156100f957600080fd5b50610114600480360381019061010f9190611ad5565b6103b2565b6040516101219190611f25565b60405180910390f35b34801561013657600080fd5b50610151600480360381019061014c9190611ad5565b61042e565b005b34801561015f57600080fd5b5061017a60048036038101906101759190611ad5565b61081e565b60405161018e989796959493929190611f40565b60405180910390f35b3480156101a357600080fd5b506101be60048036038101906101b99190611a83565b6108e2565b6040516101cb9190611d9f565b60405180910390f35b3480156101e057600080fd5b506101fb60048036038101906101f69190611ad5565b610921565b6040516102089190611f25565b60405180910390f35b34801561021d57600080fd5b5061022661099d565b005b34801561023457600080fd5b5061024f600480360381019061024a9190611ad5565b610a25565b005b34801561025d57600080fd5b50610266610d72565b6040516102739190611f25565b60405180910390f35b34801561028857600080fd5b50610291610d84565b60405161029e9190611d9f565b60405180910390f35b3480156102b357600080fd5b506102ce60048036038101906102c99190611ad5565b610dae565b6040516102db9190611d9f565b60405180910390f35b3480156102f057600080fd5b506102f9610e2c565b6040516103069190611d9f565b60405180910390f35b34801561031b57600080fd5b5061033660048036038101906103319190611b11565b610e52565b6040516103439190611f25565b60405180910390f35b34801561035857600080fd5b50610373600480360381019061036e9190611ad5565b611131565b6040516103809190611f25565b60405180910390f35b34801561039557600080fd5b506103b060048036038101906103ab9190611a31565b61118f565b005b60006001600084815260200190815260200160002060008373ffffffffffffffffffffffffffffffffffffffff1673ffffffffffffffffffffffffffffffffffffffff16815260200190815260200160002060020160009054906101000a900467ffffffffffffffff1667ffffffffffffffff16905092915050565b610436611287565b73ffffffffffffffffffffffffffffffffffffffff16610454610d84565b73ffffffffffffffffffffffffffffffffffffffff16146104aa576040517f08c379a00000000000000000000000000000000000000000000000000000000081526004016104a190611ec5565b60405180910390fd5b6001600083815260200190815260200160002060008273ffffffffffffffffffffffffffffffffffffffff1673ffffffffffffffffffffffffffffffffffffffff16815260200190815260200160002060020160089054906101000a900460ff1661051457600080fd5b6001600083815260200190815260200160002060008273ffffffffffffffffffffffffffffffffffffffff1673ffffffffffffffffffffffffffffffffffffffff16815260200190815260200160002060010160009054906101000a900460ff161561057f57600080fd5b600260009054906101000a900473ffffffffffffffffffffffffffffffffffffffff1673ffffffffffffffffffffffffffffffffffffffff168173ffffffffffffffffffffffffffffffffffffffff16141561068d5760006105e18383611131565b6105ec848442610e52565b6105f6919061210f565b905060008147610606919061210f565b9050600180600086815260200190815260200160002060008573ffffffffffffffffffffffffffffffffffffffff1673ffffffffffffffffffffffffffffffffffffffff16815260200190815260200160002060010160006101000a81548160ff0219169083151502179055506106866106808585610dae565b8261128f565b50506107ee565b60008173ffffffffffffffffffffffffffffffffffffffff166370a08231306040518263ffffffff1660e01b81526004016106c89190611d9f565b60206040518083038186803b1580156106e057600080fd5b505afa1580156106f4573d6000803e3d6000fd5b505050506040513d601f19601f820116820180604052508101906107189190611aac565b905060006107268484611131565b610731858542610e52565b61073b919061210f565b90506000818361074b919061210f565b9050600180600087815260200190815260200160002060008673ffffffffffffffffffffffffffffffffffffffff1673ffffffffffffffffffffffffffffffffffffffff16815260200190815260200160002060010160006101000a81548160ff0219169083151502179055506107ea6107c3610d84565b828673ffffffffffffffffffffffffffffffffffffffff166113839092919063ffffffff16565b5050505b7f44825a4b2df8acb19ce4e1afba9aa850c8b65cdb7942e2078f27d0b0960efee660405160405180910390a15050565b6001602052816000526040600020602052806000526040600020600091509150508060000154908060010160009054906101000a900460ff16908060010160019054906101000a900473ffffffffffffffffffffffffffffffffffffffff16908060010160159054906101000a900467ffffffffffffffff16908060020160009054906101000a900467ffffffffffffffff16908060020160089054906101000a900460ff16908060030154908060040160009054906101000a900460ff16905088565b600081815481106108f257600080fd5b906000526020600020016000915054906101000a900473ffffffffffffffffffffffffffffffffffffffff1681565b60006001600084815260200190815260200160002060008373ffffffffffffffffffffffffffffffffffffffff1673ffffffffffffffffffffffffffffffffffffffff16815260200190815260200160002060010160159054906101000a900467ffffffffffffffff1667ffffffffffffffff16905092915050565b6109a5611287565b73ffffffffffffffffffffffffffffffffffffffff166109c3610d84565b73ffffffffffffffffffffffffffffffffffffffff1614610a19576040517f08c379a0000000000000000000000000000000000000000000000000000000008152600401610a1090611ec5565b60405180910390fd5b610a236000611409565b565b6001600083815260200190815260200160002060008273ffffffffffffffffffffffffffffffffffffffff1673ffffffffffffffffffffffffffffffffffffffff168152602001908152602001600020600301544267ffffffffffffffff1611610ac4576040517f08c379a0000000000000000000000000000000000000000000000000000000008152600401610abb90611e05565b60405180910390fd5b600260009054906101000a900473ffffffffffffffffffffffffffffffffffffffff1673ffffffffffffffffffffffffffffffffffffffff168173ffffffffffffffffffffffffffffffffffffffff161415610c3a576000610b268383611131565b610b31848442610e52565b610b3b919061210f565b905060008111610b80576040517f08c379a0000000000000000000000000000000000000000000000000000000008152600401610b7790611ea5565b60405180910390fd5b806001600085815260200190815260200160002060008473ffffffffffffffffffffffffffffffffffffffff1673ffffffffffffffffffffffffffffffffffffffff1681526020019081526020016000206000016000828254610be39190611ff0565b925050819055507fda9d4e5f101b8b9b1c5b76d0c5a9f7923571acfc02376aa076b75a8c080c956b81604051610c199190611f25565b60405180910390a1610c34610c2e8484610dae565b8261128f565b50610d6e565b6000610c468383611131565b610c51848442610e52565b610c5b919061210f565b905060008111610ca0576040517f08c379a0000000000000000000000000000000000000000000000000000000008152600401610c9790611ea5565b60405180910390fd5b806001600085815260200190815260200160002060008473ffffffffffffffffffffffffffffffffffffffff1673ffffffffffffffffffffffffffffffffffffffff1681526020019081526020016000206000016000828254610d039190611ff0565b925050819055508173ffffffffffffffffffffffffffffffffffffffff167fc0e523490dd523c33b1878c9eb14ff46991e3f5b2cd33710918618f2a39cba1b82604051610d509190611f25565b60405180910390a2610d6c82610d668585610dae565b83611383565b505b5050565b60004267ffffffffffffffff16905090565b6000600460009054906101000a900473ffffffffffffffffffffffffffffffffffffffff16905090565b60006001600084815260200190815260200160002060008373ffffffffffffffffffffffffffffffffffffffff1673ffffffffffffffffffffffffffffffffffffffff16815260200190815260200160002060010160019054906101000a900473ffffffffffffffffffffffffffffffffffffffff16905092915050565b600360009054906101000a900473ffffffffffffffffffffffffffffffffffffffff1681565b6000600260009054906101000a900473ffffffffffffffffffffffffffffffffffffffff1673ffffffffffffffffffffffffffffffffffffffff168373ffffffffffffffffffffffffffffffffffffffff161415610f7557600160008581526020019081526020016000206000600260009054906101000a900473ffffffffffffffffffffffffffffffffffffffff1673ffffffffffffffffffffffffffffffffffffffff1673ffffffffffffffffffffffffffffffffffffffff16815260200190815260200160002060010160009054906101000a900460ff1615610f4e57610f3c8484611131565b47610f479190611ff0565b905061112a565b610f6e8484610f5d8787611131565b47610f689190611ff0565b856114cf565b905061112a565b6001600085815260200190815260200160002060008473ffffffffffffffffffffffffffffffffffffffff1673ffffffffffffffffffffffffffffffffffffffff16815260200190815260200160002060010160009054906101000a900460ff161561107f57610fe58484611131565b8373ffffffffffffffffffffffffffffffffffffffff166370a08231306040518263ffffffff1660e01b815260040161101e9190611d9f565b60206040518083038186803b15801561103657600080fd5b505afa15801561104a573d6000803e3d6000fd5b505050506040513d601f19601f8201168201806040525081019061106e9190611aac565b6110789190611ff0565b905061112a565b611127848461108e8787611131565b8673ffffffffffffffffffffffffffffffffffffffff166370a08231306040518263ffffffff1660e01b81526004016110c79190611d9f565b60206040518083038186803b1580156110df57600080fd5b505afa1580156110f3573d6000803e3d6000fd5b505050506040513d601f19601f820116820180604052508101906111179190611aac565b6111219190611ff0565b856114cf565b90505b9392505050565b60006001600084815260200190815260200160002060008373ffffffffffffffffffffffffffffffffffffffff1673ffffffffffffffffffffffffffffffffffffffff16815260200190815260200160002060000154905092915050565b611197611287565b73ffffffffffffffffffffffffffffffffffffffff166111b5610d84565b73ffffffffffffffffffffffffffffffffffffffff161461120b576040517f08c379a000000000000000000000000000000000000000000000000000000000815260040161120290611ec5565b60405180910390fd5b600073ffffffffffffffffffffffffffffffffffffffff168173ffffffffffffffffffffffffffffffffffffffff16141561127b576040517f08c379a000000000000000000000000000000000000000000000000000000000815260040161127290611e25565b60405180910390fd5b61128481611409565b50565b600033905090565b804710156112d2576040517f08c379a00000000000000000000000000000000000000000000000000000000081526004016112c990611e65565b60405180910390fd5b60008273ffffffffffffffffffffffffffffffffffffffff16826040516112f890611d8a565b60006040518083038185875af1925050503d8060008114611335576040519150601f19603f3d011682016040523d82523d6000602084013e61133a565b606091505b505090508061137e576040517f08c379a000000000000000000000000000000000000000000000000000000000815260040161137590611e45565b60405180910390fd5b505050565b6114048363a9059cbb60e01b84846040516024016113a2929190611dba565b604051602081830303815290604052907bffffffffffffffffffffffffffffffffffffffffffffffffffffffff19166020820180517bffffffffffffffffffffffffffffffffffffffffffffffffffffffff838183161783525050505061174b565b505050565b6000600460009054906101000a900473ffffffffffffffffffffffffffffffffffffffff16905081600460006101000a81548173ffffffffffffffffffffffffffffffffffffffff021916908373ffffffffffffffffffffffffffffffffffffffff1602179055508173ffffffffffffffffffffffffffffffffffffffff168173ffffffffffffffffffffffffffffffffffffffff167f8be0079c531659141344cd1fd0a4f28419497f9722a3daafe3b4186f6b6457e060405160405180910390a35050565b60006001600086815260200190815260200160002060008573ffffffffffffffffffffffffffffffffffffffff1673ffffffffffffffffffffffffffffffffffffffff168152602001908152602001600020600301548267ffffffffffffffff16101561153f5760009050611743565b6001600086815260200190815260200160002060008573ffffffffffffffffffffffffffffffffffffffff1673ffffffffffffffffffffffffffffffffffffffff16815260200190815260200160002060020160009054906101000a900467ffffffffffffffff166001600087815260200190815260200160002060008673ffffffffffffffffffffffffffffffffffffffff1673ffffffffffffffffffffffffffffffffffffffff16815260200190815260200160002060010160159054906101000a900467ffffffffffffffff166116199190612046565b67ffffffffffffffff168267ffffffffffffffff16111561163c57829050611743565b6001600086815260200190815260200160002060008573ffffffffffffffffffffffffffffffffffffffff1673ffffffffffffffffffffffffffffffffffffffff16815260200190815260200160002060020160009054906101000a900467ffffffffffffffff1667ffffffffffffffff166001600087815260200190815260200160002060008673ffffffffffffffffffffffffffffffffffffffff1673ffffffffffffffffffffffffffffffffffffffff16815260200190815260200160002060010160159054906101000a900467ffffffffffffffff16836117219190612143565b67ffffffffffffffff168461173691906120b5565b6117409190612084565b90505b949350505050565b60006117ad826040518060400160405280602081526020017f5361666545524332303a206c6f772d6c6576656c2063616c6c206661696c65648152508573ffffffffffffffffffffffffffffffffffffffff166118129092919063ffffffff16565b905060008151111561180d57808060200190518101906117cd9190611a5a565b61180c576040517f08c379a000000000000000000000000000000000000000000000000000000000815260040161180390611f05565b60405180910390fd5b5b505050565b6060611821848460008561182a565b90509392505050565b60608247101561186f576040517f08c379a000000000000000000000000000000000000000000000000000000000815260040161186690611e85565b60405180910390fd5b6118788561193e565b6118b7576040517f08c379a00000000000000000000000000000000000000000000000000000000081526004016118ae90611ee5565b60405180910390fd5b6000808673ffffffffffffffffffffffffffffffffffffffff1685876040516118e09190611d73565b60006040518083038185875af1925050503d806000811461191d576040519150601f19603f3d011682016040523d82523d6000602084013e611922565b606091505b5091509150611932828286611961565b92505050949350505050565b6000808273ffffffffffffffffffffffffffffffffffffffff163b119050919050565b60608315611971578290506119c1565b6000835111156119845782518084602001fd5b816040517f08c379a00000000000000000000000000000000000000000000000000000000081526004016119b89190611de3565b60405180910390fd5b9392505050565b6000813590506119d7816124e9565b92915050565b6000815190506119ec81612500565b92915050565b600081359050611a0181612517565b92915050565b600081519050611a1681612517565b92915050565b600081359050611a2b8161252e565b92915050565b600060208284031215611a4357600080fd5b6000611a51848285016119c8565b91505092915050565b600060208284031215611a6c57600080fd5b6000611a7a848285016119dd565b91505092915050565b600060208284031215611a9557600080fd5b6000611aa3848285016119f2565b91505092915050565b600060208284031215611abe57600080fd5b6000611acc84828501611a07565b91505092915050565b60008060408385031215611ae857600080fd5b6000611af6858286016119f2565b9250506020611b07858286016119c8565b9150509250929050565b600080600060608486031215611b2657600080fd5b6000611b34868287016119f2565b9350506020611b45868287016119c8565b9250506040611b5686828701611a1c565b9150509250925092565b611b6981612177565b82525050565b611b7881612189565b82525050565b6000611b8982611fbe565b611b938185611fd4565b9350611ba38185602086016121f8565b80840191505092915050565b611bb8816121e6565b82525050565b6000611bc982611fc9565b611bd38185611fdf565b9350611be38185602086016121f8565b611bec816122b8565b840191505092915050565b6000611c04602083611fdf565b9150611c0f826122c9565b602082019050919050565b6000611c27602683611fdf565b9150611c32826122f2565b604082019050919050565b6000611c4a603a83611fdf565b9150611c5582612341565b604082019050919050565b6000611c6d601d83611fdf565b9150611c7882612390565b602082019050919050565b6000611c90602683611fdf565b9150611c9b826123b9565b604082019050919050565b6000611cb3601d83611fdf565b9150611cbe82612408565b602082019050919050565b6000611cd6602083611fdf565b9150611ce182612431565b602082019050919050565b6000611cf9600083611fd4565b9150611d048261245a565b600082019050919050565b6000611d1c601d83611fdf565b9150611d278261245d565b602082019050919050565b6000611d3f602a83611fdf565b9150611d4a82612486565b604082019050919050565b611d5e816121c8565b82525050565b611d6d816121d2565b82525050565b6000611d7f8284611b7e565b915081905092915050565b6000611d9582611cec565b9150819050919050565b6000602082019050611db46000830184611b60565b92915050565b6000604082019050611dcf6000830185611b60565b611ddc6020830184611d55565b9392505050565b60006020820190508181036000830152611dfd8184611bbe565b905092915050565b60006020820190508181036000830152611e1e81611bf7565b9050919050565b60006020820190508181036000830152611e3e81611c1a565b9050919050565b60006020820190508181036000830152611e5e81611c3d565b9050919050565b60006020820190508181036000830152611e7e81611c60565b9050919050565b60006020820190508181036000830152611e9e81611c83565b9050919050565b60006020820190508181036000830152611ebe81611ca6565b9050919050565b60006020820190508181036000830152611ede81611cc9565b9050919050565b60006020820190508181036000830152611efe81611d0f565b9050919050565b60006020820190508181036000830152611f1e81611d32565b9050919050565b6000602082019050611f3a6000830184611d55565b92915050565b600061010082019050611f56600083018b611d55565b611f63602083018a611b6f565b611f706040830189611b60565b611f7d6060830188611d64565b611f8a6080830187611d64565b611f9760a0830186611b6f565b611fa460c0830185611d55565b611fb160e0830184611baf565b9998505050505050505050565b600081519050919050565b600081519050919050565b600081905092915050565b600082825260208201905092915050565b6000611ffb826121c8565b9150612006836121c8565b9250827fffffffffffffffffffffffffffffffffffffffffffffffffffffffffffffffff0382111561203b5761203a61222b565b5b828201905092915050565b6000612051826121d2565b915061205c836121d2565b92508267ffffffffffffffff038211156120795761207861222b565b5b828201905092915050565b600061208f826121c8565b915061209a836121c8565b9250826120aa576120a961225a565b5b828204905092915050565b60006120c0826121c8565b91506120cb836121c8565b9250817fffffffffffffffffffffffffffffffffffffffffffffffffffffffffffffffff04831182151516156121045761210361222b565b5b828202905092915050565b600061211a826121c8565b9150612125836121c8565b9250828210156121385761213761222b565b5b828203905092915050565b600061214e826121d2565b9150612159836121d2565b92508282101561216c5761216b61222b565b5b828203905092915050565b6000612182826121a8565b9050919050565b60008115159050919050565b60008190506121a3826124d5565b919050565b600073ffffffffffffffffffffffffffffffffffffffff82169050919050565b6000819050919050565b600067ffffffffffffffff82169050919050565b60006121f182612195565b9050919050565b60005b838110156122165780820151818401526020810190506121fb565b83811115612225576000848401525b50505050565b7f4e487b7100000000000000000000000000000000000000000000000000000000600052601160045260246000fd5b7f4e487b7100000000000000000000000000000000000000000000000000000000600052601260045260246000fd5b7f4e487b7100000000000000000000000000000000000000000000000000000000600052602160045260246000fd5b6000601f19601f8301169050919050565b7f43616e6e6f7420636c61696d206265666f726520636c69666620706572696f64600082015250565b7f4f776e61626c653a206e6577206f776e657220697320746865207a65726f206160008201527f6464726573730000000000000000000000000000000000000000000000000000602082015250565b7f416464726573733a20756e61626c6520746f2073656e642076616c75652c207260008201527f6563697069656e74206d61792068617665207265766572746564000000000000602082015250565b7f416464726573733a20696e73756666696369656e742062616c616e6365000000600082015250565b7f416464726573733a20696e73756666696369656e742062616c616e636520666f60008201527f722063616c6c0000000000000000000000000000000000000000000000000000602082015250565b7f4e6f7420656e6f7567682062616c616e636520746f2072656c65617365000000600082015250565b7f4f776e61626c653a2063616c6c6572206973206e6f7420746865206f776e6572600082015250565b50565b7f416464726573733a2063616c6c20746f206e6f6e2d636f6e7472616374000000600082015250565b7f5361666545524332303a204552433230206f7065726174696f6e20646964206e60008201527f6f74207375636365656400000000000000000000000000000000000000000000602082015250565b600281106124e6576124e5612289565b5b50565b6124f281612177565b81146124fd57600080fd5b50565b61250981612189565b811461251457600080fd5b50565b612520816121c8565b811461252b57600080fd5b50565b612537816121d2565b811461254257600080fd5b5056fea2646970667358221220c79665ff19ff8a1cd0e2c13cdfeb29d652f6a6764e7868942ee925241acd79a364736f6c63430008020033",
  "linkReferences": {},
  "deployedLinkReferences": {}
}